{
	"contracts/006_StructTypes\n.sol": {
		"StructTypes": {
			"abi": [
				{
					"inputs": [],
					"name": "initStudent1",
					"outputs": [],
					"stateMutability": "nonpayable",
					"type": "function"
				},
				{
					"inputs": [],
					"name": "initStudent2",
					"outputs": [],
					"stateMutability": "nonpayable",
					"type": "function"
				},
				{
					"inputs": [],
					"name": "initStudent3",
					"outputs": [],
					"stateMutability": "nonpayable",
					"type": "function"
				},
				{
					"inputs": [],
					"name": "initStudent4",
					"outputs": [],
					"stateMutability": "nonpayable",
					"type": "function"
				}
			],
			"devdoc": {
				"kind": "dev",
				"methods": {},
				"version": 1
			},
			"evm": {
				"assembly": "    /* \"contracts/006_StructTypes\\n.sol\":65:875  contract StructTypes {... */\n  mstore(0x40, 0x80)\n  callvalue\n  dup1\n  iszero\n  tag_1\n  jumpi\n  0x00\n  dup1\n  revert\ntag_1:\n  pop\n  dataSize(sub_0)\n  dup1\n  dataOffset(sub_0)\n  0x00\n  codecopy\n  0x00\n  return\nstop\n\nsub_0: assembly {\n        /* \"contracts/006_StructTypes\\n.sol\":65:875  contract StructTypes {... */\n      mstore(0x40, 0x80)\n      callvalue\n      dup1\n      iszero\n      tag_1\n      jumpi\n      0x00\n      dup1\n      revert\n    tag_1:\n      pop\n      jumpi(tag_2, lt(calldatasize, 0x04))\n      shr(0xe0, calldataload(0x00))\n      dup1\n      0x1a8d7dc3\n      eq\n      tag_3\n      jumpi\n      dup1\n      0x5a4236b1\n      eq\n      tag_4\n      jumpi\n      dup1\n      0x9ebb8d20\n      eq\n      tag_5\n      jumpi\n      dup1\n      0xa8b63e6f\n      eq\n      tag_6\n      jumpi\n    tag_2:\n      0x00\n      dup1\n      revert\n        /* \"contracts/006_StructTypes\\n.sol\":552:644  function initStudent2() external {... */\n    tag_3:\n      tag_7\n      tag_8\n      jump\t// in\n    tag_7:\n      stop\n        /* \"contracts/006_StructTypes\\n.sol\":681:755  function initStudent3() external {... */\n    tag_4:\n      tag_9\n      tag_10\n      jump\t// in\n    tag_9:\n      stop\n        /* \"contracts/006_StructTypes\\n.sol\":786:873  function initStudent4() external {... */\n    tag_5:\n      tag_11\n      tag_12\n      jump\t// in\n    tag_11:\n      stop\n        /* \"contracts/006_StructTypes\\n.sol\":329:497  function initStudent1() external {... */\n    tag_6:\n      tag_13\n      tag_14\n      jump\t// in\n    tag_13:\n      stop\n        /* \"contracts/006_StructTypes\\n.sol\":552:644  function initStudent2() external {... */\n    tag_8:\n        /* \"contracts/006_StructTypes\\n.sol\":608:609  1 */\n      0x01\n        /* \"contracts/006_StructTypes\\n.sol\":595:602  student */\n      0x00\n        /* \"contracts/006_StructTypes\\n.sol\":595:605  student.id */\n      dup1\n      add\n        /* \"contracts/006_StructTypes\\n.sol\":595:609  student.id = 1 */\n      dup2\n      swap1\n      sstore\n      pop\n        /* \"contracts/006_StructTypes\\n.sol\":635:637  80 */\n      0x50\n        /* \"contracts/006_StructTypes\\n.sol\":619:626  student */\n      0x00\n        /* \"contracts/006_StructTypes\\n.sol\":619:632  student.score */\n      0x01\n      add\n        /* \"contracts/006_StructTypes\\n.sol\":619:637  student.score = 80 */\n      dup2\n      swap1\n      sstore\n      pop\n        /* \"contracts/006_StructTypes\\n.sol\":552:644  function initStudent2() external {... */\n      jump\t// out\n        /* \"contracts/006_StructTypes\\n.sol\":681:755  function initStudent3() external {... */\n    tag_10:\n        /* \"contracts/006_StructTypes\\n.sol\":734:748  Student(3, 90) */\n      mload(0x40)\n      dup1\n      0x40\n      add\n      0x40\n      mstore\n      dup1\n        /* \"contracts/006_StructTypes\\n.sol\":742:743  3 */\n      0x03\n        /* \"contracts/006_StructTypes\\n.sol\":734:748  Student(3, 90) */\n      dup2\n      mstore\n      0x20\n      add\n        /* \"contracts/006_StructTypes\\n.sol\":745:747  90 */\n      0x5a\n        /* \"contracts/006_StructTypes\\n.sol\":734:748  Student(3, 90) */\n      dup2\n      mstore\n      pop\n        /* \"contracts/006_StructTypes\\n.sol\":724:731  student */\n      0x00\n        /* \"contracts/006_StructTypes\\n.sol\":724:748  student = Student(3, 90) */\n      dup1\n      dup3\n      add\n      mload\n      dup2\n      0x00\n      add\n      sstore\n      0x20\n      dup3\n      add\n      mload\n      dup2\n      0x01\n      add\n      sstore\n      swap1\n      pop\n      pop\n        /* \"contracts/006_StructTypes\\n.sol\":681:755  function initStudent3() external {... */\n      jump\t// out\n        /* \"contracts/006_StructTypes\\n.sol\":786:873  function initStudent4() external {... */\n    tag_12:\n        /* \"contracts/006_StructTypes\\n.sol\":839:866  Student({id: 4, score: 60}) */\n      mload(0x40)\n      dup1\n      0x40\n      add\n      0x40\n      mstore\n      dup1\n        /* \"contracts/006_StructTypes\\n.sol\":852:853  4 */\n      0x04\n        /* \"contracts/006_StructTypes\\n.sol\":839:866  Student({id: 4, score: 60}) */\n      dup2\n      mstore\n      0x20\n      add\n        /* \"contracts/006_StructTypes\\n.sol\":862:864  60 */\n      0x3c\n        /* \"contracts/006_StructTypes\\n.sol\":839:866  Student({id: 4, score: 60}) */\n      dup2\n      mstore\n      pop\n        /* \"contracts/006_StructTypes\\n.sol\":829:836  student */\n      0x00\n        /* \"contracts/006_StructTypes\\n.sol\":829:866  student = Student({id: 4, score: 60}) */\n      dup1\n      dup3\n      add\n      mload\n      dup2\n      0x00\n      add\n      sstore\n      0x20\n      dup3\n      add\n      mload\n      dup2\n      0x01\n      add\n      sstore\n      swap1\n      pop\n      pop\n        /* \"contracts/006_StructTypes\\n.sol\":786:873  function initStudent4() external {... */\n      jump\t// out\n        /* \"contracts/006_StructTypes\\n.sol\":329:497  function initStudent1() external {... */\n    tag_14:\n        /* \"contracts/006_StructTypes\\n.sol\":372:396  Student storage _student */\n      0x00\n        /* \"contracts/006_StructTypes\\n.sol\":458:460  11 */\n      0x0b\n        /* \"contracts/006_StructTypes\\n.sol\":444:452  _student */\n      dup2\n        /* \"contracts/006_StructTypes\\n.sol\":444:455  _student.id */\n      0x00\n      add\n        /* \"contracts/006_StructTypes\\n.sol\":444:460  _student.id = 11 */\n      dup2\n      swap1\n      sstore\n      pop\n        /* \"contracts/006_StructTypes\\n.sol\":487:490  100 */\n      0x64\n        /* \"contracts/006_StructTypes\\n.sol\":470:478  _student */\n      dup2\n        /* \"contracts/006_StructTypes\\n.sol\":470:484  _student.score */\n      0x01\n      add\n        /* \"contracts/006_StructTypes\\n.sol\":470:490  _student.score = 100 */\n      dup2\n      swap1\n      sstore\n      pop\n        /* \"contracts/006_StructTypes\\n.sol\":362:497  {... */\n      pop\n        /* \"contracts/006_StructTypes\\n.sol\":329:497  function initStudent1() external {... */\n      jump\t// out\n\n    auxdata: 0xa26469706673582212201f20836bb927941ac9efba9db183794ee20f3f22ebaf55ccf7ad103b18449c9064736f6c63430008160033\n}\n",
				"bytecode": {
					"linkReferences": {},
					"object": "608060405234801561000f575f80fd5b506101288061001d5f395ff3fe6080604052348015600e575f80fd5b50600436106044575f3560e01c80631a8d7dc31460485780635a4236b11460505780639ebb8d20146058578063a8b63e6f146060575b5f80fd5b604e6068565b005b6056607d565b005b605e60ac565b005b606660db565b005b60015f80018190555060505f60010181905550565b604051806040016040528060038152602001605a8152505f80820151815f015560208201518160010155905050565b604051806040016040528060048152602001603c8152505f80820151815f015560208201518160010155905050565b5f600b815f0181905550606481600101819055505056fea26469706673582212201f20836bb927941ac9efba9db183794ee20f3f22ebaf55ccf7ad103b18449c9064736f6c63430008160033",
					"opcodes": "PUSH1 0x80 PUSH1 0x40 MSTORE CALLVALUE DUP1 ISZERO PUSH2 0xF JUMPI PUSH0 DUP1 REVERT JUMPDEST POP PUSH2 0x128 DUP1 PUSH2 0x1D PUSH0 CODECOPY PUSH0 RETURN INVALID PUSH1 0x80 PUSH1 0x40 MSTORE CALLVALUE DUP1 ISZERO PUSH1 0xE JUMPI PUSH0 DUP1 REVERT JUMPDEST POP PUSH1 0x4 CALLDATASIZE LT PUSH1 0x44 JUMPI PUSH0 CALLDATALOAD PUSH1 0xE0 SHR DUP1 PUSH4 0x1A8D7DC3 EQ PUSH1 0x48 JUMPI DUP1 PUSH4 0x5A4236B1 EQ PUSH1 0x50 JUMPI DUP1 PUSH4 0x9EBB8D20 EQ PUSH1 0x58 JUMPI DUP1 PUSH4 0xA8B63E6F EQ PUSH1 0x60 JUMPI JUMPDEST PUSH0 DUP1 REVERT JUMPDEST PUSH1 0x4E PUSH1 0x68 JUMP JUMPDEST STOP JUMPDEST PUSH1 0x56 PUSH1 0x7D JUMP JUMPDEST STOP JUMPDEST PUSH1 0x5E PUSH1 0xAC JUMP JUMPDEST STOP JUMPDEST PUSH1 0x66 PUSH1 0xDB JUMP JUMPDEST STOP JUMPDEST PUSH1 0x1 PUSH0 DUP1 ADD DUP2 SWAP1 SSTORE POP PUSH1 0x50 PUSH0 PUSH1 0x1 ADD DUP2 SWAP1 SSTORE POP JUMP JUMPDEST PUSH1 0x40 MLOAD DUP1 PUSH1 0x40 ADD PUSH1 0x40 MSTORE DUP1 PUSH1 0x3 DUP2 MSTORE PUSH1 0x20 ADD PUSH1 0x5A DUP2 MSTORE POP PUSH0 DUP1 DUP3 ADD MLOAD DUP2 PUSH0 ADD SSTORE PUSH1 0x20 DUP3 ADD MLOAD DUP2 PUSH1 0x1 ADD SSTORE SWAP1 POP POP JUMP JUMPDEST PUSH1 0x40 MLOAD DUP1 PUSH1 0x40 ADD PUSH1 0x40 MSTORE DUP1 PUSH1 0x4 DUP2 MSTORE PUSH1 0x20 ADD PUSH1 0x3C DUP2 MSTORE POP PUSH0 DUP1 DUP3 ADD MLOAD DUP2 PUSH0 ADD SSTORE PUSH1 0x20 DUP3 ADD MLOAD DUP2 PUSH1 0x1 ADD SSTORE SWAP1 POP POP JUMP JUMPDEST PUSH0 PUSH1 0xB DUP2 PUSH0 ADD DUP2 SWAP1 SSTORE POP PUSH1 0x64 DUP2 PUSH1 0x1 ADD DUP2 SWAP1 SSTORE POP POP JUMP INVALID LOG2 PUSH5 0x6970667358 0x22 SLT KECCAK256 0x1F KECCAK256 DUP4 PUSH12 0xB927941AC9EFBA9DB183794E 0xE2 0xF EXTCODEHASH 0x22 0xEB 0xAF SSTORE 0xCC 0xF7 0xAD LT EXTCODESIZE XOR PREVRANDAO SWAP13 SWAP1 PUSH5 0x736F6C6343 STOP ADDMOD AND STOP CALLER "
				},
				"gasEstimates": {
					"creation": {
						"codeDepositCost": "59200",
						"executionCost": "109",
						"totalCost": "59309"
					},
					"external": {
						"initStudent1()": "44430",
						"initStudent2()": "44359",
						"initStudent3()": "44452",
						"initStudent4()": "44474"
					}
				},
				"methodIdentifiers": {
					"initStudent1()": "a8b63e6f",
					"initStudent2()": "1a8d7dc3",
					"initStudent3()": "5a4236b1",
					"initStudent4()": "9ebb8d20"
				}
			},
			"storageLayout": {
				"storage": [
					{
						"astId": 9,
						"contract": "contracts/006_StructTypes\n.sol:StructTypes",
						"label": "student",
						"offset": 0,
						"slot": "0",
						"type": "t_struct(Student)6_storage"
					}
				],
				"types": {
					"t_struct(Student)6_storage": {
						"encoding": "inplace",
						"label": "struct StructTypes.Student",
						"members": [
							{
								"astId": 3,
								"contract": "contracts/006_StructTypes\n.sol:StructTypes",
								"label": "id",
								"offset": 0,
								"slot": "0",
								"type": "t_uint256"
							},
							{
								"astId": 5,
								"contract": "contracts/006_StructTypes\n.sol:StructTypes",
								"label": "score",
								"offset": 0,
								"slot": "1",
								"type": "t_uint256"
							}
						],
						"numberOfBytes": "64"
					},
					"t_uint256": {
						"encoding": "inplace",
						"label": "uint256",
						"numberOfBytes": "32"
					}
				}
			},
			"userdoc": {
				"kind": "user",
				"methods": {},
				"version": 1
			}
		}
	}
}