{
	"contracts/008_.sol": {
		"InitialValue": {
			"abi": [
				{
					"inputs": [],
					"name": "_address",
					"outputs": [
						{
							"internalType": "address",
							"name": "",
							"type": "address"
						}
					],
					"stateMutability": "view",
					"type": "function"
				},
				{
					"inputs": [],
					"name": "_bool",
					"outputs": [
						{
							"internalType": "bool",
							"name": "",
							"type": "bool"
						}
					],
					"stateMutability": "view",
					"type": "function"
				},
				{
					"inputs": [],
					"name": "_enum",
					"outputs": [
						{
							"internalType": "enum InitialValue.ActionSet",
							"name": "",
							"type": "uint8"
						}
					],
					"stateMutability": "view",
					"type": "function"
				},
				{
					"inputs": [],
					"name": "_int",
					"outputs": [
						{
							"internalType": "int256",
							"name": "",
							"type": "int256"
						}
					],
					"stateMutability": "view",
					"type": "function"
				},
				{
					"inputs": [],
					"name": "_string",
					"outputs": [
						{
							"internalType": "string",
							"name": "",
							"type": "string"
						}
					],
					"stateMutability": "view",
					"type": "function"
				},
				{
					"inputs": [],
					"name": "_uint",
					"outputs": [
						{
							"internalType": "uint256",
							"name": "",
							"type": "uint256"
						}
					],
					"stateMutability": "view",
					"type": "function"
				},
				{
					"inputs": [],
					"name": "fe",
					"outputs": [],
					"stateMutability": "nonpayable",
					"type": "function"
				},
				{
					"inputs": [],
					"name": "test",
					"outputs": [
						{
							"internalType": "uint256",
							"name": "",
							"type": "uint256"
						}
					],
					"stateMutability": "view",
					"type": "function"
				}
			],
			"devdoc": {
				"kind": "dev",
				"methods": {},
				"version": 1
			},
			"evm": {
				"assembly": "    /* \"contracts/008_.sol\":83:646  contract InitialValue {... */\n  mstore(0x40, 0x80)\n  callvalue\n  dup1\n  iszero\n  tag_1\n  jumpi\n  0x00\n  dup1\n  revert\ntag_1:\n  pop\n  dataSize(sub_0)\n  dup1\n  dataOffset(sub_0)\n  0x00\n  codecopy\n  0x00\n  return\nstop\n\nsub_0: assembly {\n        /* \"contracts/008_.sol\":83:646  contract InitialValue {... */\n      mstore(0x40, 0x80)\n      callvalue\n      dup1\n      iszero\n      tag_1\n      jumpi\n      0x00\n      dup1\n      revert\n    tag_1:\n      pop\n      jumpi(tag_2, lt(calldatasize, 0x04))\n      shr(0xe0, calldataload(0x00))\n      dup1\n      0x9b267f09\n      gt\n      tag_11\n      jumpi\n      dup1\n      0x9b267f09\n      eq\n      tag_7\n      jumpi\n      dup1\n      0x9e6ba9c2\n      eq\n      tag_8\n      jumpi\n      dup1\n      0xaf45869e\n      eq\n      tag_9\n      jumpi\n      dup1\n      0xf8a8fd6d\n      eq\n      tag_10\n      jumpi\n      jump(tag_2)\n    tag_11:\n      dup1\n      0x18bad217\n      eq\n      tag_3\n      jumpi\n      dup1\n      0x2543135b\n      eq\n      tag_4\n      jumpi\n      dup1\n      0x30c0826f\n      eq\n      tag_5\n      jumpi\n      dup1\n      0x86ed6eac\n      eq\n      tag_6\n      jumpi\n    tag_2:\n      0x00\n      dup1\n      revert\n        /* \"contracts/008_.sol\":236:259  address public _address */\n    tag_3:\n      tag_12\n      tag_13\n      jump\t// in\n    tag_12:\n      mload(0x40)\n      tag_14\n      swap2\n      swap1\n      tag_15\n      jump\t// in\n    tag_14:\n      mload(0x40)\n      dup1\n      swap2\n      sub\n      swap1\n      return\n        /* \"contracts/008_.sol\":205:225  uint256 public _uint */\n    tag_4:\n      tag_16\n      tag_17\n      jump\t// in\n    tag_16:\n      mload(0x40)\n      tag_18\n      swap2\n      swap1\n      tag_19\n      jump\t// in\n    tag_18:\n      mload(0x40)\n      dup1\n      swap2\n      sub\n      swap1\n      return\n        /* \"contracts/008_.sol\":490:512  ActionSet public _enum */\n    tag_5:\n      tag_20\n      tag_21\n      jump\t// in\n    tag_20:\n      mload(0x40)\n      tag_22\n      swap2\n      swap1\n      tag_23\n      jump\t// in\n    tag_22:\n      mload(0x40)\n      dup1\n      swap2\n      sub\n      swap1\n      return\n        /* \"contracts/008_.sol\":367:392  function fe() external {} */\n    tag_6:\n      tag_24\n      tag_25\n      jump\t// in\n    tag_24:\n      stop\n        /* \"contracts/008_.sol\":143:164  string public _string */\n    tag_7:\n      tag_26\n      tag_27\n      jump\t// in\n    tag_26:\n      mload(0x40)\n      tag_28\n      swap2\n      swap1\n      tag_29\n      jump\t// in\n    tag_28:\n      mload(0x40)\n      dup1\n      swap2\n      sub\n      swap1\n      return\n        /* \"contracts/008_.sol\":111:128  bool public _bool */\n    tag_8:\n      tag_30\n      tag_31\n      jump\t// in\n    tag_30:\n      mload(0x40)\n      tag_32\n      swap2\n      swap1\n      tag_33\n      jump\t// in\n    tag_32:\n      mload(0x40)\n      dup1\n      swap2\n      sub\n      swap1\n      return\n        /* \"contracts/008_.sol\":176:194  int256 public _int */\n    tag_9:\n      tag_34\n      tag_35\n      jump\t// in\n    tag_34:\n      mload(0x40)\n      tag_36\n      swap2\n      swap1\n      tag_37\n      jump\t// in\n    tag_36:\n      mload(0x40)\n      dup1\n      swap2\n      sub\n      swap1\n      return\n        /* \"contracts/008_.sol\":548:644  function test() external view returns (uint256) {... */\n    tag_10:\n      tag_38\n      tag_39\n      jump\t// in\n    tag_38:\n      mload(0x40)\n      tag_40\n      swap2\n      swap1\n      tag_19\n      jump\t// in\n    tag_40:\n      mload(0x40)\n      dup1\n      swap2\n      sub\n      swap1\n      return\n        /* \"contracts/008_.sol\":236:259  address public _address */\n    tag_13:\n      0x04\n      0x00\n      swap1\n      sload\n      swap1\n      0x0100\n      exp\n      swap1\n      div\n      0xffffffffffffffffffffffffffffffffffffffff\n      and\n      dup2\n      jump\t// out\n        /* \"contracts/008_.sol\":205:225  uint256 public _uint */\n    tag_17:\n      sload(0x03)\n      dup2\n      jump\t// out\n        /* \"contracts/008_.sol\":490:512  ActionSet public _enum */\n    tag_21:\n      0x04\n      0x14\n      swap1\n      sload\n      swap1\n      0x0100\n      exp\n      swap1\n      div\n      0xff\n      and\n      dup2\n      jump\t// out\n        /* \"contracts/008_.sol\":367:392  function fe() external {} */\n    tag_25:\n      jump\t// out\n        /* \"contracts/008_.sol\":143:164  string public _string */\n    tag_27:\n      0x01\n      dup1\n      sload\n      tag_42\n      swap1\n      tag_43\n      jump\t// in\n    tag_42:\n      dup1\n      0x1f\n      add\n      0x20\n      dup1\n      swap2\n      div\n      mul\n      0x20\n      add\n      mload(0x40)\n      swap1\n      dup2\n      add\n      0x40\n      mstore\n      dup1\n      swap3\n      swap2\n      swap1\n      dup2\n      dup2\n      mstore\n      0x20\n      add\n      dup3\n      dup1\n      sload\n      tag_44\n      swap1\n      tag_43\n      jump\t// in\n    tag_44:\n      dup1\n      iszero\n      tag_45\n      jumpi\n      dup1\n      0x1f\n      lt\n      tag_46\n      jumpi\n      0x0100\n      dup1\n      dup4\n      sload\n      div\n      mul\n      dup4\n      mstore\n      swap2\n      0x20\n      add\n      swap2\n      jump(tag_45)\n    tag_46:\n      dup3\n      add\n      swap2\n      swap1\n      0x00\n      mstore\n      keccak256(0x00, 0x20)\n      swap1\n    tag_47:\n      dup2\n      sload\n      dup2\n      mstore\n      swap1\n      0x01\n      add\n      swap1\n      0x20\n      add\n      dup1\n      dup4\n      gt\n      tag_47\n      jumpi\n      dup3\n      swap1\n      sub\n      0x1f\n      and\n      dup3\n      add\n      swap2\n    tag_45:\n      pop\n      pop\n      pop\n      pop\n      pop\n      dup2\n      jump\t// out\n        /* \"contracts/008_.sol\":111:128  bool public _bool */\n    tag_31:\n      0x00\n      dup1\n      sload\n      swap1\n      0x0100\n      exp\n      swap1\n      div\n      0xff\n      and\n      dup2\n      jump\t// out\n        /* \"contracts/008_.sol\":176:194  int256 public _int */\n    tag_35:\n      sload(0x02)\n      dup2\n      jump\t// out\n        /* \"contracts/008_.sol\":548:644  function test() external view returns (uint256) {... */\n    tag_39:\n        /* \"contracts/008_.sol\":587:594  uint256 */\n      0x00\n        /* \"contracts/008_.sol\":622:636  ActionSet.Hold */\n      0x01\n        /* \"contracts/008_.sol\":614:637  uint256(ActionSet.Hold) */\n      0x02\n      dup2\n      gt\n      iszero\n      tag_49\n      jumpi\n      tag_50\n      tag_51\n      jump\t// in\n    tag_50:\n    tag_49:\n        /* \"contracts/008_.sol\":606:637  return  uint256(ActionSet.Hold) */\n      swap1\n      pop\n        /* \"contracts/008_.sol\":548:644  function test() external view returns (uint256) {... */\n      swap1\n      jump\t// out\n        /* \"#utility.yul\":7:133   */\n    tag_52:\n        /* \"#utility.yul\":44:51   */\n      0x00\n        /* \"#utility.yul\":84:126   */\n      0xffffffffffffffffffffffffffffffffffffffff\n        /* \"#utility.yul\":77:82   */\n      dup3\n        /* \"#utility.yul\":73:127   */\n      and\n        /* \"#utility.yul\":62:127   */\n      swap1\n      pop\n        /* \"#utility.yul\":7:133   */\n      swap2\n      swap1\n      pop\n      jump\t// out\n        /* \"#utility.yul\":139:235   */\n    tag_53:\n        /* \"#utility.yul\":176:183   */\n      0x00\n        /* \"#utility.yul\":205:229   */\n      tag_74\n        /* \"#utility.yul\":223:228   */\n      dup3\n        /* \"#utility.yul\":205:229   */\n      tag_52\n      jump\t// in\n    tag_74:\n        /* \"#utility.yul\":194:229   */\n      swap1\n      pop\n        /* \"#utility.yul\":139:235   */\n      swap2\n      swap1\n      pop\n      jump\t// out\n        /* \"#utility.yul\":241:359   */\n    tag_54:\n        /* \"#utility.yul\":328:352   */\n      tag_76\n        /* \"#utility.yul\":346:351   */\n      dup2\n        /* \"#utility.yul\":328:352   */\n      tag_53\n      jump\t// in\n    tag_76:\n        /* \"#utility.yul\":323:326   */\n      dup3\n        /* \"#utility.yul\":316:353   */\n      mstore\n        /* \"#utility.yul\":241:359   */\n      pop\n      pop\n      jump\t// out\n        /* \"#utility.yul\":365:587   */\n    tag_15:\n        /* \"#utility.yul\":458:462   */\n      0x00\n        /* \"#utility.yul\":496:498   */\n      0x20\n        /* \"#utility.yul\":485:494   */\n      dup3\n        /* \"#utility.yul\":481:499   */\n      add\n        /* \"#utility.yul\":473:499   */\n      swap1\n      pop\n        /* \"#utility.yul\":509:580   */\n      tag_78\n        /* \"#utility.yul\":577:578   */\n      0x00\n        /* \"#utility.yul\":566:575   */\n      dup4\n        /* \"#utility.yul\":562:579   */\n      add\n        /* \"#utility.yul\":553:559   */\n      dup5\n        /* \"#utility.yul\":509:580   */\n      tag_54\n      jump\t// in\n    tag_78:\n        /* \"#utility.yul\":365:587   */\n      swap3\n      swap2\n      pop\n      pop\n      jump\t// out\n        /* \"#utility.yul\":593:670   */\n    tag_55:\n        /* \"#utility.yul\":630:637   */\n      0x00\n        /* \"#utility.yul\":659:664   */\n      dup2\n        /* \"#utility.yul\":648:664   */\n      swap1\n      pop\n        /* \"#utility.yul\":593:670   */\n      swap2\n      swap1\n      pop\n      jump\t// out\n        /* \"#utility.yul\":676:794   */\n    tag_56:\n        /* \"#utility.yul\":763:787   */\n      tag_81\n        /* \"#utility.yul\":781:786   */\n      dup2\n        /* \"#utility.yul\":763:787   */\n      tag_55\n      jump\t// in\n    tag_81:\n        /* \"#utility.yul\":758:761   */\n      dup3\n        /* \"#utility.yul\":751:788   */\n      mstore\n        /* \"#utility.yul\":676:794   */\n      pop\n      pop\n      jump\t// out\n        /* \"#utility.yul\":800:1022   */\n    tag_19:\n        /* \"#utility.yul\":893:897   */\n      0x00\n        /* \"#utility.yul\":931:933   */\n      0x20\n        /* \"#utility.yul\":920:929   */\n      dup3\n        /* \"#utility.yul\":916:934   */\n      add\n        /* \"#utility.yul\":908:934   */\n      swap1\n      pop\n        /* \"#utility.yul\":944:1015   */\n      tag_83\n        /* \"#utility.yul\":1012:1013   */\n      0x00\n        /* \"#utility.yul\":1001:1010   */\n      dup4\n        /* \"#utility.yul\":997:1014   */\n      add\n        /* \"#utility.yul\":988:994   */\n      dup5\n        /* \"#utility.yul\":944:1015   */\n      tag_56\n      jump\t// in\n    tag_83:\n        /* \"#utility.yul\":800:1022   */\n      swap3\n      swap2\n      pop\n      pop\n      jump\t// out\n        /* \"#utility.yul\":1028:1208   */\n    tag_51:\n        /* \"#utility.yul\":1076:1153   */\n      0x4e487b7100000000000000000000000000000000000000000000000000000000\n        /* \"#utility.yul\":1073:1074   */\n      0x00\n        /* \"#utility.yul\":1066:1154   */\n      mstore\n        /* \"#utility.yul\":1173:1177   */\n      0x21\n        /* \"#utility.yul\":1170:1171   */\n      0x04\n        /* \"#utility.yul\":1163:1178   */\n      mstore\n        /* \"#utility.yul\":1197:1201   */\n      0x24\n        /* \"#utility.yul\":1194:1195   */\n      0x00\n        /* \"#utility.yul\":1187:1202   */\n      revert\n        /* \"#utility.yul\":1214:1331   */\n    tag_57:\n        /* \"#utility.yul\":1299:1300   */\n      0x03\n        /* \"#utility.yul\":1292:1297   */\n      dup2\n        /* \"#utility.yul\":1289:1301   */\n      lt\n        /* \"#utility.yul\":1279:1325   */\n      tag_86\n      jumpi\n        /* \"#utility.yul\":1305:1323   */\n      tag_87\n      tag_51\n      jump\t// in\n    tag_87:\n        /* \"#utility.yul\":1279:1325   */\n    tag_86:\n        /* \"#utility.yul\":1214:1331   */\n      pop\n      jump\t// out\n        /* \"#utility.yul\":1337:1472   */\n    tag_58:\n        /* \"#utility.yul\":1386:1393   */\n      0x00\n        /* \"#utility.yul\":1415:1420   */\n      dup2\n        /* \"#utility.yul\":1404:1420   */\n      swap1\n      pop\n        /* \"#utility.yul\":1421:1466   */\n      tag_89\n        /* \"#utility.yul\":1460:1465   */\n      dup3\n        /* \"#utility.yul\":1421:1466   */\n      tag_57\n      jump\t// in\n    tag_89:\n        /* \"#utility.yul\":1337:1472   */\n      swap2\n      swap1\n      pop\n      jump\t// out\n        /* \"#utility.yul\":1478:1613   */\n    tag_59:\n        /* \"#utility.yul\":1538:1547   */\n      0x00\n        /* \"#utility.yul\":1571:1607   */\n      tag_91\n        /* \"#utility.yul\":1601:1606   */\n      dup3\n        /* \"#utility.yul\":1571:1607   */\n      tag_58\n      jump\t// in\n    tag_91:\n        /* \"#utility.yul\":1558:1607   */\n      swap1\n      pop\n        /* \"#utility.yul\":1478:1613   */\n      swap2\n      swap1\n      pop\n      jump\t// out\n        /* \"#utility.yul\":1619:1770   */\n    tag_60:\n        /* \"#utility.yul\":1716:1763   */\n      tag_93\n        /* \"#utility.yul\":1757:1762   */\n      dup2\n        /* \"#utility.yul\":1716:1763   */\n      tag_59\n      jump\t// in\n    tag_93:\n        /* \"#utility.yul\":1711:1714   */\n      dup3\n        /* \"#utility.yul\":1704:1764   */\n      mstore\n        /* \"#utility.yul\":1619:1770   */\n      pop\n      pop\n      jump\t// out\n        /* \"#utility.yul\":1776:2018   */\n    tag_23:\n        /* \"#utility.yul\":1879:1883   */\n      0x00\n        /* \"#utility.yul\":1917:1919   */\n      0x20\n        /* \"#utility.yul\":1906:1915   */\n      dup3\n        /* \"#utility.yul\":1902:1920   */\n      add\n        /* \"#utility.yul\":1894:1920   */\n      swap1\n      pop\n        /* \"#utility.yul\":1930:2011   */\n      tag_95\n        /* \"#utility.yul\":2008:2009   */\n      0x00\n        /* \"#utility.yul\":1997:2006   */\n      dup4\n        /* \"#utility.yul\":1993:2010   */\n      add\n        /* \"#utility.yul\":1984:1990   */\n      dup5\n        /* \"#utility.yul\":1930:2011   */\n      tag_60\n      jump\t// in\n    tag_95:\n        /* \"#utility.yul\":1776:2018   */\n      swap3\n      swap2\n      pop\n      pop\n      jump\t// out\n        /* \"#utility.yul\":2024:2123   */\n    tag_61:\n        /* \"#utility.yul\":2076:2082   */\n      0x00\n        /* \"#utility.yul\":2110:2115   */\n      dup2\n        /* \"#utility.yul\":2104:2116   */\n      mload\n        /* \"#utility.yul\":2094:2116   */\n      swap1\n      pop\n        /* \"#utility.yul\":2024:2123   */\n      swap2\n      swap1\n      pop\n      jump\t// out\n        /* \"#utility.yul\":2129:2298   */\n    tag_62:\n        /* \"#utility.yul\":2213:2224   */\n      0x00\n        /* \"#utility.yul\":2247:2253   */\n      dup3\n        /* \"#utility.yul\":2242:2245   */\n      dup3\n        /* \"#utility.yul\":2235:2254   */\n      mstore\n        /* \"#utility.yul\":2287:2291   */\n      0x20\n        /* \"#utility.yul\":2282:2285   */\n      dup3\n        /* \"#utility.yul\":2278:2292   */\n      add\n        /* \"#utility.yul\":2263:2292   */\n      swap1\n      pop\n        /* \"#utility.yul\":2129:2298   */\n      swap3\n      swap2\n      pop\n      pop\n      jump\t// out\n        /* \"#utility.yul\":2304:2550   */\n    tag_63:\n        /* \"#utility.yul\":2385:2386   */\n      0x00\n        /* \"#utility.yul\":2395:2508   */\n    tag_99:\n        /* \"#utility.yul\":2409:2415   */\n      dup4\n        /* \"#utility.yul\":2406:2407   */\n      dup2\n        /* \"#utility.yul\":2403:2416   */\n      lt\n        /* \"#utility.yul\":2395:2508   */\n      iszero\n      tag_101\n      jumpi\n        /* \"#utility.yul\":2494:2495   */\n      dup1\n        /* \"#utility.yul\":2489:2492   */\n      dup3\n        /* \"#utility.yul\":2485:2496   */\n      add\n        /* \"#utility.yul\":2479:2497   */\n      mload\n        /* \"#utility.yul\":2475:2476   */\n      dup2\n        /* \"#utility.yul\":2470:2473   */\n      dup5\n        /* \"#utility.yul\":2466:2477   */\n      add\n        /* \"#utility.yul\":2459:2498   */\n      mstore\n        /* \"#utility.yul\":2431:2433   */\n      0x20\n        /* \"#utility.yul\":2428:2429   */\n      dup2\n        /* \"#utility.yul\":2424:2434   */\n      add\n        /* \"#utility.yul\":2419:2434   */\n      swap1\n      pop\n        /* \"#utility.yul\":2395:2508   */\n      jump(tag_99)\n    tag_101:\n        /* \"#utility.yul\":2542:2543   */\n      0x00\n        /* \"#utility.yul\":2533:2539   */\n      dup5\n        /* \"#utility.yul\":2528:2531   */\n      dup5\n        /* \"#utility.yul\":2524:2540   */\n      add\n        /* \"#utility.yul\":2517:2544   */\n      mstore\n        /* \"#utility.yul\":2366:2550   */\n      pop\n        /* \"#utility.yul\":2304:2550   */\n      pop\n      pop\n      pop\n      jump\t// out\n        /* \"#utility.yul\":2556:2658   */\n    tag_64:\n        /* \"#utility.yul\":2597:2603   */\n      0x00\n        /* \"#utility.yul\":2648:2650   */\n      0x1f\n        /* \"#utility.yul\":2644:2651   */\n      not\n        /* \"#utility.yul\":2639:2641   */\n      0x1f\n        /* \"#utility.yul\":2632:2637   */\n      dup4\n        /* \"#utility.yul\":2628:2642   */\n      add\n        /* \"#utility.yul\":2624:2652   */\n      and\n        /* \"#utility.yul\":2614:2652   */\n      swap1\n      pop\n        /* \"#utility.yul\":2556:2658   */\n      swap2\n      swap1\n      pop\n      jump\t// out\n        /* \"#utility.yul\":2664:3041   */\n    tag_65:\n        /* \"#utility.yul\":2752:2755   */\n      0x00\n        /* \"#utility.yul\":2780:2819   */\n      tag_104\n        /* \"#utility.yul\":2813:2818   */\n      dup3\n        /* \"#utility.yul\":2780:2819   */\n      tag_61\n      jump\t// in\n    tag_104:\n        /* \"#utility.yul\":2835:2906   */\n      tag_105\n        /* \"#utility.yul\":2899:2905   */\n      dup2\n        /* \"#utility.yul\":2894:2897   */\n      dup6\n        /* \"#utility.yul\":2835:2906   */\n      tag_62\n      jump\t// in\n    tag_105:\n        /* \"#utility.yul\":2828:2906   */\n      swap4\n      pop\n        /* \"#utility.yul\":2915:2980   */\n      tag_106\n        /* \"#utility.yul\":2973:2979   */\n      dup2\n        /* \"#utility.yul\":2968:2971   */\n      dup6\n        /* \"#utility.yul\":2961:2965   */\n      0x20\n        /* \"#utility.yul\":2954:2959   */\n      dup7\n        /* \"#utility.yul\":2950:2966   */\n      add\n        /* \"#utility.yul\":2915:2980   */\n      tag_63\n      jump\t// in\n    tag_106:\n        /* \"#utility.yul\":3005:3034   */\n      tag_107\n        /* \"#utility.yul\":3027:3033   */\n      dup2\n        /* \"#utility.yul\":3005:3034   */\n      tag_64\n      jump\t// in\n    tag_107:\n        /* \"#utility.yul\":3000:3003   */\n      dup5\n        /* \"#utility.yul\":2996:3035   */\n      add\n        /* \"#utility.yul\":2989:3035   */\n      swap2\n      pop\n        /* \"#utility.yul\":2756:3041   */\n      pop\n        /* \"#utility.yul\":2664:3041   */\n      swap3\n      swap2\n      pop\n      pop\n      jump\t// out\n        /* \"#utility.yul\":3047:3360   */\n    tag_29:\n        /* \"#utility.yul\":3160:3164   */\n      0x00\n        /* \"#utility.yul\":3198:3200   */\n      0x20\n        /* \"#utility.yul\":3187:3196   */\n      dup3\n        /* \"#utility.yul\":3183:3201   */\n      add\n        /* \"#utility.yul\":3175:3201   */\n      swap1\n      pop\n        /* \"#utility.yul\":3247:3256   */\n      dup2\n        /* \"#utility.yul\":3241:3245   */\n      dup2\n        /* \"#utility.yul\":3237:3257   */\n      sub\n        /* \"#utility.yul\":3233:3234   */\n      0x00\n        /* \"#utility.yul\":3222:3231   */\n      dup4\n        /* \"#utility.yul\":3218:3235   */\n      add\n        /* \"#utility.yul\":3211:3258   */\n      mstore\n        /* \"#utility.yul\":3275:3353   */\n      tag_109\n        /* \"#utility.yul\":3348:3352   */\n      dup2\n        /* \"#utility.yul\":3339:3345   */\n      dup5\n        /* \"#utility.yul\":3275:3353   */\n      tag_65\n      jump\t// in\n    tag_109:\n        /* \"#utility.yul\":3267:3353   */\n      swap1\n      pop\n        /* \"#utility.yul\":3047:3360   */\n      swap3\n      swap2\n      pop\n      pop\n      jump\t// out\n        /* \"#utility.yul\":3366:3456   */\n    tag_66:\n        /* \"#utility.yul\":3400:3407   */\n      0x00\n        /* \"#utility.yul\":3443:3448   */\n      dup2\n        /* \"#utility.yul\":3436:3449   */\n      iszero\n        /* \"#utility.yul\":3429:3450   */\n      iszero\n        /* \"#utility.yul\":3418:3450   */\n      swap1\n      pop\n        /* \"#utility.yul\":3366:3456   */\n      swap2\n      swap1\n      pop\n      jump\t// out\n        /* \"#utility.yul\":3462:3571   */\n    tag_67:\n        /* \"#utility.yul\":3543:3564   */\n      tag_112\n        /* \"#utility.yul\":3558:3563   */\n      dup2\n        /* \"#utility.yul\":3543:3564   */\n      tag_66\n      jump\t// in\n    tag_112:\n        /* \"#utility.yul\":3538:3541   */\n      dup3\n        /* \"#utility.yul\":3531:3565   */\n      mstore\n        /* \"#utility.yul\":3462:3571   */\n      pop\n      pop\n      jump\t// out\n        /* \"#utility.yul\":3577:3787   */\n    tag_33:\n        /* \"#utility.yul\":3664:3668   */\n      0x00\n        /* \"#utility.yul\":3702:3704   */\n      0x20\n        /* \"#utility.yul\":3691:3700   */\n      dup3\n        /* \"#utility.yul\":3687:3705   */\n      add\n        /* \"#utility.yul\":3679:3705   */\n      swap1\n      pop\n        /* \"#utility.yul\":3715:3780   */\n      tag_114\n        /* \"#utility.yul\":3777:3778   */\n      0x00\n        /* \"#utility.yul\":3766:3775   */\n      dup4\n        /* \"#utility.yul\":3762:3779   */\n      add\n        /* \"#utility.yul\":3753:3759   */\n      dup5\n        /* \"#utility.yul\":3715:3780   */\n      tag_67\n      jump\t// in\n    tag_114:\n        /* \"#utility.yul\":3577:3787   */\n      swap3\n      swap2\n      pop\n      pop\n      jump\t// out\n        /* \"#utility.yul\":3793:3869   */\n    tag_68:\n        /* \"#utility.yul\":3829:3836   */\n      0x00\n        /* \"#utility.yul\":3858:3863   */\n      dup2\n        /* \"#utility.yul\":3847:3863   */\n      swap1\n      pop\n        /* \"#utility.yul\":3793:3869   */\n      swap2\n      swap1\n      pop\n      jump\t// out\n        /* \"#utility.yul\":3875:3990   */\n    tag_69:\n        /* \"#utility.yul\":3960:3983   */\n      tag_117\n        /* \"#utility.yul\":3977:3982   */\n      dup2\n        /* \"#utility.yul\":3960:3983   */\n      tag_68\n      jump\t// in\n    tag_117:\n        /* \"#utility.yul\":3955:3958   */\n      dup3\n        /* \"#utility.yul\":3948:3984   */\n      mstore\n        /* \"#utility.yul\":3875:3990   */\n      pop\n      pop\n      jump\t// out\n        /* \"#utility.yul\":3996:4214   */\n    tag_37:\n        /* \"#utility.yul\":4087:4091   */\n      0x00\n        /* \"#utility.yul\":4125:4127   */\n      0x20\n        /* \"#utility.yul\":4114:4123   */\n      dup3\n        /* \"#utility.yul\":4110:4128   */\n      add\n        /* \"#utility.yul\":4102:4128   */\n      swap1\n      pop\n        /* \"#utility.yul\":4138:4207   */\n      tag_119\n        /* \"#utility.yul\":4204:4205   */\n      0x00\n        /* \"#utility.yul\":4193:4202   */\n      dup4\n        /* \"#utility.yul\":4189:4206   */\n      add\n        /* \"#utility.yul\":4180:4186   */\n      dup5\n        /* \"#utility.yul\":4138:4207   */\n      tag_69\n      jump\t// in\n    tag_119:\n        /* \"#utility.yul\":3996:4214   */\n      swap3\n      swap2\n      pop\n      pop\n      jump\t// out\n        /* \"#utility.yul\":4220:4400   */\n    tag_70:\n        /* \"#utility.yul\":4268:4345   */\n      0x4e487b7100000000000000000000000000000000000000000000000000000000\n        /* \"#utility.yul\":4265:4266   */\n      0x00\n        /* \"#utility.yul\":4258:4346   */\n      mstore\n        /* \"#utility.yul\":4365:4369   */\n      0x22\n        /* \"#utility.yul\":4362:4363   */\n      0x04\n        /* \"#utility.yul\":4355:4370   */\n      mstore\n        /* \"#utility.yul\":4389:4393   */\n      0x24\n        /* \"#utility.yul\":4386:4387   */\n      0x00\n        /* \"#utility.yul\":4379:4394   */\n      revert\n        /* \"#utility.yul\":4406:4726   */\n    tag_43:\n        /* \"#utility.yul\":4450:4456   */\n      0x00\n        /* \"#utility.yul\":4487:4488   */\n      0x02\n        /* \"#utility.yul\":4481:4485   */\n      dup3\n        /* \"#utility.yul\":4477:4489   */\n      div\n        /* \"#utility.yul\":4467:4489   */\n      swap1\n      pop\n        /* \"#utility.yul\":4534:4535   */\n      0x01\n        /* \"#utility.yul\":4528:4532   */\n      dup3\n        /* \"#utility.yul\":4524:4536   */\n      and\n        /* \"#utility.yul\":4555:4573   */\n      dup1\n        /* \"#utility.yul\":4545:4626   */\n      tag_122\n      jumpi\n        /* \"#utility.yul\":4611:4615   */\n      0x7f\n        /* \"#utility.yul\":4603:4609   */\n      dup3\n        /* \"#utility.yul\":4599:4616   */\n      and\n        /* \"#utility.yul\":4589:4616   */\n      swap2\n      pop\n        /* \"#utility.yul\":4545:4626   */\n    tag_122:\n        /* \"#utility.yul\":4673:4675   */\n      0x20\n        /* \"#utility.yul\":4665:4671   */\n      dup3\n        /* \"#utility.yul\":4662:4676   */\n      lt\n        /* \"#utility.yul\":4642:4660   */\n      dup2\n        /* \"#utility.yul\":4639:4677   */\n      sub\n        /* \"#utility.yul\":4636:4720   */\n      tag_123\n      jumpi\n        /* \"#utility.yul\":4692:4710   */\n      tag_124\n      tag_70\n      jump\t// in\n    tag_124:\n        /* \"#utility.yul\":4636:4720   */\n    tag_123:\n        /* \"#utility.yul\":4457:4726   */\n      pop\n        /* \"#utility.yul\":4406:4726   */\n      swap2\n      swap1\n      pop\n      jump\t// out\n\n    auxdata: 0xa2646970667358221220f7138b6d0f101dac296064f67be1cf205c64cbfca10744bc88613cbf8f4245a664736f6c63430008160033\n}\n",
				"bytecode": {
					"linkReferences": {},
					"object": "608060405234801561000f575f80fd5b506105188061001d5f395ff3fe608060405234801561000f575f80fd5b5060043610610086575f3560e01c80639b267f09116100595780639b267f09146100ee5780639e6ba9c21461010c578063af45869e1461012a578063f8a8fd6d1461014857610086565b806318bad2171461008a5780632543135b146100a857806330c0826f146100c657806386ed6eac146100e4575b5f80fd5b610092610166565b60405161009f91906102a1565b60405180910390f35b6100b061018b565b6040516100bd91906102d2565b60405180910390f35b6100ce610191565b6040516100db919061035e565b60405180910390f35b6100ec6101a4565b005b6100f66101a6565b6040516101039190610401565b60405180910390f35b610114610232565b604051610121919061043b565b60405180910390f35b610132610242565b60405161013f919061046c565b60405180910390f35b610150610248565b60405161015d91906102d2565b60405180910390f35b60045f9054906101000a900473ffffffffffffffffffffffffffffffffffffffff1681565b60035481565b600460149054906101000a900460ff1681565b565b600180546101b3906104b2565b80601f01602080910402602001604051908101604052809291908181526020018280546101df906104b2565b801561022a5780601f106102015761010080835404028352916020019161022a565b820191905f5260205f20905b81548152906001019060200180831161020d57829003601f168201915b505050505081565b5f8054906101000a900460ff1681565b60025481565b5f6001600281111561025d5761025c6102eb565b5b905090565b5f73ffffffffffffffffffffffffffffffffffffffff82169050919050565b5f61028b82610262565b9050919050565b61029b81610281565b82525050565b5f6020820190506102b45f830184610292565b92915050565b5f819050919050565b6102cc816102ba565b82525050565b5f6020820190506102e55f8301846102c3565b92915050565b7f4e487b71000000000000000000000000000000000000000000000000000000005f52602160045260245ffd5b60038110610329576103286102eb565b5b50565b5f81905061033982610318565b919050565b5f6103488261032c565b9050919050565b6103588161033e565b82525050565b5f6020820190506103715f83018461034f565b92915050565b5f81519050919050565b5f82825260208201905092915050565b5f5b838110156103ae578082015181840152602081019050610393565b5f8484015250505050565b5f601f19601f8301169050919050565b5f6103d382610377565b6103dd8185610381565b93506103ed818560208601610391565b6103f6816103b9565b840191505092915050565b5f6020820190508181035f83015261041981846103c9565b905092915050565b5f8115159050919050565b61043581610421565b82525050565b5f60208201905061044e5f83018461042c565b92915050565b5f819050919050565b61046681610454565b82525050565b5f60208201905061047f5f83018461045d565b92915050565b7f4e487b71000000000000000000000000000000000000000000000000000000005f52602260045260245ffd5b5f60028204905060018216806104c957607f821691505b6020821081036104dc576104db610485565b5b5091905056fea2646970667358221220f7138b6d0f101dac296064f67be1cf205c64cbfca10744bc88613cbf8f4245a664736f6c63430008160033",
					"opcodes": "PUSH1 0x80 PUSH1 0x40 MSTORE CALLVALUE DUP1 ISZERO PUSH2 0xF JUMPI PUSH0 DUP1 REVERT JUMPDEST POP PUSH2 0x518 DUP1 PUSH2 0x1D PUSH0 CODECOPY PUSH0 RETURN INVALID PUSH1 0x80 PUSH1 0x40 MSTORE CALLVALUE DUP1 ISZERO PUSH2 0xF JUMPI PUSH0 DUP1 REVERT JUMPDEST POP PUSH1 0x4 CALLDATASIZE LT PUSH2 0x86 JUMPI PUSH0 CALLDATALOAD PUSH1 0xE0 SHR DUP1 PUSH4 0x9B267F09 GT PUSH2 0x59 JUMPI DUP1 PUSH4 0x9B267F09 EQ PUSH2 0xEE JUMPI DUP1 PUSH4 0x9E6BA9C2 EQ PUSH2 0x10C JUMPI DUP1 PUSH4 0xAF45869E EQ PUSH2 0x12A JUMPI DUP1 PUSH4 0xF8A8FD6D EQ PUSH2 0x148 JUMPI PUSH2 0x86 JUMP JUMPDEST DUP1 PUSH4 0x18BAD217 EQ PUSH2 0x8A JUMPI DUP1 PUSH4 0x2543135B EQ PUSH2 0xA8 JUMPI DUP1 PUSH4 0x30C0826F EQ PUSH2 0xC6 JUMPI DUP1 PUSH4 0x86ED6EAC EQ PUSH2 0xE4 JUMPI JUMPDEST PUSH0 DUP1 REVERT JUMPDEST PUSH2 0x92 PUSH2 0x166 JUMP JUMPDEST PUSH1 0x40 MLOAD PUSH2 0x9F SWAP2 SWAP1 PUSH2 0x2A1 JUMP JUMPDEST PUSH1 0x40 MLOAD DUP1 SWAP2 SUB SWAP1 RETURN JUMPDEST PUSH2 0xB0 PUSH2 0x18B JUMP JUMPDEST PUSH1 0x40 MLOAD PUSH2 0xBD SWAP2 SWAP1 PUSH2 0x2D2 JUMP JUMPDEST PUSH1 0x40 MLOAD DUP1 SWAP2 SUB SWAP1 RETURN JUMPDEST PUSH2 0xCE PUSH2 0x191 JUMP JUMPDEST PUSH1 0x40 MLOAD PUSH2 0xDB SWAP2 SWAP1 PUSH2 0x35E JUMP JUMPDEST PUSH1 0x40 MLOAD DUP1 SWAP2 SUB SWAP1 RETURN JUMPDEST PUSH2 0xEC PUSH2 0x1A4 JUMP JUMPDEST STOP JUMPDEST PUSH2 0xF6 PUSH2 0x1A6 JUMP JUMPDEST PUSH1 0x40 MLOAD PUSH2 0x103 SWAP2 SWAP1 PUSH2 0x401 JUMP JUMPDEST PUSH1 0x40 MLOAD DUP1 SWAP2 SUB SWAP1 RETURN JUMPDEST PUSH2 0x114 PUSH2 0x232 JUMP JUMPDEST PUSH1 0x40 MLOAD PUSH2 0x121 SWAP2 SWAP1 PUSH2 0x43B JUMP JUMPDEST PUSH1 0x40 MLOAD DUP1 SWAP2 SUB SWAP1 RETURN JUMPDEST PUSH2 0x132 PUSH2 0x242 JUMP JUMPDEST PUSH1 0x40 MLOAD PUSH2 0x13F SWAP2 SWAP1 PUSH2 0x46C JUMP JUMPDEST PUSH1 0x40 MLOAD DUP1 SWAP2 SUB SWAP1 RETURN JUMPDEST PUSH2 0x150 PUSH2 0x248 JUMP JUMPDEST PUSH1 0x40 MLOAD PUSH2 0x15D SWAP2 SWAP1 PUSH2 0x2D2 JUMP JUMPDEST PUSH1 0x40 MLOAD DUP1 SWAP2 SUB SWAP1 RETURN JUMPDEST PUSH1 0x4 PUSH0 SWAP1 SLOAD SWAP1 PUSH2 0x100 EXP SWAP1 DIV PUSH20 0xFFFFFFFFFFFFFFFFFFFFFFFFFFFFFFFFFFFFFFFF AND DUP2 JUMP JUMPDEST PUSH1 0x3 SLOAD DUP2 JUMP JUMPDEST PUSH1 0x4 PUSH1 0x14 SWAP1 SLOAD SWAP1 PUSH2 0x100 EXP SWAP1 DIV PUSH1 0xFF AND DUP2 JUMP JUMPDEST JUMP JUMPDEST PUSH1 0x1 DUP1 SLOAD PUSH2 0x1B3 SWAP1 PUSH2 0x4B2 JUMP JUMPDEST DUP1 PUSH1 0x1F ADD PUSH1 0x20 DUP1 SWAP2 DIV MUL PUSH1 0x20 ADD PUSH1 0x40 MLOAD SWAP1 DUP2 ADD PUSH1 0x40 MSTORE DUP1 SWAP3 SWAP2 SWAP1 DUP2 DUP2 MSTORE PUSH1 0x20 ADD DUP3 DUP1 SLOAD PUSH2 0x1DF SWAP1 PUSH2 0x4B2 JUMP JUMPDEST DUP1 ISZERO PUSH2 0x22A JUMPI DUP1 PUSH1 0x1F LT PUSH2 0x201 JUMPI PUSH2 0x100 DUP1 DUP4 SLOAD DIV MUL DUP4 MSTORE SWAP2 PUSH1 0x20 ADD SWAP2 PUSH2 0x22A JUMP JUMPDEST DUP3 ADD SWAP2 SWAP1 PUSH0 MSTORE PUSH1 0x20 PUSH0 KECCAK256 SWAP1 JUMPDEST DUP2 SLOAD DUP2 MSTORE SWAP1 PUSH1 0x1 ADD SWAP1 PUSH1 0x20 ADD DUP1 DUP4 GT PUSH2 0x20D JUMPI DUP3 SWAP1 SUB PUSH1 0x1F AND DUP3 ADD SWAP2 JUMPDEST POP POP POP POP POP DUP2 JUMP JUMPDEST PUSH0 DUP1 SLOAD SWAP1 PUSH2 0x100 EXP SWAP1 DIV PUSH1 0xFF AND DUP2 JUMP JUMPDEST PUSH1 0x2 SLOAD DUP2 JUMP JUMPDEST PUSH0 PUSH1 0x1 PUSH1 0x2 DUP2 GT ISZERO PUSH2 0x25D JUMPI PUSH2 0x25C PUSH2 0x2EB JUMP JUMPDEST JUMPDEST SWAP1 POP SWAP1 JUMP JUMPDEST PUSH0 PUSH20 0xFFFFFFFFFFFFFFFFFFFFFFFFFFFFFFFFFFFFFFFF DUP3 AND SWAP1 POP SWAP2 SWAP1 POP JUMP JUMPDEST PUSH0 PUSH2 0x28B DUP3 PUSH2 0x262 JUMP JUMPDEST SWAP1 POP SWAP2 SWAP1 POP JUMP JUMPDEST PUSH2 0x29B DUP2 PUSH2 0x281 JUMP JUMPDEST DUP3 MSTORE POP POP JUMP JUMPDEST PUSH0 PUSH1 0x20 DUP3 ADD SWAP1 POP PUSH2 0x2B4 PUSH0 DUP4 ADD DUP5 PUSH2 0x292 JUMP JUMPDEST SWAP3 SWAP2 POP POP JUMP JUMPDEST PUSH0 DUP2 SWAP1 POP SWAP2 SWAP1 POP JUMP JUMPDEST PUSH2 0x2CC DUP2 PUSH2 0x2BA JUMP JUMPDEST DUP3 MSTORE POP POP JUMP JUMPDEST PUSH0 PUSH1 0x20 DUP3 ADD SWAP1 POP PUSH2 0x2E5 PUSH0 DUP4 ADD DUP5 PUSH2 0x2C3 JUMP JUMPDEST SWAP3 SWAP2 POP POP JUMP JUMPDEST PUSH32 0x4E487B7100000000000000000000000000000000000000000000000000000000 PUSH0 MSTORE PUSH1 0x21 PUSH1 0x4 MSTORE PUSH1 0x24 PUSH0 REVERT JUMPDEST PUSH1 0x3 DUP2 LT PUSH2 0x329 JUMPI PUSH2 0x328 PUSH2 0x2EB JUMP JUMPDEST JUMPDEST POP JUMP JUMPDEST PUSH0 DUP2 SWAP1 POP PUSH2 0x339 DUP3 PUSH2 0x318 JUMP JUMPDEST SWAP2 SWAP1 POP JUMP JUMPDEST PUSH0 PUSH2 0x348 DUP3 PUSH2 0x32C JUMP JUMPDEST SWAP1 POP SWAP2 SWAP1 POP JUMP JUMPDEST PUSH2 0x358 DUP2 PUSH2 0x33E JUMP JUMPDEST DUP3 MSTORE POP POP JUMP JUMPDEST PUSH0 PUSH1 0x20 DUP3 ADD SWAP1 POP PUSH2 0x371 PUSH0 DUP4 ADD DUP5 PUSH2 0x34F JUMP JUMPDEST SWAP3 SWAP2 POP POP JUMP JUMPDEST PUSH0 DUP2 MLOAD SWAP1 POP SWAP2 SWAP1 POP JUMP JUMPDEST PUSH0 DUP3 DUP3 MSTORE PUSH1 0x20 DUP3 ADD SWAP1 POP SWAP3 SWAP2 POP POP JUMP JUMPDEST PUSH0 JUMPDEST DUP4 DUP2 LT ISZERO PUSH2 0x3AE JUMPI DUP1 DUP3 ADD MLOAD DUP2 DUP5 ADD MSTORE PUSH1 0x20 DUP2 ADD SWAP1 POP PUSH2 0x393 JUMP JUMPDEST PUSH0 DUP5 DUP5 ADD MSTORE POP POP POP POP JUMP JUMPDEST PUSH0 PUSH1 0x1F NOT PUSH1 0x1F DUP4 ADD AND SWAP1 POP SWAP2 SWAP1 POP JUMP JUMPDEST PUSH0 PUSH2 0x3D3 DUP3 PUSH2 0x377 JUMP JUMPDEST PUSH2 0x3DD DUP2 DUP6 PUSH2 0x381 JUMP JUMPDEST SWAP4 POP PUSH2 0x3ED DUP2 DUP6 PUSH1 0x20 DUP7 ADD PUSH2 0x391 JUMP JUMPDEST PUSH2 0x3F6 DUP2 PUSH2 0x3B9 JUMP JUMPDEST DUP5 ADD SWAP2 POP POP SWAP3 SWAP2 POP POP JUMP JUMPDEST PUSH0 PUSH1 0x20 DUP3 ADD SWAP1 POP DUP2 DUP2 SUB PUSH0 DUP4 ADD MSTORE PUSH2 0x419 DUP2 DUP5 PUSH2 0x3C9 JUMP JUMPDEST SWAP1 POP SWAP3 SWAP2 POP POP JUMP JUMPDEST PUSH0 DUP2 ISZERO ISZERO SWAP1 POP SWAP2 SWAP1 POP JUMP JUMPDEST PUSH2 0x435 DUP2 PUSH2 0x421 JUMP JUMPDEST DUP3 MSTORE POP POP JUMP JUMPDEST PUSH0 PUSH1 0x20 DUP3 ADD SWAP1 POP PUSH2 0x44E PUSH0 DUP4 ADD DUP5 PUSH2 0x42C JUMP JUMPDEST SWAP3 SWAP2 POP POP JUMP JUMPDEST PUSH0 DUP2 SWAP1 POP SWAP2 SWAP1 POP JUMP JUMPDEST PUSH2 0x466 DUP2 PUSH2 0x454 JUMP JUMPDEST DUP3 MSTORE POP POP JUMP JUMPDEST PUSH0 PUSH1 0x20 DUP3 ADD SWAP1 POP PUSH2 0x47F PUSH0 DUP4 ADD DUP5 PUSH2 0x45D JUMP JUMPDEST SWAP3 SWAP2 POP POP JUMP JUMPDEST PUSH32 0x4E487B7100000000000000000000000000000000000000000000000000000000 PUSH0 MSTORE PUSH1 0x22 PUSH1 0x4 MSTORE PUSH1 0x24 PUSH0 REVERT JUMPDEST PUSH0 PUSH1 0x2 DUP3 DIV SWAP1 POP PUSH1 0x1 DUP3 AND DUP1 PUSH2 0x4C9 JUMPI PUSH1 0x7F DUP3 AND SWAP2 POP JUMPDEST PUSH1 0x20 DUP3 LT DUP2 SUB PUSH2 0x4DC JUMPI PUSH2 0x4DB PUSH2 0x485 JUMP JUMPDEST JUMPDEST POP SWAP2 SWAP1 POP JUMP INVALID LOG2 PUSH5 0x6970667358 0x22 SLT KECCAK256 0xF7 SGT DUP12 PUSH14 0xF101DAC296064F67BE1CF205C64 0xCB 0xFC LOG1 SMOD PREVRANDAO 0xBC DUP9 PUSH2 0x3CBF DUP16 TIMESTAMP GASLIMIT 0xA6 PUSH5 0x736F6C6343 STOP ADDMOD AND STOP CALLER "
				},
				"gasEstimates": {
					"creation": {
						"codeDepositCost": "260800",
						"executionCost": "298",
						"totalCost": "261098"
					},
					"external": {
						"_address()": "2509",
						"_bool()": "2485",
						"_enum()": "2650",
						"_int()": "2469",
						"_string()": "infinite",
						"_uint()": "2448",
						"fe()": "210",
						"test()": "424"
					},
					"internal": {
						"fi()": "infinite"
					}
				},
				"methodIdentifiers": {
					"_address()": "18bad217",
					"_bool()": "9e6ba9c2",
					"_enum()": "30c0826f",
					"_int()": "af45869e",
					"_string()": "9b267f09",
					"_uint()": "2543135b",
					"fe()": "86ed6eac",
					"test()": "f8a8fd6d"
				}
			},
			"storageLayout": {
				"storage": [
					{
						"astId": 3,
						"contract": "contracts/008_.sol:InitialValue",
						"label": "_bool",
						"offset": 0,
						"slot": "0",
						"type": "t_bool"
					},
					{
						"astId": 5,
						"contract": "contracts/008_.sol:InitialValue",
						"label": "_string",
						"offset": 0,
						"slot": "1",
						"type": "t_string_storage"
					},
					{
						"astId": 7,
						"contract": "contracts/008_.sol:InitialValue",
						"label": "_int",
						"offset": 0,
						"slot": "2",
						"type": "t_int256"
					},
					{
						"astId": 9,
						"contract": "contracts/008_.sol:InitialValue",
						"label": "_uint",
						"offset": 0,
						"slot": "3",
						"type": "t_uint256"
					},
					{
						"astId": 11,
						"contract": "contracts/008_.sol:InitialValue",
						"label": "_address",
						"offset": 0,
						"slot": "4",
						"type": "t_address"
					},
					{
						"astId": 26,
						"contract": "contracts/008_.sol:InitialValue",
						"label": "_enum",
						"offset": 20,
						"slot": "4",
						"type": "t_enum(ActionSet)23"
					}
				],
				"types": {
					"t_address": {
						"encoding": "inplace",
						"label": "address",
						"numberOfBytes": "20"
					},
					"t_bool": {
						"encoding": "inplace",
						"label": "bool",
						"numberOfBytes": "1"
					},
					"t_enum(ActionSet)23": {
						"encoding": "inplace",
						"label": "enum InitialValue.ActionSet",
						"numberOfBytes": "1"
					},
					"t_int256": {
						"encoding": "inplace",
						"label": "int256",
						"numberOfBytes": "32"
					},
					"t_string_storage": {
						"encoding": "bytes",
						"label": "string",
						"numberOfBytes": "32"
					},
					"t_uint256": {
						"encoding": "inplace",
						"label": "uint256",
						"numberOfBytes": "32"
					}
				}
			},
			"userdoc": {
				"kind": "user",
				"methods": {},
				"version": 1
			}
		}
	}
}