{
	"contracts/023_Delegatecall.sol": {
		"A": {
			"abi": [
				{
					"inputs": [
						{
							"internalType": "address",
							"name": "_addr",
							"type": "address"
						},
						{
							"internalType": "uint256",
							"name": "_num",
							"type": "uint256"
						}
					],
					"name": "callB",
					"outputs": [],
					"stateMutability": "nonpayable",
					"type": "function"
				},
				{
					"inputs": [
						{
							"internalType": "address",
							"name": "_addr",
							"type": "address"
						},
						{
							"internalType": "uint256",
							"name": "_num",
							"type": "uint256"
						}
					],
					"name": "delegatecallB",
					"outputs": [],
					"stateMutability": "nonpayable",
					"type": "function"
				},
				{
					"inputs": [],
					"name": "numA",
					"outputs": [
						{
							"internalType": "uint256",
							"name": "",
							"type": "uint256"
						}
					],
					"stateMutability": "view",
					"type": "function"
				}
			],
			"devdoc": {
				"kind": "dev",
				"methods": {},
				"version": 1
			},
			"evm": {
				"assembly": "    /* \"contracts/023_Delegatecall.sol\":65:909  contract A {... */\n  mstore(0x40, 0x80)\n  callvalue\n  dup1\n  iszero\n  tag_1\n  jumpi\n  0x00\n  dup1\n  revert\ntag_1:\n  pop\n  dataSize(sub_0)\n  dup1\n  dataOffset(sub_0)\n  0x00\n  codecopy\n  0x00\n  return\nstop\n\nsub_0: assembly {\n        /* \"contracts/023_Delegatecall.sol\":65:909  contract A {... */\n      mstore(0x40, 0x80)\n      callvalue\n      dup1\n      iszero\n      tag_1\n      jumpi\n      0x00\n      dup1\n      revert\n    tag_1:\n      pop\n      jumpi(tag_2, lt(calldatasize, 0x04))\n      shr(0xe0, calldataload(0x00))\n      dup1\n      0x2b2a3bbe\n      eq\n      tag_3\n      jumpi\n      dup1\n      0xa558a2f4\n      eq\n      tag_4\n      jumpi\n      dup1\n      0xa58f11ee\n      eq\n      tag_5\n      jumpi\n    tag_2:\n      0x00\n      dup1\n      revert\n        /* \"contracts/023_Delegatecall.sol\":108:490  function callB(address _addr, uint256 _num) external {... */\n    tag_3:\n      tag_6\n      0x04\n      dup1\n      calldatasize\n      sub\n      dup2\n      add\n      swap1\n      tag_7\n      swap2\n      swap1\n      tag_8\n      jump\t// in\n    tag_7:\n      tag_9\n      jump\t// in\n    tag_6:\n      stop\n        /* \"contracts/023_Delegatecall.sol\":82:101  uint256 public numA */\n    tag_4:\n      tag_10\n      tag_11\n      jump\t// in\n    tag_10:\n      mload(0x40)\n      tag_12\n      swap2\n      swap1\n      tag_13\n      jump\t// in\n    tag_12:\n      mload(0x40)\n      dup1\n      swap2\n      sub\n      swap1\n      return\n        /* \"contracts/023_Delegatecall.sol\":496:907  function delegatecallB(address _addr, uint256 _num) external {... */\n    tag_5:\n      tag_14\n      0x04\n      dup1\n      calldatasize\n      sub\n      dup2\n      add\n      swap1\n      tag_15\n      swap2\n      swap1\n      tag_8\n      jump\t// in\n    tag_15:\n      tag_16\n      jump\t// in\n    tag_14:\n      stop\n        /* \"contracts/023_Delegatecall.sol\":108:490  function callB(address _addr, uint256 _num) external {... */\n    tag_9:\n        /* \"contracts/023_Delegatecall.sol\":238:250  bool success */\n      0x00\n        /* \"contracts/023_Delegatecall.sol\":252:269  bytes memory data */\n      dup1\n        /* \"contracts/023_Delegatecall.sol\":273:278  _addr */\n      dup4\n        /* \"contracts/023_Delegatecall.sol\":273:283  _addr.call */\n      0xffffffffffffffffffffffffffffffffffffffff\n      and\n        /* \"contracts/023_Delegatecall.sol\":341:345  _num */\n      dup4\n        /* \"contracts/023_Delegatecall.sol\":297:346  abi.encodeWithSignature(\"setVars(uint256)\", _num) */\n      add(0x24, mload(0x40))\n      tag_18\n      swap2\n      swap1\n      tag_13\n      jump\t// in\n    tag_18:\n      mload(0x40)\n      0x20\n      dup2\n      dup4\n      sub\n      sub\n      dup2\n      mstore\n      swap1\n      0x40\n      mstore\n      and(not(0xffffffffffffffffffffffffffffffffffffffffffffffffffffffff), 0x6466414b00000000000000000000000000000000000000000000000000000000)\n      0x20\n      dup3\n      add\n      dup1\n      mload\n      0xffffffffffffffffffffffffffffffffffffffffffffffffffffffff\n      dup4\n      dup2\n      dup4\n      and\n      or\n      dup4\n      mstore\n      pop\n      pop\n      pop\n      pop\n        /* \"contracts/023_Delegatecall.sol\":273:356  _addr.call(... */\n      mload(0x40)\n      tag_19\n      swap2\n      swap1\n      tag_20\n      jump\t// in\n    tag_19:\n      0x00\n      mload(0x40)\n      dup1\n      dup4\n      sub\n      dup2\n      0x00\n      dup7\n      gas\n      call\n      swap2\n      pop\n      pop\n      returndatasize\n      dup1\n      0x00\n      dup2\n      eq\n      tag_23\n      jumpi\n      mload(0x40)\n      swap2\n      pop\n      and(add(returndatasize, 0x3f), not(0x1f))\n      dup3\n      add\n      0x40\n      mstore\n      returndatasize\n      dup3\n      mstore\n      returndatasize\n      0x00\n      0x20\n      dup5\n      add\n      returndatacopy\n      jump(tag_22)\n    tag_23:\n      0x60\n      swap2\n      pop\n    tag_22:\n      pop\n        /* \"contracts/023_Delegatecall.sol\":237:356  (bool success, bytes memory data) = _addr.call(... */\n      swap2\n      pop\n      swap2\n      pop\n        /* \"contracts/023_Delegatecall.sol\":374:381  success */\n      dup2\n        /* \"contracts/023_Delegatecall.sol\":366:402  require(success, \"Call to B failed\") */\n      tag_24\n      jumpi\n      mload(0x40)\n      0x08c379a000000000000000000000000000000000000000000000000000000000\n      dup2\n      mstore\n      0x04\n      add\n      tag_25\n      swap1\n      tag_26\n      jump\t// in\n    tag_25:\n      mload(0x40)\n      dup1\n      swap2\n      sub\n      swap1\n      revert\n    tag_24:\n        /* \"contracts/023_Delegatecall.sol\":479:483  _num */\n      dup3\n        /* \"contracts/023_Delegatecall.sol\":472:476  numA */\n      0x00\n        /* \"contracts/023_Delegatecall.sol\":472:483  numA = _num */\n      dup2\n      swap1\n      sstore\n      pop\n        /* \"contracts/023_Delegatecall.sol\":161:490  {... */\n      pop\n      pop\n        /* \"contracts/023_Delegatecall.sol\":108:490  function callB(address _addr, uint256 _num) external {... */\n      pop\n      pop\n      jump\t// out\n        /* \"contracts/023_Delegatecall.sol\":82:101  uint256 public numA */\n    tag_11:\n      sload(0x00)\n      dup2\n      jump\t// out\n        /* \"contracts/023_Delegatecall.sol\":496:907  function delegatecallB(address _addr, uint256 _num) external {... */\n    tag_16:\n        /* \"contracts/023_Delegatecall.sol\":642:654  bool success */\n      0x00\n        /* \"contracts/023_Delegatecall.sol\":656:673  bytes memory data */\n      dup1\n        /* \"contracts/023_Delegatecall.sol\":677:682  _addr */\n      dup4\n        /* \"contracts/023_Delegatecall.sol\":677:695  _addr.delegatecall */\n      0xffffffffffffffffffffffffffffffffffffffff\n      and\n        /* \"contracts/023_Delegatecall.sol\":753:757  _num */\n      dup4\n        /* \"contracts/023_Delegatecall.sol\":709:758  abi.encodeWithSignature(\"setVars(uint256)\", _num) */\n      add(0x24, mload(0x40))\n      tag_28\n      swap2\n      swap1\n      tag_13\n      jump\t// in\n    tag_28:\n      mload(0x40)\n      0x20\n      dup2\n      dup4\n      sub\n      sub\n      dup2\n      mstore\n      swap1\n      0x40\n      mstore\n      and(not(0xffffffffffffffffffffffffffffffffffffffffffffffffffffffff), 0x6466414b00000000000000000000000000000000000000000000000000000000)\n      0x20\n      dup3\n      add\n      dup1\n      mload\n      0xffffffffffffffffffffffffffffffffffffffffffffffffffffffff\n      dup4\n      dup2\n      dup4\n      and\n      or\n      dup4\n      mstore\n      pop\n      pop\n      pop\n      pop\n        /* \"contracts/023_Delegatecall.sol\":677:768  _addr.delegatecall(... */\n      mload(0x40)\n      tag_29\n      swap2\n      swap1\n      tag_20\n      jump\t// in\n    tag_29:\n      0x00\n      mload(0x40)\n      dup1\n      dup4\n      sub\n      dup2\n      dup6\n      gas\n      delegatecall\n      swap2\n      pop\n      pop\n      returndatasize\n      dup1\n      0x00\n      dup2\n      eq\n      tag_32\n      jumpi\n      mload(0x40)\n      swap2\n      pop\n      and(add(returndatasize, 0x3f), not(0x1f))\n      dup3\n      add\n      0x40\n      mstore\n      returndatasize\n      dup3\n      mstore\n      returndatasize\n      0x00\n      0x20\n      dup5\n      add\n      returndatacopy\n      jump(tag_31)\n    tag_32:\n      0x60\n      swap2\n      pop\n    tag_31:\n      pop\n        /* \"contracts/023_Delegatecall.sol\":641:768  (bool success, bytes memory data) = _addr.delegatecall(... */\n      swap2\n      pop\n      swap2\n      pop\n        /* \"contracts/023_Delegatecall.sol\":786:793  success */\n      dup2\n        /* \"contracts/023_Delegatecall.sol\":778:822  require(success, \"Delegatecall to B failed\") */\n      tag_33\n      jumpi\n      mload(0x40)\n      0x08c379a000000000000000000000000000000000000000000000000000000000\n      dup2\n      mstore\n      0x04\n      add\n      tag_34\n      swap1\n      tag_35\n      jump\t// in\n    tag_34:\n      mload(0x40)\n      dup1\n      swap2\n      sub\n      swap1\n      revert\n    tag_33:\n        /* \"contracts/023_Delegatecall.sol\":896:900  _num */\n      dup3\n        /* \"contracts/023_Delegatecall.sol\":889:893  numA */\n      0x00\n        /* \"contracts/023_Delegatecall.sol\":889:900  numA = _num */\n      dup2\n      swap1\n      sstore\n      pop\n        /* \"contracts/023_Delegatecall.sol\":557:907  {... */\n      pop\n      pop\n        /* \"contracts/023_Delegatecall.sol\":496:907  function delegatecallB(address _addr, uint256 _num) external {... */\n      pop\n      pop\n      jump\t// out\n        /* \"#utility.yul\":88:205   */\n    tag_37:\n        /* \"#utility.yul\":197:198   */\n      0x00\n        /* \"#utility.yul\":194:195   */\n      dup1\n        /* \"#utility.yul\":187:199   */\n      revert\n        /* \"#utility.yul\":334:460   */\n    tag_39:\n        /* \"#utility.yul\":371:378   */\n      0x00\n        /* \"#utility.yul\":411:453   */\n      0xffffffffffffffffffffffffffffffffffffffff\n        /* \"#utility.yul\":404:409   */\n      dup3\n        /* \"#utility.yul\":400:454   */\n      and\n        /* \"#utility.yul\":389:454   */\n      swap1\n      pop\n        /* \"#utility.yul\":334:460   */\n      swap2\n      swap1\n      pop\n      jump\t// out\n        /* \"#utility.yul\":466:562   */\n    tag_40:\n        /* \"#utility.yul\":503:510   */\n      0x00\n        /* \"#utility.yul\":532:556   */\n      tag_62\n        /* \"#utility.yul\":550:555   */\n      dup3\n        /* \"#utility.yul\":532:556   */\n      tag_39\n      jump\t// in\n    tag_62:\n        /* \"#utility.yul\":521:556   */\n      swap1\n      pop\n        /* \"#utility.yul\":466:562   */\n      swap2\n      swap1\n      pop\n      jump\t// out\n        /* \"#utility.yul\":568:690   */\n    tag_41:\n        /* \"#utility.yul\":641:665   */\n      tag_64\n        /* \"#utility.yul\":659:664   */\n      dup2\n        /* \"#utility.yul\":641:665   */\n      tag_40\n      jump\t// in\n    tag_64:\n        /* \"#utility.yul\":634:639   */\n      dup2\n        /* \"#utility.yul\":631:666   */\n      eq\n        /* \"#utility.yul\":621:684   */\n      tag_65\n      jumpi\n        /* \"#utility.yul\":680:681   */\n      0x00\n        /* \"#utility.yul\":677:678   */\n      dup1\n        /* \"#utility.yul\":670:682   */\n      revert\n        /* \"#utility.yul\":621:684   */\n    tag_65:\n        /* \"#utility.yul\":568:690   */\n      pop\n      jump\t// out\n        /* \"#utility.yul\":696:835   */\n    tag_42:\n        /* \"#utility.yul\":742:747   */\n      0x00\n        /* \"#utility.yul\":780:786   */\n      dup2\n        /* \"#utility.yul\":767:787   */\n      calldataload\n        /* \"#utility.yul\":758:787   */\n      swap1\n      pop\n        /* \"#utility.yul\":796:829   */\n      tag_67\n        /* \"#utility.yul\":823:828   */\n      dup2\n        /* \"#utility.yul\":796:829   */\n      tag_41\n      jump\t// in\n    tag_67:\n        /* \"#utility.yul\":696:835   */\n      swap3\n      swap2\n      pop\n      pop\n      jump\t// out\n        /* \"#utility.yul\":841:918   */\n    tag_43:\n        /* \"#utility.yul\":878:885   */\n      0x00\n        /* \"#utility.yul\":907:912   */\n      dup2\n        /* \"#utility.yul\":896:912   */\n      swap1\n      pop\n        /* \"#utility.yul\":841:918   */\n      swap2\n      swap1\n      pop\n      jump\t// out\n        /* \"#utility.yul\":924:1046   */\n    tag_44:\n        /* \"#utility.yul\":997:1021   */\n      tag_70\n        /* \"#utility.yul\":1015:1020   */\n      dup2\n        /* \"#utility.yul\":997:1021   */\n      tag_43\n      jump\t// in\n    tag_70:\n        /* \"#utility.yul\":990:995   */\n      dup2\n        /* \"#utility.yul\":987:1022   */\n      eq\n        /* \"#utility.yul\":977:1040   */\n      tag_71\n      jumpi\n        /* \"#utility.yul\":1036:1037   */\n      0x00\n        /* \"#utility.yul\":1033:1034   */\n      dup1\n        /* \"#utility.yul\":1026:1038   */\n      revert\n        /* \"#utility.yul\":977:1040   */\n    tag_71:\n        /* \"#utility.yul\":924:1046   */\n      pop\n      jump\t// out\n        /* \"#utility.yul\":1052:1191   */\n    tag_45:\n        /* \"#utility.yul\":1098:1103   */\n      0x00\n        /* \"#utility.yul\":1136:1142   */\n      dup2\n        /* \"#utility.yul\":1123:1143   */\n      calldataload\n        /* \"#utility.yul\":1114:1143   */\n      swap1\n      pop\n        /* \"#utility.yul\":1152:1185   */\n      tag_73\n        /* \"#utility.yul\":1179:1184   */\n      dup2\n        /* \"#utility.yul\":1152:1185   */\n      tag_44\n      jump\t// in\n    tag_73:\n        /* \"#utility.yul\":1052:1191   */\n      swap3\n      swap2\n      pop\n      pop\n      jump\t// out\n        /* \"#utility.yul\":1197:1671   */\n    tag_8:\n        /* \"#utility.yul\":1265:1271   */\n      0x00\n        /* \"#utility.yul\":1273:1279   */\n      dup1\n        /* \"#utility.yul\":1322:1324   */\n      0x40\n        /* \"#utility.yul\":1310:1319   */\n      dup4\n        /* \"#utility.yul\":1301:1308   */\n      dup6\n        /* \"#utility.yul\":1297:1320   */\n      sub\n        /* \"#utility.yul\":1293:1325   */\n      slt\n        /* \"#utility.yul\":1290:1409   */\n      iszero\n      tag_75\n      jumpi\n        /* \"#utility.yul\":1328:1407   */\n      tag_76\n      tag_37\n      jump\t// in\n    tag_76:\n        /* \"#utility.yul\":1290:1409   */\n    tag_75:\n        /* \"#utility.yul\":1448:1449   */\n      0x00\n        /* \"#utility.yul\":1473:1526   */\n      tag_77\n        /* \"#utility.yul\":1518:1525   */\n      dup6\n        /* \"#utility.yul\":1509:1515   */\n      dup3\n        /* \"#utility.yul\":1498:1507   */\n      dup7\n        /* \"#utility.yul\":1494:1516   */\n      add\n        /* \"#utility.yul\":1473:1526   */\n      tag_42\n      jump\t// in\n    tag_77:\n        /* \"#utility.yul\":1463:1526   */\n      swap3\n      pop\n        /* \"#utility.yul\":1419:1536   */\n      pop\n        /* \"#utility.yul\":1575:1577   */\n      0x20\n        /* \"#utility.yul\":1601:1654   */\n      tag_78\n        /* \"#utility.yul\":1646:1653   */\n      dup6\n        /* \"#utility.yul\":1637:1643   */\n      dup3\n        /* \"#utility.yul\":1626:1635   */\n      dup7\n        /* \"#utility.yul\":1622:1644   */\n      add\n        /* \"#utility.yul\":1601:1654   */\n      tag_45\n      jump\t// in\n    tag_78:\n        /* \"#utility.yul\":1591:1654   */\n      swap2\n      pop\n        /* \"#utility.yul\":1546:1664   */\n      pop\n        /* \"#utility.yul\":1197:1671   */\n      swap3\n      pop\n      swap3\n      swap1\n      pop\n      jump\t// out\n        /* \"#utility.yul\":1677:1795   */\n    tag_46:\n        /* \"#utility.yul\":1764:1788   */\n      tag_80\n        /* \"#utility.yul\":1782:1787   */\n      dup2\n        /* \"#utility.yul\":1764:1788   */\n      tag_43\n      jump\t// in\n    tag_80:\n        /* \"#utility.yul\":1759:1762   */\n      dup3\n        /* \"#utility.yul\":1752:1789   */\n      mstore\n        /* \"#utility.yul\":1677:1795   */\n      pop\n      pop\n      jump\t// out\n        /* \"#utility.yul\":1801:2023   */\n    tag_13:\n        /* \"#utility.yul\":1894:1898   */\n      0x00\n        /* \"#utility.yul\":1932:1934   */\n      0x20\n        /* \"#utility.yul\":1921:1930   */\n      dup3\n        /* \"#utility.yul\":1917:1935   */\n      add\n        /* \"#utility.yul\":1909:1935   */\n      swap1\n      pop\n        /* \"#utility.yul\":1945:2016   */\n      tag_82\n        /* \"#utility.yul\":2013:2014   */\n      0x00\n        /* \"#utility.yul\":2002:2011   */\n      dup4\n        /* \"#utility.yul\":1998:2015   */\n      add\n        /* \"#utility.yul\":1989:1995   */\n      dup5\n        /* \"#utility.yul\":1945:2016   */\n      tag_46\n      jump\t// in\n    tag_82:\n        /* \"#utility.yul\":1801:2023   */\n      swap3\n      swap2\n      pop\n      pop\n      jump\t// out\n        /* \"#utility.yul\":2029:2127   */\n    tag_47:\n        /* \"#utility.yul\":2080:2086   */\n      0x00\n        /* \"#utility.yul\":2114:2119   */\n      dup2\n        /* \"#utility.yul\":2108:2120   */\n      mload\n        /* \"#utility.yul\":2098:2120   */\n      swap1\n      pop\n        /* \"#utility.yul\":2029:2127   */\n      swap2\n      swap1\n      pop\n      jump\t// out\n        /* \"#utility.yul\":2133:2280   */\n    tag_48:\n        /* \"#utility.yul\":2234:2245   */\n      0x00\n        /* \"#utility.yul\":2271:2274   */\n      dup2\n        /* \"#utility.yul\":2256:2274   */\n      swap1\n      pop\n        /* \"#utility.yul\":2133:2280   */\n      swap3\n      swap2\n      pop\n      pop\n      jump\t// out\n        /* \"#utility.yul\":2286:2532   */\n    tag_49:\n        /* \"#utility.yul\":2367:2368   */\n      0x00\n        /* \"#utility.yul\":2377:2490   */\n    tag_86:\n        /* \"#utility.yul\":2391:2397   */\n      dup4\n        /* \"#utility.yul\":2388:2389   */\n      dup2\n        /* \"#utility.yul\":2385:2398   */\n      lt\n        /* \"#utility.yul\":2377:2490   */\n      iszero\n      tag_88\n      jumpi\n        /* \"#utility.yul\":2476:2477   */\n      dup1\n        /* \"#utility.yul\":2471:2474   */\n      dup3\n        /* \"#utility.yul\":2467:2478   */\n      add\n        /* \"#utility.yul\":2461:2479   */\n      mload\n        /* \"#utility.yul\":2457:2458   */\n      dup2\n        /* \"#utility.yul\":2452:2455   */\n      dup5\n        /* \"#utility.yul\":2448:2459   */\n      add\n        /* \"#utility.yul\":2441:2480   */\n      mstore\n        /* \"#utility.yul\":2413:2415   */\n      0x20\n        /* \"#utility.yul\":2410:2411   */\n      dup2\n        /* \"#utility.yul\":2406:2416   */\n      add\n        /* \"#utility.yul\":2401:2416   */\n      swap1\n      pop\n        /* \"#utility.yul\":2377:2490   */\n      jump(tag_86)\n    tag_88:\n        /* \"#utility.yul\":2524:2525   */\n      0x00\n        /* \"#utility.yul\":2515:2521   */\n      dup5\n        /* \"#utility.yul\":2510:2513   */\n      dup5\n        /* \"#utility.yul\":2506:2522   */\n      add\n        /* \"#utility.yul\":2499:2526   */\n      mstore\n        /* \"#utility.yul\":2348:2532   */\n      pop\n        /* \"#utility.yul\":2286:2532   */\n      pop\n      pop\n      pop\n      jump\t// out\n        /* \"#utility.yul\":2538:2924   */\n    tag_50:\n        /* \"#utility.yul\":2642:2645   */\n      0x00\n        /* \"#utility.yul\":2670:2708   */\n      tag_90\n        /* \"#utility.yul\":2702:2707   */\n      dup3\n        /* \"#utility.yul\":2670:2708   */\n      tag_47\n      jump\t// in\n    tag_90:\n        /* \"#utility.yul\":2724:2812   */\n      tag_91\n        /* \"#utility.yul\":2805:2811   */\n      dup2\n        /* \"#utility.yul\":2800:2803   */\n      dup6\n        /* \"#utility.yul\":2724:2812   */\n      tag_48\n      jump\t// in\n    tag_91:\n        /* \"#utility.yul\":2717:2812   */\n      swap4\n      pop\n        /* \"#utility.yul\":2821:2886   */\n      tag_92\n        /* \"#utility.yul\":2879:2885   */\n      dup2\n        /* \"#utility.yul\":2874:2877   */\n      dup6\n        /* \"#utility.yul\":2867:2871   */\n      0x20\n        /* \"#utility.yul\":2860:2865   */\n      dup7\n        /* \"#utility.yul\":2856:2872   */\n      add\n        /* \"#utility.yul\":2821:2886   */\n      tag_49\n      jump\t// in\n    tag_92:\n        /* \"#utility.yul\":2911:2917   */\n      dup1\n        /* \"#utility.yul\":2906:2909   */\n      dup5\n        /* \"#utility.yul\":2902:2918   */\n      add\n        /* \"#utility.yul\":2895:2918   */\n      swap2\n      pop\n        /* \"#utility.yul\":2646:2924   */\n      pop\n        /* \"#utility.yul\":2538:2924   */\n      swap3\n      swap2\n      pop\n      pop\n      jump\t// out\n        /* \"#utility.yul\":2930:3201   */\n    tag_20:\n        /* \"#utility.yul\":3060:3063   */\n      0x00\n        /* \"#utility.yul\":3082:3175   */\n      tag_94\n        /* \"#utility.yul\":3171:3174   */\n      dup3\n        /* \"#utility.yul\":3162:3168   */\n      dup5\n        /* \"#utility.yul\":3082:3175   */\n      tag_50\n      jump\t// in\n    tag_94:\n        /* \"#utility.yul\":3075:3175   */\n      swap2\n      pop\n        /* \"#utility.yul\":3192:3195   */\n      dup2\n        /* \"#utility.yul\":3185:3195   */\n      swap1\n      pop\n        /* \"#utility.yul\":2930:3201   */\n      swap3\n      swap2\n      pop\n      pop\n      jump\t// out\n        /* \"#utility.yul\":3207:3376   */\n    tag_51:\n        /* \"#utility.yul\":3291:3302   */\n      0x00\n        /* \"#utility.yul\":3325:3331   */\n      dup3\n        /* \"#utility.yul\":3320:3323   */\n      dup3\n        /* \"#utility.yul\":3313:3332   */\n      mstore\n        /* \"#utility.yul\":3365:3369   */\n      0x20\n        /* \"#utility.yul\":3360:3363   */\n      dup3\n        /* \"#utility.yul\":3356:3370   */\n      add\n        /* \"#utility.yul\":3341:3370   */\n      swap1\n      pop\n        /* \"#utility.yul\":3207:3376   */\n      swap3\n      swap2\n      pop\n      pop\n      jump\t// out\n        /* \"#utility.yul\":3382:3548   */\n    tag_52:\n        /* \"#utility.yul\":3522:3540   */\n      0x43616c6c20746f2042206661696c656400000000000000000000000000000000\n        /* \"#utility.yul\":3518:3519   */\n      0x00\n        /* \"#utility.yul\":3510:3516   */\n      dup3\n        /* \"#utility.yul\":3506:3520   */\n      add\n        /* \"#utility.yul\":3499:3541   */\n      mstore\n        /* \"#utility.yul\":3382:3548   */\n      pop\n      jump\t// out\n        /* \"#utility.yul\":3554:3920   */\n    tag_53:\n        /* \"#utility.yul\":3696:3699   */\n      0x00\n        /* \"#utility.yul\":3717:3784   */\n      tag_98\n        /* \"#utility.yul\":3781:3783   */\n      0x10\n        /* \"#utility.yul\":3776:3779   */\n      dup4\n        /* \"#utility.yul\":3717:3784   */\n      tag_51\n      jump\t// in\n    tag_98:\n        /* \"#utility.yul\":3710:3784   */\n      swap2\n      pop\n        /* \"#utility.yul\":3793:3886   */\n      tag_99\n        /* \"#utility.yul\":3882:3885   */\n      dup3\n        /* \"#utility.yul\":3793:3886   */\n      tag_52\n      jump\t// in\n    tag_99:\n        /* \"#utility.yul\":3911:3913   */\n      0x20\n        /* \"#utility.yul\":3906:3909   */\n      dup3\n        /* \"#utility.yul\":3902:3914   */\n      add\n        /* \"#utility.yul\":3895:3914   */\n      swap1\n      pop\n        /* \"#utility.yul\":3554:3920   */\n      swap2\n      swap1\n      pop\n      jump\t// out\n        /* \"#utility.yul\":3926:4345   */\n    tag_26:\n        /* \"#utility.yul\":4092:4096   */\n      0x00\n        /* \"#utility.yul\":4130:4132   */\n      0x20\n        /* \"#utility.yul\":4119:4128   */\n      dup3\n        /* \"#utility.yul\":4115:4133   */\n      add\n        /* \"#utility.yul\":4107:4133   */\n      swap1\n      pop\n        /* \"#utility.yul\":4179:4188   */\n      dup2\n        /* \"#utility.yul\":4173:4177   */\n      dup2\n        /* \"#utility.yul\":4169:4189   */\n      sub\n        /* \"#utility.yul\":4165:4166   */\n      0x00\n        /* \"#utility.yul\":4154:4163   */\n      dup4\n        /* \"#utility.yul\":4150:4167   */\n      add\n        /* \"#utility.yul\":4143:4190   */\n      mstore\n        /* \"#utility.yul\":4207:4338   */\n      tag_101\n        /* \"#utility.yul\":4333:4337   */\n      dup2\n        /* \"#utility.yul\":4207:4338   */\n      tag_53\n      jump\t// in\n    tag_101:\n        /* \"#utility.yul\":4199:4338   */\n      swap1\n      pop\n        /* \"#utility.yul\":3926:4345   */\n      swap2\n      swap1\n      pop\n      jump\t// out\n        /* \"#utility.yul\":4351:4525   */\n    tag_54:\n        /* \"#utility.yul\":4491:4517   */\n      0x44656c656761746563616c6c20746f2042206661696c65640000000000000000\n        /* \"#utility.yul\":4487:4488   */\n      0x00\n        /* \"#utility.yul\":4479:4485   */\n      dup3\n        /* \"#utility.yul\":4475:4489   */\n      add\n        /* \"#utility.yul\":4468:4518   */\n      mstore\n        /* \"#utility.yul\":4351:4525   */\n      pop\n      jump\t// out\n        /* \"#utility.yul\":4531:4897   */\n    tag_55:\n        /* \"#utility.yul\":4673:4676   */\n      0x00\n        /* \"#utility.yul\":4694:4761   */\n      tag_104\n        /* \"#utility.yul\":4758:4760   */\n      0x18\n        /* \"#utility.yul\":4753:4756   */\n      dup4\n        /* \"#utility.yul\":4694:4761   */\n      tag_51\n      jump\t// in\n    tag_104:\n        /* \"#utility.yul\":4687:4761   */\n      swap2\n      pop\n        /* \"#utility.yul\":4770:4863   */\n      tag_105\n        /* \"#utility.yul\":4859:4862   */\n      dup3\n        /* \"#utility.yul\":4770:4863   */\n      tag_54\n      jump\t// in\n    tag_105:\n        /* \"#utility.yul\":4888:4890   */\n      0x20\n        /* \"#utility.yul\":4883:4886   */\n      dup3\n        /* \"#utility.yul\":4879:4891   */\n      add\n        /* \"#utility.yul\":4872:4891   */\n      swap1\n      pop\n        /* \"#utility.yul\":4531:4897   */\n      swap2\n      swap1\n      pop\n      jump\t// out\n        /* \"#utility.yul\":4903:5322   */\n    tag_35:\n        /* \"#utility.yul\":5069:5073   */\n      0x00\n        /* \"#utility.yul\":5107:5109   */\n      0x20\n        /* \"#utility.yul\":5096:5105   */\n      dup3\n        /* \"#utility.yul\":5092:5110   */\n      add\n        /* \"#utility.yul\":5084:5110   */\n      swap1\n      pop\n        /* \"#utility.yul\":5156:5165   */\n      dup2\n        /* \"#utility.yul\":5150:5154   */\n      dup2\n        /* \"#utility.yul\":5146:5166   */\n      sub\n        /* \"#utility.yul\":5142:5143   */\n      0x00\n        /* \"#utility.yul\":5131:5140   */\n      dup4\n        /* \"#utility.yul\":5127:5144   */\n      add\n        /* \"#utility.yul\":5120:5167   */\n      mstore\n        /* \"#utility.yul\":5184:5315   */\n      tag_107\n        /* \"#utility.yul\":5310:5314   */\n      dup2\n        /* \"#utility.yul\":5184:5315   */\n      tag_55\n      jump\t// in\n    tag_107:\n        /* \"#utility.yul\":5176:5315   */\n      swap1\n      pop\n        /* \"#utility.yul\":4903:5322   */\n      swap2\n      swap1\n      pop\n      jump\t// out\n\n    auxdata: 0xa2646970667358221220e036f4ecfbc103f3357ef038d3effdedd06f3bbb5c38a8523deeff6f0ed5949a64736f6c63430008160033\n}\n",
				"bytecode": {
					"linkReferences": {},
					"object": "608060405234801561000f575f80fd5b506105b28061001d5f395ff3fe608060405234801561000f575f80fd5b506004361061003f575f3560e01c80632b2a3bbe14610043578063a558a2f41461005f578063a58f11ee1461007d575b5f80fd5b61005d600480360381019061005891906103b4565b610099565b005b6100676101dc565b6040516100749190610401565b60405180910390f35b610097600480360381019061009291906103b4565b6101e1565b005b5f808373ffffffffffffffffffffffffffffffffffffffff16836040516024016100c39190610401565b6040516020818303038152906040527f6466414b000000000000000000000000000000000000000000000000000000007bffffffffffffffffffffffffffffffffffffffffffffffffffffffff19166020820180517bffffffffffffffffffffffffffffffffffffffffffffffffffffffff838183161783525050505060405161014d9190610486565b5f604051808303815f865af19150503d805f8114610186576040519150601f19603f3d011682016040523d82523d5f602084013e61018b565b606091505b5091509150816101d0576040517f08c379a00000000000000000000000000000000000000000000000000000000081526004016101c7906104f6565b60405180910390fd5b825f8190555050505050565b5f5481565b5f808373ffffffffffffffffffffffffffffffffffffffff168360405160240161020b9190610401565b6040516020818303038152906040527f6466414b000000000000000000000000000000000000000000000000000000007bffffffffffffffffffffffffffffffffffffffffffffffffffffffff19166020820180517bffffffffffffffffffffffffffffffffffffffffffffffffffffffff83818316178352505050506040516102959190610486565b5f60405180830381855af49150503d805f81146102cd576040519150601f19603f3d011682016040523d82523d5f602084013e6102d2565b606091505b509150915081610317576040517f08c379a000000000000000000000000000000000000000000000000000000000815260040161030e9061055e565b60405180910390fd5b825f8190555050505050565b5f80fd5b5f73ffffffffffffffffffffffffffffffffffffffff82169050919050565b5f61035082610327565b9050919050565b61036081610346565b811461036a575f80fd5b50565b5f8135905061037b81610357565b92915050565b5f819050919050565b61039381610381565b811461039d575f80fd5b50565b5f813590506103ae8161038a565b92915050565b5f80604083850312156103ca576103c9610323565b5b5f6103d78582860161036d565b92505060206103e8858286016103a0565b9150509250929050565b6103fb81610381565b82525050565b5f6020820190506104145f8301846103f2565b92915050565b5f81519050919050565b5f81905092915050565b5f5b8381101561044b578082015181840152602081019050610430565b5f8484015250505050565b5f6104608261041a565b61046a8185610424565b935061047a81856020860161042e565b80840191505092915050565b5f6104918284610456565b915081905092915050565b5f82825260208201905092915050565b7f43616c6c20746f2042206661696c6564000000000000000000000000000000005f82015250565b5f6104e060108361049c565b91506104eb826104ac565b602082019050919050565b5f6020820190508181035f83015261050d816104d4565b9050919050565b7f44656c656761746563616c6c20746f2042206661696c656400000000000000005f82015250565b5f61054860188361049c565b915061055382610514565b602082019050919050565b5f6020820190508181035f8301526105758161053c565b905091905056fea2646970667358221220e036f4ecfbc103f3357ef038d3effdedd06f3bbb5c38a8523deeff6f0ed5949a64736f6c63430008160033",
					"opcodes": "PUSH1 0x80 PUSH1 0x40 MSTORE CALLVALUE DUP1 ISZERO PUSH2 0xF JUMPI PUSH0 DUP1 REVERT JUMPDEST POP PUSH2 0x5B2 DUP1 PUSH2 0x1D PUSH0 CODECOPY PUSH0 RETURN INVALID PUSH1 0x80 PUSH1 0x40 MSTORE CALLVALUE DUP1 ISZERO PUSH2 0xF JUMPI PUSH0 DUP1 REVERT JUMPDEST POP PUSH1 0x4 CALLDATASIZE LT PUSH2 0x3F JUMPI PUSH0 CALLDATALOAD PUSH1 0xE0 SHR DUP1 PUSH4 0x2B2A3BBE EQ PUSH2 0x43 JUMPI DUP1 PUSH4 0xA558A2F4 EQ PUSH2 0x5F JUMPI DUP1 PUSH4 0xA58F11EE EQ PUSH2 0x7D JUMPI JUMPDEST PUSH0 DUP1 REVERT JUMPDEST PUSH2 0x5D PUSH1 0x4 DUP1 CALLDATASIZE SUB DUP2 ADD SWAP1 PUSH2 0x58 SWAP2 SWAP1 PUSH2 0x3B4 JUMP JUMPDEST PUSH2 0x99 JUMP JUMPDEST STOP JUMPDEST PUSH2 0x67 PUSH2 0x1DC JUMP JUMPDEST PUSH1 0x40 MLOAD PUSH2 0x74 SWAP2 SWAP1 PUSH2 0x401 JUMP JUMPDEST PUSH1 0x40 MLOAD DUP1 SWAP2 SUB SWAP1 RETURN JUMPDEST PUSH2 0x97 PUSH1 0x4 DUP1 CALLDATASIZE SUB DUP2 ADD SWAP1 PUSH2 0x92 SWAP2 SWAP1 PUSH2 0x3B4 JUMP JUMPDEST PUSH2 0x1E1 JUMP JUMPDEST STOP JUMPDEST PUSH0 DUP1 DUP4 PUSH20 0xFFFFFFFFFFFFFFFFFFFFFFFFFFFFFFFFFFFFFFFF AND DUP4 PUSH1 0x40 MLOAD PUSH1 0x24 ADD PUSH2 0xC3 SWAP2 SWAP1 PUSH2 0x401 JUMP JUMPDEST PUSH1 0x40 MLOAD PUSH1 0x20 DUP2 DUP4 SUB SUB DUP2 MSTORE SWAP1 PUSH1 0x40 MSTORE PUSH32 0x6466414B00000000000000000000000000000000000000000000000000000000 PUSH28 0xFFFFFFFFFFFFFFFFFFFFFFFFFFFFFFFFFFFFFFFFFFFFFFFFFFFFFFFF NOT AND PUSH1 0x20 DUP3 ADD DUP1 MLOAD PUSH28 0xFFFFFFFFFFFFFFFFFFFFFFFFFFFFFFFFFFFFFFFFFFFFFFFFFFFFFFFF DUP4 DUP2 DUP4 AND OR DUP4 MSTORE POP POP POP POP PUSH1 0x40 MLOAD PUSH2 0x14D SWAP2 SWAP1 PUSH2 0x486 JUMP JUMPDEST PUSH0 PUSH1 0x40 MLOAD DUP1 DUP4 SUB DUP2 PUSH0 DUP7 GAS CALL SWAP2 POP POP RETURNDATASIZE DUP1 PUSH0 DUP2 EQ PUSH2 0x186 JUMPI PUSH1 0x40 MLOAD SWAP2 POP PUSH1 0x1F NOT PUSH1 0x3F RETURNDATASIZE ADD AND DUP3 ADD PUSH1 0x40 MSTORE RETURNDATASIZE DUP3 MSTORE RETURNDATASIZE PUSH0 PUSH1 0x20 DUP5 ADD RETURNDATACOPY PUSH2 0x18B JUMP JUMPDEST PUSH1 0x60 SWAP2 POP JUMPDEST POP SWAP2 POP SWAP2 POP DUP2 PUSH2 0x1D0 JUMPI PUSH1 0x40 MLOAD PUSH32 0x8C379A000000000000000000000000000000000000000000000000000000000 DUP2 MSTORE PUSH1 0x4 ADD PUSH2 0x1C7 SWAP1 PUSH2 0x4F6 JUMP JUMPDEST PUSH1 0x40 MLOAD DUP1 SWAP2 SUB SWAP1 REVERT JUMPDEST DUP3 PUSH0 DUP2 SWAP1 SSTORE POP POP POP POP POP JUMP JUMPDEST PUSH0 SLOAD DUP2 JUMP JUMPDEST PUSH0 DUP1 DUP4 PUSH20 0xFFFFFFFFFFFFFFFFFFFFFFFFFFFFFFFFFFFFFFFF AND DUP4 PUSH1 0x40 MLOAD PUSH1 0x24 ADD PUSH2 0x20B SWAP2 SWAP1 PUSH2 0x401 JUMP JUMPDEST PUSH1 0x40 MLOAD PUSH1 0x20 DUP2 DUP4 SUB SUB DUP2 MSTORE SWAP1 PUSH1 0x40 MSTORE PUSH32 0x6466414B00000000000000000000000000000000000000000000000000000000 PUSH28 0xFFFFFFFFFFFFFFFFFFFFFFFFFFFFFFFFFFFFFFFFFFFFFFFFFFFFFFFF NOT AND PUSH1 0x20 DUP3 ADD DUP1 MLOAD PUSH28 0xFFFFFFFFFFFFFFFFFFFFFFFFFFFFFFFFFFFFFFFFFFFFFFFFFFFFFFFF DUP4 DUP2 DUP4 AND OR DUP4 MSTORE POP POP POP POP PUSH1 0x40 MLOAD PUSH2 0x295 SWAP2 SWAP1 PUSH2 0x486 JUMP JUMPDEST PUSH0 PUSH1 0x40 MLOAD DUP1 DUP4 SUB DUP2 DUP6 GAS DELEGATECALL SWAP2 POP POP RETURNDATASIZE DUP1 PUSH0 DUP2 EQ PUSH2 0x2CD JUMPI PUSH1 0x40 MLOAD SWAP2 POP PUSH1 0x1F NOT PUSH1 0x3F RETURNDATASIZE ADD AND DUP3 ADD PUSH1 0x40 MSTORE RETURNDATASIZE DUP3 MSTORE RETURNDATASIZE PUSH0 PUSH1 0x20 DUP5 ADD RETURNDATACOPY PUSH2 0x2D2 JUMP JUMPDEST PUSH1 0x60 SWAP2 POP JUMPDEST POP SWAP2 POP SWAP2 POP DUP2 PUSH2 0x317 JUMPI PUSH1 0x40 MLOAD PUSH32 0x8C379A000000000000000000000000000000000000000000000000000000000 DUP2 MSTORE PUSH1 0x4 ADD PUSH2 0x30E SWAP1 PUSH2 0x55E JUMP JUMPDEST PUSH1 0x40 MLOAD DUP1 SWAP2 SUB SWAP1 REVERT JUMPDEST DUP3 PUSH0 DUP2 SWAP1 SSTORE POP POP POP POP POP JUMP JUMPDEST PUSH0 DUP1 REVERT JUMPDEST PUSH0 PUSH20 0xFFFFFFFFFFFFFFFFFFFFFFFFFFFFFFFFFFFFFFFF DUP3 AND SWAP1 POP SWAP2 SWAP1 POP JUMP JUMPDEST PUSH0 PUSH2 0x350 DUP3 PUSH2 0x327 JUMP JUMPDEST SWAP1 POP SWAP2 SWAP1 POP JUMP JUMPDEST PUSH2 0x360 DUP2 PUSH2 0x346 JUMP JUMPDEST DUP2 EQ PUSH2 0x36A JUMPI PUSH0 DUP1 REVERT JUMPDEST POP JUMP JUMPDEST PUSH0 DUP2 CALLDATALOAD SWAP1 POP PUSH2 0x37B DUP2 PUSH2 0x357 JUMP JUMPDEST SWAP3 SWAP2 POP POP JUMP JUMPDEST PUSH0 DUP2 SWAP1 POP SWAP2 SWAP1 POP JUMP JUMPDEST PUSH2 0x393 DUP2 PUSH2 0x381 JUMP JUMPDEST DUP2 EQ PUSH2 0x39D JUMPI PUSH0 DUP1 REVERT JUMPDEST POP JUMP JUMPDEST PUSH0 DUP2 CALLDATALOAD SWAP1 POP PUSH2 0x3AE DUP2 PUSH2 0x38A JUMP JUMPDEST SWAP3 SWAP2 POP POP JUMP JUMPDEST PUSH0 DUP1 PUSH1 0x40 DUP4 DUP6 SUB SLT ISZERO PUSH2 0x3CA JUMPI PUSH2 0x3C9 PUSH2 0x323 JUMP JUMPDEST JUMPDEST PUSH0 PUSH2 0x3D7 DUP6 DUP3 DUP7 ADD PUSH2 0x36D JUMP JUMPDEST SWAP3 POP POP PUSH1 0x20 PUSH2 0x3E8 DUP6 DUP3 DUP7 ADD PUSH2 0x3A0 JUMP JUMPDEST SWAP2 POP POP SWAP3 POP SWAP3 SWAP1 POP JUMP JUMPDEST PUSH2 0x3FB DUP2 PUSH2 0x381 JUMP JUMPDEST DUP3 MSTORE POP POP JUMP JUMPDEST PUSH0 PUSH1 0x20 DUP3 ADD SWAP1 POP PUSH2 0x414 PUSH0 DUP4 ADD DUP5 PUSH2 0x3F2 JUMP JUMPDEST SWAP3 SWAP2 POP POP JUMP JUMPDEST PUSH0 DUP2 MLOAD SWAP1 POP SWAP2 SWAP1 POP JUMP JUMPDEST PUSH0 DUP2 SWAP1 POP SWAP3 SWAP2 POP POP JUMP JUMPDEST PUSH0 JUMPDEST DUP4 DUP2 LT ISZERO PUSH2 0x44B JUMPI DUP1 DUP3 ADD MLOAD DUP2 DUP5 ADD MSTORE PUSH1 0x20 DUP2 ADD SWAP1 POP PUSH2 0x430 JUMP JUMPDEST PUSH0 DUP5 DUP5 ADD MSTORE POP POP POP POP JUMP JUMPDEST PUSH0 PUSH2 0x460 DUP3 PUSH2 0x41A JUMP JUMPDEST PUSH2 0x46A DUP2 DUP6 PUSH2 0x424 JUMP JUMPDEST SWAP4 POP PUSH2 0x47A DUP2 DUP6 PUSH1 0x20 DUP7 ADD PUSH2 0x42E JUMP JUMPDEST DUP1 DUP5 ADD SWAP2 POP POP SWAP3 SWAP2 POP POP JUMP JUMPDEST PUSH0 PUSH2 0x491 DUP3 DUP5 PUSH2 0x456 JUMP JUMPDEST SWAP2 POP DUP2 SWAP1 POP SWAP3 SWAP2 POP POP JUMP JUMPDEST PUSH0 DUP3 DUP3 MSTORE PUSH1 0x20 DUP3 ADD SWAP1 POP SWAP3 SWAP2 POP POP JUMP JUMPDEST PUSH32 0x43616C6C20746F2042206661696C656400000000000000000000000000000000 PUSH0 DUP3 ADD MSTORE POP JUMP JUMPDEST PUSH0 PUSH2 0x4E0 PUSH1 0x10 DUP4 PUSH2 0x49C JUMP JUMPDEST SWAP2 POP PUSH2 0x4EB DUP3 PUSH2 0x4AC JUMP JUMPDEST PUSH1 0x20 DUP3 ADD SWAP1 POP SWAP2 SWAP1 POP JUMP JUMPDEST PUSH0 PUSH1 0x20 DUP3 ADD SWAP1 POP DUP2 DUP2 SUB PUSH0 DUP4 ADD MSTORE PUSH2 0x50D DUP2 PUSH2 0x4D4 JUMP JUMPDEST SWAP1 POP SWAP2 SWAP1 POP JUMP JUMPDEST PUSH32 0x44656C656761746563616C6C20746F2042206661696C65640000000000000000 PUSH0 DUP3 ADD MSTORE POP JUMP JUMPDEST PUSH0 PUSH2 0x548 PUSH1 0x18 DUP4 PUSH2 0x49C JUMP JUMPDEST SWAP2 POP PUSH2 0x553 DUP3 PUSH2 0x514 JUMP JUMPDEST PUSH1 0x20 DUP3 ADD SWAP1 POP SWAP2 SWAP1 POP JUMP JUMPDEST PUSH0 PUSH1 0x20 DUP3 ADD SWAP1 POP DUP2 DUP2 SUB PUSH0 DUP4 ADD MSTORE PUSH2 0x575 DUP2 PUSH2 0x53C JUMP JUMPDEST SWAP1 POP SWAP2 SWAP1 POP JUMP INVALID LOG2 PUSH5 0x6970667358 0x22 SLT KECCAK256 0xE0 CALLDATASIZE DELEGATECALL 0xEC 0xFB 0xC1 SUB RETURN CALLDATALOAD PUSH31 0xF038D3EFFDEDD06F3BBB5C38A8523DEEFF6F0ED5949A64736F6C6343000816 STOP CALLER "
				},
				"gasEstimates": {
					"creation": {
						"codeDepositCost": "291600",
						"executionCost": "329",
						"totalCost": "291929"
					},
					"external": {
						"callB(address,uint256)": "infinite",
						"delegatecallB(address,uint256)": "infinite",
						"numA()": "2424"
					}
				},
				"methodIdentifiers": {
					"callB(address,uint256)": "2b2a3bbe",
					"delegatecallB(address,uint256)": "a58f11ee",
					"numA()": "a558a2f4"
				}
			},
			"storageLayout": {
				"storage": [
					{
						"astId": 3,
						"contract": "contracts/023_Delegatecall.sol:A",
						"label": "numA",
						"offset": 0,
						"slot": "0",
						"type": "t_uint256"
					}
				],
				"types": {
					"t_uint256": {
						"encoding": "inplace",
						"label": "uint256",
						"numberOfBytes": "32"
					}
				}
			},
			"userdoc": {
				"kind": "user",
				"methods": {},
				"version": 1
			}
		}
	}
}