{
	"contracts/004_Return.sol": {
		"Return": {
			"abi": [
				{
					"inputs": [],
					"name": "readReturn",
					"outputs": [
						{
							"internalType": "uint256",
							"name": "",
							"type": "uint256"
						},
						{
							"internalType": "bool",
							"name": "",
							"type": "bool"
						},
						{
							"internalType": "bool",
							"name": "",
							"type": "bool"
						},
						{
							"internalType": "uint256[3]",
							"name": "",
							"type": "uint256[3]"
						}
					],
					"stateMutability": "pure",
					"type": "function"
				},
				{
					"inputs": [],
					"name": "returnNamed",
					"outputs": [
						{
							"internalType": "uint256",
							"name": "_number",
							"type": "uint256"
						},
						{
							"internalType": "bool",
							"name": "_bool",
							"type": "bool"
						},
						{
							"internalType": "uint256[3]",
							"name": "_array",
							"type": "uint256[3]"
						}
					],
					"stateMutability": "pure",
					"type": "function"
				},
				{
					"inputs": [],
					"name": "returnNamed2",
					"outputs": [
						{
							"internalType": "uint256",
							"name": "_number",
							"type": "uint256"
						},
						{
							"internalType": "bool",
							"name": "_bool",
							"type": "bool"
						},
						{
							"internalType": "uint256[3]",
							"name": "_array",
							"type": "uint256[3]"
						}
					],
					"stateMutability": "pure",
					"type": "function"
				}
			],
			"devdoc": {
				"kind": "dev",
				"methods": {},
				"version": 1
			},
			"evm": {
				"assembly": "    /* \"contracts/004_Return.sol\":65:1385  contract Return {... */\n  mstore(0x40, 0x80)\n  callvalue\n  dup1\n  iszero\n  tag_1\n  jumpi\n  0x00\n  dup1\n  revert\ntag_1:\n  pop\n  dataSize(sub_0)\n  dup1\n  dataOffset(sub_0)\n  0x00\n  codecopy\n  0x00\n  return\nstop\n\nsub_0: assembly {\n        /* \"contracts/004_Return.sol\":65:1385  contract Return {... */\n      mstore(0x40, 0x80)\n      callvalue\n      dup1\n      iszero\n      tag_1\n      jumpi\n      0x00\n      dup1\n      revert\n    tag_1:\n      pop\n      jumpi(tag_2, lt(calldatasize, 0x04))\n      shr(0xe0, calldataload(0x00))\n      dup1\n      0x3dece511\n      eq\n      tag_3\n      jumpi\n      dup1\n      0x6f590330\n      eq\n      tag_4\n      jumpi\n      dup1\n      0x8552dc08\n      eq\n      tag_5\n      jumpi\n    tag_2:\n      0x00\n      dup1\n      revert\n        /* \"contracts/004_Return.sol\":278:539  function returnNamed()... */\n    tag_3:\n      tag_6\n      tag_7\n      jump\t// in\n    tag_6:\n      mload(0x40)\n      tag_8\n      swap4\n      swap3\n      swap2\n      swap1\n      tag_9\n      jump\t// in\n    tag_8:\n      mload(0x40)\n      dup1\n      swap2\n      sub\n      swap1\n      return\n        /* \"contracts/004_Return.sol\":863:1383  function readReturn()... */\n    tag_4:\n      tag_10\n      tag_11\n      jump\t// in\n    tag_10:\n      mload(0x40)\n      tag_12\n      swap5\n      swap4\n      swap3\n      swap2\n      swap1\n      tag_13\n      jump\t// in\n    tag_12:\n      mload(0x40)\n      dup1\n      swap2\n      sub\n      swap1\n      return\n        /* \"contracts/004_Return.sol\":589:816  function returnNamed2()... */\n    tag_5:\n      tag_14\n      tag_15\n      jump\t// in\n    tag_14:\n      mload(0x40)\n      tag_16\n      swap4\n      swap3\n      swap2\n      swap1\n      tag_9\n      jump\t// in\n    tag_16:\n      mload(0x40)\n      dup1\n      swap2\n      sub\n      swap1\n      return\n        /* \"contracts/004_Return.sol\":278:539  function returnNamed()... */\n    tag_7:\n        /* \"contracts/004_Return.sol\":359:374  uint256 _number */\n      0x00\n        /* \"contracts/004_Return.sol\":388:398  bool _bool */\n      dup1\n        /* \"contracts/004_Return.sol\":412:436  uint256[3] memory _array */\n      tag_17\n      tag_18\n      jump\t// in\n    tag_17:\n        /* \"contracts/004_Return.sol\":471:472  2 */\n      0x02\n        /* \"contracts/004_Return.sol\":461:472  _number = 2 */\n      swap3\n      pop\n        /* \"contracts/004_Return.sol\":490:495  false */\n      0x00\n        /* \"contracts/004_Return.sol\":482:495  _bool = false */\n      swap2\n      pop\n        /* \"contracts/004_Return.sol\":505:532  _array = [uint256(3), 2, 1] */\n      mload(0x40)\n      dup1\n      0x60\n      add\n      0x40\n      mstore\n      dup1\n        /* \"contracts/004_Return.sol\":523:524  3 */\n      0x03\n        /* \"contracts/004_Return.sol\":505:532  _array = [uint256(3), 2, 1] */\n      dup2\n      mstore\n      0x20\n      add\n        /* \"contracts/004_Return.sol\":527:528  2 */\n      0x02\n        /* \"contracts/004_Return.sol\":505:532  _array = [uint256(3), 2, 1] */\n      dup2\n      mstore\n      0x20\n      add\n        /* \"contracts/004_Return.sol\":530:531  1 */\n      0x01\n        /* \"contracts/004_Return.sol\":505:532  _array = [uint256(3), 2, 1] */\n      dup2\n      mstore\n      pop\n      swap1\n      pop\n        /* \"contracts/004_Return.sol\":278:539  function returnNamed()... */\n      swap1\n      swap2\n      swap3\n      jump\t// out\n        /* \"contracts/004_Return.sol\":863:1383  function readReturn()... */\n    tag_11:\n        /* \"contracts/004_Return.sol\":943:950  uint256 */\n      0x00\n        /* \"contracts/004_Return.sol\":964:968  bool */\n      dup1\n        /* \"contracts/004_Return.sol\":982:986  bool */\n      0x00\n        /* \"contracts/004_Return.sol\":1000:1017  uint256[3] memory */\n      tag_20\n      tag_18\n      jump\t// in\n    tag_20:\n        /* \"contracts/004_Return.sol\":1075:1090  uint256 _number */\n      0x00\n        /* \"contracts/004_Return.sol\":1100:1110  bool _bool */\n      dup1\n        /* \"contracts/004_Return.sol\":1120:1131  bool _bool2 */\n      0x00\n        /* \"contracts/004_Return.sol\":1141:1165  uint256[3] memory _array */\n      tag_22\n      tag_18\n      jump\t// in\n    tag_22:\n        /* \"contracts/004_Return.sol\":1202:1215  returnNamed() */\n      tag_23\n        /* \"contracts/004_Return.sol\":1202:1213  returnNamed */\n      tag_7\n        /* \"contracts/004_Return.sol\":1202:1215  returnNamed() */\n      jump\t// in\n    tag_23:\n        /* \"contracts/004_Return.sol\":1175:1215  (_number, _bool, _array) = returnNamed() */\n      dup1\n      swap4\n      pop\n      dup2\n      swap6\n      pop\n      dup3\n      swap7\n      pop\n      pop\n      pop\n      pop\n        /* \"contracts/004_Return.sol\":1292:1305  returnNamed() */\n      tag_24\n        /* \"contracts/004_Return.sol\":1292:1303  returnNamed */\n      tag_7\n        /* \"contracts/004_Return.sol\":1292:1305  returnNamed() */\n      jump\t// in\n    tag_24:\n        /* \"contracts/004_Return.sol\":1277:1305  (, _bool2, ) = returnNamed() */\n      swap1\n      swap2\n      pop\n      pop\n      dup1\n      swap3\n      pop\n      pop\n        /* \"contracts/004_Return.sol\":1345:1352  _number */\n      dup4\n        /* \"contracts/004_Return.sol\":1354:1359  _bool */\n      dup4\n        /* \"contracts/004_Return.sol\":1361:1367  _bool2 */\n      dup4\n        /* \"contracts/004_Return.sol\":1369:1375  _array */\n      dup4\n        /* \"contracts/004_Return.sol\":1337:1376  return (_number, _bool, _bool2, _array) */\n      swap8\n      pop\n      swap8\n      pop\n      swap8\n      pop\n      swap8\n      pop\n      pop\n      pop\n      pop\n      pop\n        /* \"contracts/004_Return.sol\":863:1383  function readReturn()... */\n      swap1\n      swap2\n      swap3\n      swap4\n      jump\t// out\n        /* \"contracts/004_Return.sol\":589:816  function returnNamed2()... */\n    tag_15:\n        /* \"contracts/004_Return.sol\":671:686  uint256 _number */\n      0x00\n        /* \"contracts/004_Return.sol\":700:710  bool _bool */\n      dup1\n        /* \"contracts/004_Return.sol\":724:748  uint256[3] memory _array */\n      tag_25\n      tag_18\n      jump\t// in\n    tag_25:\n        /* \"contracts/004_Return.sol\":781:782  1 */\n      0x01\n        /* \"contracts/004_Return.sol\":784:788  true */\n      dup1\n        /* \"contracts/004_Return.sol\":773:809  return (1, true, [uint256(1), 2, 5]) */\n      mload(0x40)\n      dup1\n      0x60\n      add\n      0x40\n      mstore\n      dup1\n        /* \"contracts/004_Return.sol\":799:800  1 */\n      0x01\n        /* \"contracts/004_Return.sol\":773:809  return (1, true, [uint256(1), 2, 5]) */\n      dup2\n      mstore\n      0x20\n      add\n        /* \"contracts/004_Return.sol\":803:804  2 */\n      0x02\n        /* \"contracts/004_Return.sol\":773:809  return (1, true, [uint256(1), 2, 5]) */\n      dup2\n      mstore\n      0x20\n      add\n        /* \"contracts/004_Return.sol\":806:807  5 */\n      0x05\n        /* \"contracts/004_Return.sol\":773:809  return (1, true, [uint256(1), 2, 5]) */\n      dup2\n      mstore\n      pop\n      swap3\n      pop\n      swap3\n      pop\n      swap3\n      pop\n        /* \"contracts/004_Return.sol\":589:816  function returnNamed2()... */\n      swap1\n      swap2\n      swap3\n      jump\t// out\n    tag_18:\n      mload(0x40)\n      dup1\n      0x60\n      add\n      0x40\n      mstore\n      dup1\n      0x03\n      swap1\n      0x20\n      dup3\n      mul\n      dup1\n      calldatasize\n      dup4\n      calldatacopy\n      dup1\n      dup3\n      add\n      swap2\n      pop\n      pop\n      swap1\n      pop\n      pop\n      swap1\n      jump\t// out\n        /* \"#utility.yul\":7:84   */\n    tag_27:\n        /* \"#utility.yul\":44:51   */\n      0x00\n        /* \"#utility.yul\":73:78   */\n      dup2\n        /* \"#utility.yul\":62:78   */\n      swap1\n      pop\n        /* \"#utility.yul\":7:84   */\n      swap2\n      swap1\n      pop\n      jump\t// out\n        /* \"#utility.yul\":90:208   */\n    tag_28:\n        /* \"#utility.yul\":177:201   */\n      tag_41\n        /* \"#utility.yul\":195:200   */\n      dup2\n        /* \"#utility.yul\":177:201   */\n      tag_27\n      jump\t// in\n    tag_41:\n        /* \"#utility.yul\":172:175   */\n      dup3\n        /* \"#utility.yul\":165:202   */\n      mstore\n        /* \"#utility.yul\":90:208   */\n      pop\n      pop\n      jump\t// out\n        /* \"#utility.yul\":214:304   */\n    tag_29:\n        /* \"#utility.yul\":248:255   */\n      0x00\n        /* \"#utility.yul\":291:296   */\n      dup2\n        /* \"#utility.yul\":284:297   */\n      iszero\n        /* \"#utility.yul\":277:298   */\n      iszero\n        /* \"#utility.yul\":266:298   */\n      swap1\n      pop\n        /* \"#utility.yul\":214:304   */\n      swap2\n      swap1\n      pop\n      jump\t// out\n        /* \"#utility.yul\":310:419   */\n    tag_30:\n        /* \"#utility.yul\":391:412   */\n      tag_44\n        /* \"#utility.yul\":406:411   */\n      dup2\n        /* \"#utility.yul\":391:412   */\n      tag_29\n      jump\t// in\n    tag_44:\n        /* \"#utility.yul\":386:389   */\n      dup3\n        /* \"#utility.yul\":379:413   */\n      mstore\n        /* \"#utility.yul\":310:419   */\n      pop\n      pop\n      jump\t// out\n        /* \"#utility.yul\":425:529   */\n    tag_31:\n        /* \"#utility.yul\":490:496   */\n      0x00\n        /* \"#utility.yul\":518:522   */\n      0x03\n        /* \"#utility.yul\":508:522   */\n      swap1\n      pop\n        /* \"#utility.yul\":425:529   */\n      swap2\n      swap1\n      pop\n      jump\t// out\n        /* \"#utility.yul\":535:678   */\n    tag_32:\n        /* \"#utility.yul\":632:643   */\n      0x00\n        /* \"#utility.yul\":669:672   */\n      dup2\n        /* \"#utility.yul\":654:672   */\n      swap1\n      pop\n        /* \"#utility.yul\":535:678   */\n      swap3\n      swap2\n      pop\n      pop\n      jump\t// out\n        /* \"#utility.yul\":684:782   */\n    tag_33:\n        /* \"#utility.yul\":749:753   */\n      0x00\n        /* \"#utility.yul\":772:775   */\n      dup2\n        /* \"#utility.yul\":764:775   */\n      swap1\n      pop\n        /* \"#utility.yul\":684:782   */\n      swap2\n      swap1\n      pop\n      jump\t// out\n        /* \"#utility.yul\":788:896   */\n    tag_34:\n        /* \"#utility.yul\":865:889   */\n      tag_49\n        /* \"#utility.yul\":883:888   */\n      dup2\n        /* \"#utility.yul\":865:889   */\n      tag_27\n      jump\t// in\n    tag_49:\n        /* \"#utility.yul\":860:863   */\n      dup3\n        /* \"#utility.yul\":853:890   */\n      mstore\n        /* \"#utility.yul\":788:896   */\n      pop\n      pop\n      jump\t// out\n        /* \"#utility.yul\":902:1081   */\n    tag_35:\n        /* \"#utility.yul\":971:981   */\n      0x00\n        /* \"#utility.yul\":992:1038   */\n      tag_51\n        /* \"#utility.yul\":1034:1037   */\n      dup4\n        /* \"#utility.yul\":1026:1032   */\n      dup4\n        /* \"#utility.yul\":992:1038   */\n      tag_34\n      jump\t// in\n    tag_51:\n        /* \"#utility.yul\":1070:1074   */\n      0x20\n        /* \"#utility.yul\":1065:1068   */\n      dup4\n        /* \"#utility.yul\":1061:1075   */\n      add\n        /* \"#utility.yul\":1047:1075   */\n      swap1\n      pop\n        /* \"#utility.yul\":902:1081   */\n      swap3\n      swap2\n      pop\n      pop\n      jump\t// out\n        /* \"#utility.yul\":1087:1198   */\n    tag_36:\n        /* \"#utility.yul\":1155:1159   */\n      0x00\n        /* \"#utility.yul\":1187:1191   */\n      0x20\n        /* \"#utility.yul\":1182:1185   */\n      dup3\n        /* \"#utility.yul\":1178:1192   */\n      add\n        /* \"#utility.yul\":1170:1192   */\n      swap1\n      pop\n        /* \"#utility.yul\":1087:1198   */\n      swap2\n      swap1\n      pop\n      jump\t// out\n        /* \"#utility.yul\":1236:1930   */\n    tag_37:\n        /* \"#utility.yul\":1372:1424   */\n      tag_54\n        /* \"#utility.yul\":1418:1423   */\n      dup2\n        /* \"#utility.yul\":1372:1424   */\n      tag_31\n      jump\t// in\n    tag_54:\n        /* \"#utility.yul\":1440:1524   */\n      tag_55\n        /* \"#utility.yul\":1517:1523   */\n      dup2\n        /* \"#utility.yul\":1512:1515   */\n      dup5\n        /* \"#utility.yul\":1440:1524   */\n      tag_32\n      jump\t// in\n    tag_55:\n        /* \"#utility.yul\":1433:1524   */\n      swap3\n      pop\n        /* \"#utility.yul\":1548:1602   */\n      tag_56\n        /* \"#utility.yul\":1596:1601   */\n      dup3\n        /* \"#utility.yul\":1548:1602   */\n      tag_33\n      jump\t// in\n    tag_56:\n        /* \"#utility.yul\":1625:1632   */\n      dup1\n        /* \"#utility.yul\":1656:1657   */\n      0x00\n        /* \"#utility.yul\":1641:1923   */\n    tag_57:\n        /* \"#utility.yul\":1666:1672   */\n      dup4\n        /* \"#utility.yul\":1663:1664   */\n      dup2\n        /* \"#utility.yul\":1660:1673   */\n      lt\n        /* \"#utility.yul\":1641:1923   */\n      iszero\n      tag_59\n      jumpi\n        /* \"#utility.yul\":1742:1748   */\n      dup2\n        /* \"#utility.yul\":1736:1749   */\n      mload\n        /* \"#utility.yul\":1769:1832   */\n      tag_60\n        /* \"#utility.yul\":1828:1831   */\n      dup8\n        /* \"#utility.yul\":1813:1826   */\n      dup3\n        /* \"#utility.yul\":1769:1832   */\n      tag_35\n      jump\t// in\n    tag_60:\n        /* \"#utility.yul\":1762:1832   */\n      swap7\n      pop\n        /* \"#utility.yul\":1855:1913   */\n      tag_61\n        /* \"#utility.yul\":1906:1912   */\n      dup4\n        /* \"#utility.yul\":1855:1913   */\n      tag_36\n      jump\t// in\n    tag_61:\n        /* \"#utility.yul\":1845:1913   */\n      swap3\n      pop\n        /* \"#utility.yul\":1701:1923   */\n      pop\n        /* \"#utility.yul\":1688:1689   */\n      0x01\n        /* \"#utility.yul\":1685:1686   */\n      dup2\n        /* \"#utility.yul\":1681:1690   */\n      add\n        /* \"#utility.yul\":1676:1690   */\n      swap1\n      pop\n        /* \"#utility.yul\":1641:1923   */\n      jump(tag_57)\n    tag_59:\n        /* \"#utility.yul\":1645:1659   */\n      pop\n        /* \"#utility.yul\":1348:1930   */\n      pop\n      pop\n      pop\n        /* \"#utility.yul\":1236:1930   */\n      pop\n      pop\n      jump\t// out\n        /* \"#utility.yul\":1936:2459   */\n    tag_9:\n        /* \"#utility.yul\":2125:2129   */\n      0x00\n        /* \"#utility.yul\":2163:2166   */\n      0xa0\n        /* \"#utility.yul\":2152:2161   */\n      dup3\n        /* \"#utility.yul\":2148:2167   */\n      add\n        /* \"#utility.yul\":2140:2167   */\n      swap1\n      pop\n        /* \"#utility.yul\":2177:2248   */\n      tag_63\n        /* \"#utility.yul\":2245:2246   */\n      0x00\n        /* \"#utility.yul\":2234:2243   */\n      dup4\n        /* \"#utility.yul\":2230:2247   */\n      add\n        /* \"#utility.yul\":2221:2227   */\n      dup7\n        /* \"#utility.yul\":2177:2248   */\n      tag_28\n      jump\t// in\n    tag_63:\n        /* \"#utility.yul\":2258:2324   */\n      tag_64\n        /* \"#utility.yul\":2320:2322   */\n      0x20\n        /* \"#utility.yul\":2309:2318   */\n      dup4\n        /* \"#utility.yul\":2305:2323   */\n      add\n        /* \"#utility.yul\":2296:2302   */\n      dup6\n        /* \"#utility.yul\":2258:2324   */\n      tag_30\n      jump\t// in\n    tag_64:\n        /* \"#utility.yul\":2334:2452   */\n      tag_65\n        /* \"#utility.yul\":2448:2450   */\n      0x40\n        /* \"#utility.yul\":2437:2446   */\n      dup4\n        /* \"#utility.yul\":2433:2451   */\n      add\n        /* \"#utility.yul\":2424:2430   */\n      dup5\n        /* \"#utility.yul\":2334:2452   */\n      tag_37\n      jump\t// in\n    tag_65:\n        /* \"#utility.yul\":1936:2459   */\n      swap5\n      swap4\n      pop\n      pop\n      pop\n      pop\n      jump\t// out\n        /* \"#utility.yul\":2465:3086   */\n    tag_13:\n        /* \"#utility.yul\":2676:2680   */\n      0x00\n        /* \"#utility.yul\":2714:2717   */\n      0xc0\n        /* \"#utility.yul\":2703:2712   */\n      dup3\n        /* \"#utility.yul\":2699:2718   */\n      add\n        /* \"#utility.yul\":2691:2718   */\n      swap1\n      pop\n        /* \"#utility.yul\":2728:2799   */\n      tag_67\n        /* \"#utility.yul\":2796:2797   */\n      0x00\n        /* \"#utility.yul\":2785:2794   */\n      dup4\n        /* \"#utility.yul\":2781:2798   */\n      add\n        /* \"#utility.yul\":2772:2778   */\n      dup8\n        /* \"#utility.yul\":2728:2799   */\n      tag_28\n      jump\t// in\n    tag_67:\n        /* \"#utility.yul\":2809:2875   */\n      tag_68\n        /* \"#utility.yul\":2871:2873   */\n      0x20\n        /* \"#utility.yul\":2860:2869   */\n      dup4\n        /* \"#utility.yul\":2856:2874   */\n      add\n        /* \"#utility.yul\":2847:2853   */\n      dup7\n        /* \"#utility.yul\":2809:2875   */\n      tag_30\n      jump\t// in\n    tag_68:\n        /* \"#utility.yul\":2885:2951   */\n      tag_69\n        /* \"#utility.yul\":2947:2949   */\n      0x40\n        /* \"#utility.yul\":2936:2945   */\n      dup4\n        /* \"#utility.yul\":2932:2950   */\n      add\n        /* \"#utility.yul\":2923:2929   */\n      dup6\n        /* \"#utility.yul\":2885:2951   */\n      tag_30\n      jump\t// in\n    tag_69:\n        /* \"#utility.yul\":2961:3079   */\n      tag_70\n        /* \"#utility.yul\":3075:3077   */\n      0x60\n        /* \"#utility.yul\":3064:3073   */\n      dup4\n        /* \"#utility.yul\":3060:3078   */\n      add\n        /* \"#utility.yul\":3051:3057   */\n      dup5\n        /* \"#utility.yul\":2961:3079   */\n      tag_37\n      jump\t// in\n    tag_70:\n        /* \"#utility.yul\":2465:3086   */\n      swap6\n      swap5\n      pop\n      pop\n      pop\n      pop\n      pop\n      jump\t// out\n\n    auxdata: 0xa2646970667358221220d987cad68ef65fc667321e64ccda3686d6ee710913ebe4939673adceb38d03d564736f6c63430008160033\n}\n",
				"bytecode": {
					"linkReferences": {},
					"object": "608060405234801561000f575f80fd5b506103078061001d5f395ff3fe608060405234801561000f575f80fd5b506004361061003f575f3560e01c80633dece511146100435780636f590330146100635780638552dc0814610084575b5f80fd5b61004b6100a4565b60405161005a93929190610259565b60405180910390f35b61006b6100da565b60405161007b949392919061028e565b60405180910390f35b61008c61012a565b60405161009b93929190610259565b60405180910390f35b5f806100ae610160565b600292505f91506040518060600160405280600381526020016002815260200160018152509050909192565b5f805f6100e5610160565b5f805f6100f0610160565b6100f86100a4565b80935081955082965050505061010c6100a4565b90915050809250508383838397509750975097505050505090919293565b5f80610134610160565b600180604051806060016040528060018152602001600281526020016005815250925092509250909192565b6040518060600160405280600390602082028036833780820191505090505090565b5f819050919050565b61019481610182565b82525050565b5f8115159050919050565b6101ae8161019a565b82525050565b5f60039050919050565b5f81905092915050565b5f819050919050565b6101da81610182565b82525050565b5f6101eb83836101d1565b60208301905092915050565b5f602082019050919050565b61020c816101b4565b61021681846101be565b9250610221826101c8565b805f5b8381101561025157815161023887826101e0565b9650610243836101f7565b925050600181019050610224565b505050505050565b5f60a08201905061026c5f83018661018b565b61027960208301856101a5565b6102866040830184610203565b949350505050565b5f60c0820190506102a15f83018761018b565b6102ae60208301866101a5565b6102bb60408301856101a5565b6102c86060830184610203565b9594505050505056fea2646970667358221220d987cad68ef65fc667321e64ccda3686d6ee710913ebe4939673adceb38d03d564736f6c63430008160033",
					"opcodes": "PUSH1 0x80 PUSH1 0x40 MSTORE CALLVALUE DUP1 ISZERO PUSH2 0xF JUMPI PUSH0 DUP1 REVERT JUMPDEST POP PUSH2 0x307 DUP1 PUSH2 0x1D PUSH0 CODECOPY PUSH0 RETURN INVALID PUSH1 0x80 PUSH1 0x40 MSTORE CALLVALUE DUP1 ISZERO PUSH2 0xF JUMPI PUSH0 DUP1 REVERT JUMPDEST POP PUSH1 0x4 CALLDATASIZE LT PUSH2 0x3F JUMPI PUSH0 CALLDATALOAD PUSH1 0xE0 SHR DUP1 PUSH4 0x3DECE511 EQ PUSH2 0x43 JUMPI DUP1 PUSH4 0x6F590330 EQ PUSH2 0x63 JUMPI DUP1 PUSH4 0x8552DC08 EQ PUSH2 0x84 JUMPI JUMPDEST PUSH0 DUP1 REVERT JUMPDEST PUSH2 0x4B PUSH2 0xA4 JUMP JUMPDEST PUSH1 0x40 MLOAD PUSH2 0x5A SWAP4 SWAP3 SWAP2 SWAP1 PUSH2 0x259 JUMP JUMPDEST PUSH1 0x40 MLOAD DUP1 SWAP2 SUB SWAP1 RETURN JUMPDEST PUSH2 0x6B PUSH2 0xDA JUMP JUMPDEST PUSH1 0x40 MLOAD PUSH2 0x7B SWAP5 SWAP4 SWAP3 SWAP2 SWAP1 PUSH2 0x28E JUMP JUMPDEST PUSH1 0x40 MLOAD DUP1 SWAP2 SUB SWAP1 RETURN JUMPDEST PUSH2 0x8C PUSH2 0x12A JUMP JUMPDEST PUSH1 0x40 MLOAD PUSH2 0x9B SWAP4 SWAP3 SWAP2 SWAP1 PUSH2 0x259 JUMP JUMPDEST PUSH1 0x40 MLOAD DUP1 SWAP2 SUB SWAP1 RETURN JUMPDEST PUSH0 DUP1 PUSH2 0xAE PUSH2 0x160 JUMP JUMPDEST PUSH1 0x2 SWAP3 POP PUSH0 SWAP2 POP PUSH1 0x40 MLOAD DUP1 PUSH1 0x60 ADD PUSH1 0x40 MSTORE DUP1 PUSH1 0x3 DUP2 MSTORE PUSH1 0x20 ADD PUSH1 0x2 DUP2 MSTORE PUSH1 0x20 ADD PUSH1 0x1 DUP2 MSTORE POP SWAP1 POP SWAP1 SWAP2 SWAP3 JUMP JUMPDEST PUSH0 DUP1 PUSH0 PUSH2 0xE5 PUSH2 0x160 JUMP JUMPDEST PUSH0 DUP1 PUSH0 PUSH2 0xF0 PUSH2 0x160 JUMP JUMPDEST PUSH2 0xF8 PUSH2 0xA4 JUMP JUMPDEST DUP1 SWAP4 POP DUP2 SWAP6 POP DUP3 SWAP7 POP POP POP POP PUSH2 0x10C PUSH2 0xA4 JUMP JUMPDEST SWAP1 SWAP2 POP POP DUP1 SWAP3 POP POP DUP4 DUP4 DUP4 DUP4 SWAP8 POP SWAP8 POP SWAP8 POP SWAP8 POP POP POP POP POP SWAP1 SWAP2 SWAP3 SWAP4 JUMP JUMPDEST PUSH0 DUP1 PUSH2 0x134 PUSH2 0x160 JUMP JUMPDEST PUSH1 0x1 DUP1 PUSH1 0x40 MLOAD DUP1 PUSH1 0x60 ADD PUSH1 0x40 MSTORE DUP1 PUSH1 0x1 DUP2 MSTORE PUSH1 0x20 ADD PUSH1 0x2 DUP2 MSTORE PUSH1 0x20 ADD PUSH1 0x5 DUP2 MSTORE POP SWAP3 POP SWAP3 POP SWAP3 POP SWAP1 SWAP2 SWAP3 JUMP JUMPDEST PUSH1 0x40 MLOAD DUP1 PUSH1 0x60 ADD PUSH1 0x40 MSTORE DUP1 PUSH1 0x3 SWAP1 PUSH1 0x20 DUP3 MUL DUP1 CALLDATASIZE DUP4 CALLDATACOPY DUP1 DUP3 ADD SWAP2 POP POP SWAP1 POP POP SWAP1 JUMP JUMPDEST PUSH0 DUP2 SWAP1 POP SWAP2 SWAP1 POP JUMP JUMPDEST PUSH2 0x194 DUP2 PUSH2 0x182 JUMP JUMPDEST DUP3 MSTORE POP POP JUMP JUMPDEST PUSH0 DUP2 ISZERO ISZERO SWAP1 POP SWAP2 SWAP1 POP JUMP JUMPDEST PUSH2 0x1AE DUP2 PUSH2 0x19A JUMP JUMPDEST DUP3 MSTORE POP POP JUMP JUMPDEST PUSH0 PUSH1 0x3 SWAP1 POP SWAP2 SWAP1 POP JUMP JUMPDEST PUSH0 DUP2 SWAP1 POP SWAP3 SWAP2 POP POP JUMP JUMPDEST PUSH0 DUP2 SWAP1 POP SWAP2 SWAP1 POP JUMP JUMPDEST PUSH2 0x1DA DUP2 PUSH2 0x182 JUMP JUMPDEST DUP3 MSTORE POP POP JUMP JUMPDEST PUSH0 PUSH2 0x1EB DUP4 DUP4 PUSH2 0x1D1 JUMP JUMPDEST PUSH1 0x20 DUP4 ADD SWAP1 POP SWAP3 SWAP2 POP POP JUMP JUMPDEST PUSH0 PUSH1 0x20 DUP3 ADD SWAP1 POP SWAP2 SWAP1 POP JUMP JUMPDEST PUSH2 0x20C DUP2 PUSH2 0x1B4 JUMP JUMPDEST PUSH2 0x216 DUP2 DUP5 PUSH2 0x1BE JUMP JUMPDEST SWAP3 POP PUSH2 0x221 DUP3 PUSH2 0x1C8 JUMP JUMPDEST DUP1 PUSH0 JUMPDEST DUP4 DUP2 LT ISZERO PUSH2 0x251 JUMPI DUP2 MLOAD PUSH2 0x238 DUP8 DUP3 PUSH2 0x1E0 JUMP JUMPDEST SWAP7 POP PUSH2 0x243 DUP4 PUSH2 0x1F7 JUMP JUMPDEST SWAP3 POP POP PUSH1 0x1 DUP2 ADD SWAP1 POP PUSH2 0x224 JUMP JUMPDEST POP POP POP POP POP POP JUMP JUMPDEST PUSH0 PUSH1 0xA0 DUP3 ADD SWAP1 POP PUSH2 0x26C PUSH0 DUP4 ADD DUP7 PUSH2 0x18B JUMP JUMPDEST PUSH2 0x279 PUSH1 0x20 DUP4 ADD DUP6 PUSH2 0x1A5 JUMP JUMPDEST PUSH2 0x286 PUSH1 0x40 DUP4 ADD DUP5 PUSH2 0x203 JUMP JUMPDEST SWAP5 SWAP4 POP POP POP POP JUMP JUMPDEST PUSH0 PUSH1 0xC0 DUP3 ADD SWAP1 POP PUSH2 0x2A1 PUSH0 DUP4 ADD DUP8 PUSH2 0x18B JUMP JUMPDEST PUSH2 0x2AE PUSH1 0x20 DUP4 ADD DUP7 PUSH2 0x1A5 JUMP JUMPDEST PUSH2 0x2BB PUSH1 0x40 DUP4 ADD DUP6 PUSH2 0x1A5 JUMP JUMPDEST PUSH2 0x2C8 PUSH1 0x60 DUP4 ADD DUP5 PUSH2 0x203 JUMP JUMPDEST SWAP6 SWAP5 POP POP POP POP POP JUMP INVALID LOG2 PUSH5 0x6970667358 0x22 SLT KECCAK256 0xD9 DUP8 0xCA 0xD6 DUP15 0xF6 PUSH0 0xC6 PUSH8 0x321E64CCDA3686D6 0xEE PUSH18 0x913EBE4939673ADCEB38D03D564736F6C63 NUMBER STOP ADDMOD AND STOP CALLER "
				},
				"gasEstimates": {
					"creation": {
						"codeDepositCost": "155000",
						"executionCost": "200",
						"totalCost": "155200"
					},
					"external": {
						"readReturn()": "infinite",
						"returnNamed()": "infinite",
						"returnNamed2()": "infinite"
					}
				},
				"methodIdentifiers": {
					"readReturn()": "6f590330",
					"returnNamed()": "3dece511",
					"returnNamed2()": "8552dc08"
				}
			},
			"storageLayout": {
				"storage": [],
				"types": null
			},
			"userdoc": {
				"kind": "user",
				"methods": {},
				"version": 1
			}
		}
	}
}