{
	"contracts/006_Variables.sol": {
		"Variables": {
			"abi": [
				{
					"inputs": [],
					"name": "daysUnit",
					"outputs": [
						{
							"internalType": "uint256",
							"name": "",
							"type": "uint256"
						}
					],
					"stateMutability": "pure",
					"type": "function"
				},
				{
					"inputs": [],
					"name": "etherUnit",
					"outputs": [
						{
							"internalType": "uint256",
							"name": "",
							"type": "uint256"
						}
					],
					"stateMutability": "pure",
					"type": "function"
				},
				{
					"inputs": [],
					"name": "foo",
					"outputs": [],
					"stateMutability": "nonpayable",
					"type": "function"
				},
				{
					"inputs": [],
					"name": "getValues",
					"outputs": [
						{
							"internalType": "uint256",
							"name": "",
							"type": "uint256"
						},
						{
							"internalType": "uint256",
							"name": "",
							"type": "uint256"
						},
						{
							"internalType": "string",
							"name": "",
							"type": "string"
						}
					],
					"stateMutability": "view",
					"type": "function"
				},
				{
					"inputs": [],
					"name": "global",
					"outputs": [
						{
							"internalType": "address",
							"name": "",
							"type": "address"
						},
						{
							"internalType": "uint256",
							"name": "",
							"type": "uint256"
						},
						{
							"internalType": "bytes",
							"name": "",
							"type": "bytes"
						}
					],
					"stateMutability": "view",
					"type": "function"
				},
				{
					"inputs": [],
					"name": "gweiUnit",
					"outputs": [
						{
							"internalType": "uint256",
							"name": "",
							"type": "uint256"
						}
					],
					"stateMutability": "pure",
					"type": "function"
				},
				{
					"inputs": [],
					"name": "hoursUnit",
					"outputs": [
						{
							"internalType": "uint256",
							"name": "",
							"type": "uint256"
						}
					],
					"stateMutability": "pure",
					"type": "function"
				},
				{
					"inputs": [],
					"name": "minutesUnit",
					"outputs": [
						{
							"internalType": "uint256",
							"name": "",
							"type": "uint256"
						}
					],
					"stateMutability": "pure",
					"type": "function"
				},
				{
					"inputs": [],
					"name": "secondsUnit",
					"outputs": [
						{
							"internalType": "uint256",
							"name": "",
							"type": "uint256"
						}
					],
					"stateMutability": "pure",
					"type": "function"
				},
				{
					"inputs": [],
					"name": "weeksUnit",
					"outputs": [
						{
							"internalType": "uint256",
							"name": "",
							"type": "uint256"
						}
					],
					"stateMutability": "pure",
					"type": "function"
				},
				{
					"inputs": [],
					"name": "weiUnit",
					"outputs": [
						{
							"internalType": "uint256",
							"name": "",
							"type": "uint256"
						}
					],
					"stateMutability": "pure",
					"type": "function"
				},
				{
					"inputs": [],
					"name": "x",
					"outputs": [
						{
							"internalType": "uint256",
							"name": "",
							"type": "uint256"
						}
					],
					"stateMutability": "view",
					"type": "function"
				},
				{
					"inputs": [],
					"name": "y",
					"outputs": [
						{
							"internalType": "uint256",
							"name": "",
							"type": "uint256"
						}
					],
					"stateMutability": "view",
					"type": "function"
				},
				{
					"inputs": [],
					"name": "z",
					"outputs": [
						{
							"internalType": "string",
							"name": "",
							"type": "string"
						}
					],
					"stateMutability": "view",
					"type": "function"
				}
			],
			"devdoc": {
				"kind": "dev",
				"methods": {},
				"version": 1
			},
			"evm": {
				"assembly": "    /* \"contracts/006_Variables.sol\":65:2084  contract Variables {... */\n  mstore(0x40, 0x80)\n    /* \"contracts/006_Variables.sol\":109:110  1 */\n  0x01\n    /* \"contracts/006_Variables.sol\":90:110  uint256 public x = 1 */\n  0x00\n  sstore\n    /* \"contracts/006_Variables.sol\":65:2084  contract Variables {... */\n  callvalue\n  dup1\n  iszero\n  tag_1\n  jumpi\n  0x00\n  dup1\n  revert\ntag_1:\n  pop\n  dataSize(sub_0)\n  dup1\n  dataOffset(sub_0)\n  0x00\n  codecopy\n  0x00\n  return\nstop\n\nsub_0: assembly {\n        /* \"contracts/006_Variables.sol\":65:2084  contract Variables {... */\n      mstore(0x40, 0x80)\n      callvalue\n      dup1\n      iszero\n      tag_1\n      jumpi\n      0x00\n      dup1\n      revert\n    tag_1:\n      pop\n      jumpi(tag_2, lt(calldatasize, 0x04))\n      shr(0xe0, calldataload(0x00))\n      dup1\n      0xa56dfe4a\n      gt\n      tag_17\n      jumpi\n      dup1\n      0xc2985578\n      gt\n      tag_18\n      jumpi\n      dup1\n      0xc2985578\n      eq\n      tag_13\n      jumpi\n      dup1\n      0xc5d7802e\n      eq\n      tag_14\n      jumpi\n      dup1\n      0xcb9f1220\n      eq\n      tag_15\n      jumpi\n      dup1\n      0xf1e6d198\n      eq\n      tag_16\n      jumpi\n      jump(tag_2)\n    tag_18:\n      dup1\n      0xa56dfe4a\n      eq\n      tag_10\n      jumpi\n      dup1\n      0xaec3d640\n      eq\n      tag_11\n      jumpi\n      dup1\n      0xbe44f864\n      eq\n      tag_12\n      jumpi\n      jump(tag_2)\n    tag_17:\n      dup1\n      0x19eb4a90\n      gt\n      tag_19\n      jumpi\n      dup1\n      0x19eb4a90\n      eq\n      tag_6\n      jumpi\n      dup1\n      0x2aca45f1\n      eq\n      tag_7\n      jumpi\n      dup1\n      0xa05f9906\n      eq\n      tag_8\n      jumpi\n      dup1\n      0xa0d0d59e\n      eq\n      tag_9\n      jumpi\n      jump(tag_2)\n    tag_19:\n      dup1\n      0x09879682\n      eq\n      tag_3\n      jumpi\n      dup1\n      0x0c55699c\n      eq\n      tag_4\n      jumpi\n      dup1\n      0x12176349\n      eq\n      tag_5\n      jumpi\n    tag_2:\n      0x00\n      dup1\n      revert\n        /* \"contracts/006_Variables.sol\":1315:1435  function secondsUnit() external pure returns (uint256) {... */\n    tag_3:\n      tag_20\n      tag_21\n      jump\t// in\n    tag_20:\n      mload(0x40)\n      tag_22\n      swap2\n      swap1\n      tag_23\n      jump\t// in\n    tag_22:\n      mload(0x40)\n      dup1\n      swap2\n      sub\n      swap1\n      return\n        /* \"contracts/006_Variables.sol\":90:110  uint256 public x = 1 */\n    tag_4:\n      tag_24\n      tag_25\n      jump\t// in\n    tag_24:\n      mload(0x40)\n      tag_26\n      swap2\n      swap1\n      tag_23\n      jump\t// in\n    tag_26:\n      mload(0x40)\n      dup1\n      swap2\n      sub\n      swap1\n      return\n        /* \"contracts/006_Variables.sol\":843:981  function weiUnit() external pure returns (uint256) {... */\n    tag_5:\n      tag_27\n      tag_28\n      jump\t// in\n    tag_27:\n      mload(0x40)\n      tag_29\n      swap2\n      swap1\n      tag_23\n      jump\t// in\n    tag_29:\n      mload(0x40)\n      dup1\n      swap2\n      sub\n      swap1\n      return\n        /* \"contracts/006_Variables.sol\":336:520  function getValues()... */\n    tag_6:\n      tag_30\n      tag_31\n      jump\t// in\n    tag_30:\n      mload(0x40)\n      tag_32\n      swap4\n      swap3\n      swap2\n      swap1\n      tag_33\n      jump\t// in\n    tag_32:\n      mload(0x40)\n      dup1\n      swap2\n      sub\n      swap1\n      return\n        /* \"contracts/006_Variables.sol\":1928:2082  function weeksUnit() external pure returns (uint256) {... */\n    tag_7:\n      tag_34\n      tag_35\n      jump\t// in\n    tag_34:\n      mload(0x40)\n      tag_36\n      swap2\n      swap1\n      tag_23\n      jump\t// in\n    tag_36:\n      mload(0x40)\n      dup1\n      swap2\n      sub\n      swap1\n      return\n        /* \"contracts/006_Variables.sol\":526:837  function global()... */\n    tag_8:\n      tag_37\n      tag_38\n      jump\t// in\n    tag_37:\n      mload(0x40)\n      tag_39\n      swap4\n      swap3\n      swap2\n      swap1\n      tag_40\n      jump\t// in\n    tag_39:\n      mload(0x40)\n      dup1\n      swap2\n      sub\n      swap1\n      return\n        /* \"contracts/006_Variables.sol\":1771:1922  function daysUnit() external pure returns (uint256) {... */\n    tag_9:\n      tag_41\n      tag_42\n      jump\t// in\n    tag_41:\n      mload(0x40)\n      tag_43\n      swap2\n      swap1\n      tag_23\n      jump\t// in\n    tag_43:\n      mload(0x40)\n      dup1\n      swap2\n      sub\n      swap1\n      return\n        /* \"contracts/006_Variables.sol\":116:132  uint256 public y */\n    tag_10:\n      tag_44\n      tag_45\n      jump\t// in\n    tag_44:\n      mload(0x40)\n      tag_46\n      swap2\n      swap1\n      tag_23\n      jump\t// in\n    tag_46:\n      mload(0x40)\n      dup1\n      swap2\n      sub\n      swap1\n      return\n        /* \"contracts/006_Variables.sol\":987:1138  function gweiUnit() external pure returns (uint256) {... */\n    tag_11:\n      tag_47\n      tag_48\n      jump\t// in\n    tag_47:\n      mload(0x40)\n      tag_49\n      swap2\n      swap1\n      tag_23\n      jump\t// in\n    tag_49:\n      mload(0x40)\n      dup1\n      swap2\n      sub\n      swap1\n      return\n        /* \"contracts/006_Variables.sol\":1609:1765  function hoursUnit() external pure returns (uint256) {... */\n    tag_12:\n      tag_50\n      tag_51\n      jump\t// in\n    tag_50:\n      mload(0x40)\n      tag_52\n      swap2\n      swap1\n      tag_23\n      jump\t// in\n    tag_52:\n      mload(0x40)\n      dup1\n      swap2\n      sub\n      swap1\n      return\n        /* \"contracts/006_Variables.sol\":160:305  function foo() external {... */\n    tag_13:\n      tag_53\n      tag_54\n      jump\t// in\n    tag_53:\n      stop\n        /* \"contracts/006_Variables.sol\":138:153  string public z */\n    tag_14:\n      tag_55\n      tag_56\n      jump\t// in\n    tag_55:\n      mload(0x40)\n      tag_57\n      swap2\n      swap1\n      tag_58\n      jump\t// in\n    tag_57:\n      mload(0x40)\n      dup1\n      swap2\n      sub\n      swap1\n      return\n        /* \"contracts/006_Variables.sol\":1144:1309  function etherUnit() external pure returns (uint256) {... */\n    tag_15:\n      tag_59\n      tag_60\n      jump\t// in\n    tag_59:\n      mload(0x40)\n      tag_61\n      swap2\n      swap1\n      tag_23\n      jump\t// in\n    tag_61:\n      mload(0x40)\n      dup1\n      swap2\n      sub\n      swap1\n      return\n        /* \"contracts/006_Variables.sol\":1441:1603  function minutesUnit() external pure returns (uint256) {... */\n    tag_16:\n      tag_62\n      tag_63\n      jump\t// in\n    tag_62:\n      mload(0x40)\n      tag_64\n      swap2\n      swap1\n      tag_23\n      jump\t// in\n    tag_64:\n      mload(0x40)\n      dup1\n      swap2\n      sub\n      swap1\n      return\n        /* \"contracts/006_Variables.sol\":1315:1435  function secondsUnit() external pure returns (uint256) {... */\n    tag_21:\n        /* \"contracts/006_Variables.sol\":1361:1368  uint256 */\n      0x00\n        /* \"contracts/006_Variables.sol\":1400:1401  1 */\n      0x01\n        /* \"contracts/006_Variables.sol\":1387:1396  1 seconds */\n      dup1\n        /* \"contracts/006_Variables.sol\":1387:1401  1 seconds == 1 */\n      eq\n        /* \"contracts/006_Variables.sol\":1380:1402  assert(1 seconds == 1) */\n      tag_66\n      jumpi\n      tag_67\n      tag_68\n      jump\t// in\n    tag_67:\n    tag_66:\n        /* \"contracts/006_Variables.sol\":1419:1428  1 seconds */\n      0x01\n        /* \"contracts/006_Variables.sol\":1412:1428  return 1 seconds */\n      swap1\n      pop\n        /* \"contracts/006_Variables.sol\":1315:1435  function secondsUnit() external pure returns (uint256) {... */\n      swap1\n      jump\t// out\n        /* \"contracts/006_Variables.sol\":90:110  uint256 public x = 1 */\n    tag_25:\n      sload(0x00)\n      dup2\n      jump\t// out\n        /* \"contracts/006_Variables.sol\":843:981  function weiUnit() external pure returns (uint256) {... */\n    tag_28:\n        /* \"contracts/006_Variables.sol\":885:892  uint256 */\n      0x00\n        /* \"contracts/006_Variables.sol\":920:923  1e0 */\n      0x01\n        /* \"contracts/006_Variables.sol\":911:916  1 wei */\n      dup1\n        /* \"contracts/006_Variables.sol\":911:923  1 wei == 1e0 */\n      eq\n        /* \"contracts/006_Variables.sol\":904:924  assert(1 wei == 1e0) */\n      tag_70\n      jumpi\n      tag_71\n      tag_68\n      jump\t// in\n    tag_71:\n    tag_70:\n        /* \"contracts/006_Variables.sol\":950:951  1 */\n      0x01\n        /* \"contracts/006_Variables.sol\":941:946  1 wei */\n      dup1\n        /* \"contracts/006_Variables.sol\":941:951  1 wei == 1 */\n      eq\n        /* \"contracts/006_Variables.sol\":934:952  assert(1 wei == 1) */\n      tag_72\n      jumpi\n      tag_73\n      tag_68\n      jump\t// in\n    tag_73:\n    tag_72:\n        /* \"contracts/006_Variables.sol\":969:974  1 wei */\n      0x01\n        /* \"contracts/006_Variables.sol\":962:974  return 1 wei */\n      swap1\n      pop\n        /* \"contracts/006_Variables.sol\":843:981  function weiUnit() external pure returns (uint256) {... */\n      swap1\n      jump\t// out\n        /* \"contracts/006_Variables.sol\":336:520  function getValues()... */\n    tag_31:\n        /* \"contracts/006_Variables.sol\":417:424  uint256 */\n      0x00\n        /* \"contracts/006_Variables.sol\":438:445  uint256 */\n      dup1\n        /* \"contracts/006_Variables.sol\":459:472  string memory */\n      0x60\n        /* \"contracts/006_Variables.sol\":505:506  x */\n      sload(0x00)\n        /* \"contracts/006_Variables.sol\":508:509  y */\n      sload(0x01)\n        /* \"contracts/006_Variables.sol\":511:512  z */\n      0x02\n        /* \"contracts/006_Variables.sol\":497:513  return (x, y, z) */\n      dup1\n      dup1\n      sload\n      tag_75\n      swap1\n      tag_76\n      jump\t// in\n    tag_75:\n      dup1\n      0x1f\n      add\n      0x20\n      dup1\n      swap2\n      div\n      mul\n      0x20\n      add\n      mload(0x40)\n      swap1\n      dup2\n      add\n      0x40\n      mstore\n      dup1\n      swap3\n      swap2\n      swap1\n      dup2\n      dup2\n      mstore\n      0x20\n      add\n      dup3\n      dup1\n      sload\n      tag_77\n      swap1\n      tag_76\n      jump\t// in\n    tag_77:\n      dup1\n      iszero\n      tag_78\n      jumpi\n      dup1\n      0x1f\n      lt\n      tag_79\n      jumpi\n      0x0100\n      dup1\n      dup4\n      sload\n      div\n      mul\n      dup4\n      mstore\n      swap2\n      0x20\n      add\n      swap2\n      jump(tag_78)\n    tag_79:\n      dup3\n      add\n      swap2\n      swap1\n      0x00\n      mstore\n      keccak256(0x00, 0x20)\n      swap1\n    tag_80:\n      dup2\n      sload\n      dup2\n      mstore\n      swap1\n      0x01\n      add\n      swap1\n      0x20\n      add\n      dup1\n      dup4\n      gt\n      tag_80\n      jumpi\n      dup3\n      swap1\n      sub\n      0x1f\n      and\n      dup3\n      add\n      swap2\n    tag_78:\n      pop\n      pop\n      pop\n      pop\n      pop\n      swap1\n      pop\n      swap3\n      pop\n      swap3\n      pop\n      swap3\n      pop\n        /* \"contracts/006_Variables.sol\":336:520  function getValues()... */\n      swap1\n      swap2\n      swap3\n      jump\t// out\n        /* \"contracts/006_Variables.sol\":1928:2082  function weeksUnit() external pure returns (uint256) {... */\n    tag_35:\n        /* \"contracts/006_Variables.sol\":1972:1979  uint256 */\n      0x00\n        /* \"contracts/006_Variables.sol\":2009:2015  604800 */\n      0x093a80\n        /* \"contracts/006_Variables.sol\":1998:2005  1 weeks */\n      dup1\n        /* \"contracts/006_Variables.sol\":1998:2015  1 weeks == 604800 */\n      eq\n        /* \"contracts/006_Variables.sol\":1991:2016  assert(1 weeks == 604800) */\n      tag_82\n      jumpi\n      tag_83\n      tag_68\n      jump\t// in\n    tag_83:\n    tag_82:\n        /* \"contracts/006_Variables.sol\":2044:2050  7 days */\n      0x093a80\n        /* \"contracts/006_Variables.sol\":2033:2040  1 weeks */\n      dup1\n        /* \"contracts/006_Variables.sol\":2033:2050  1 weeks == 7 days */\n      eq\n        /* \"contracts/006_Variables.sol\":2026:2051  assert(1 weeks == 7 days) */\n      tag_84\n      jumpi\n      tag_85\n      tag_68\n      jump\t// in\n    tag_85:\n    tag_84:\n        /* \"contracts/006_Variables.sol\":2068:2075  1 weeks */\n      0x093a80\n        /* \"contracts/006_Variables.sol\":2061:2075  return 1 weeks */\n      swap1\n      pop\n        /* \"contracts/006_Variables.sol\":1928:2082  function weeksUnit() external pure returns (uint256) {... */\n      swap1\n      jump\t// out\n        /* \"contracts/006_Variables.sol\":526:837  function global()... */\n    tag_38:\n        /* \"contracts/006_Variables.sol\":604:611  address */\n      0x00\n        /* \"contracts/006_Variables.sol\":625:632  uint256 */\n      dup1\n        /* \"contracts/006_Variables.sol\":646:658  bytes memory */\n      0x60\n        /* \"contracts/006_Variables.sol\":683:697  address sender */\n      0x00\n        /* \"contracts/006_Variables.sol\":700:710  msg.sender */\n      caller\n        /* \"contracts/006_Variables.sol\":683:710  address sender = msg.sender */\n      swap1\n      pop\n        /* \"contracts/006_Variables.sol\":720:736  uint256 blockNum */\n      0x00\n        /* \"contracts/006_Variables.sol\":739:751  block.number */\n      number\n        /* \"contracts/006_Variables.sol\":720:751  uint256 blockNum = block.number */\n      swap1\n      pop\n        /* \"contracts/006_Variables.sol\":761:778  bytes memory data */\n      0x00\n        /* \"contracts/006_Variables.sol\":781:789  msg.data */\n      dup1\n      calldatasize\n        /* \"contracts/006_Variables.sol\":761:789  bytes memory data = msg.data */\n      dup1\n      dup1\n      0x1f\n      add\n      0x20\n      dup1\n      swap2\n      div\n      mul\n      0x20\n      add\n      mload(0x40)\n      swap1\n      dup2\n      add\n      0x40\n      mstore\n      dup1\n      swap4\n      swap3\n      swap2\n      swap1\n      dup2\n      dup2\n      mstore\n      0x20\n      add\n      dup4\n      dup4\n      dup1\n      dup3\n      dup5\n      calldatacopy\n      0x00\n      dup2\n      dup5\n      add\n      mstore\n      not(0x1f)\n      0x1f\n      dup3\n      add\n      and\n      swap1\n      pop\n      dup1\n      dup4\n      add\n      swap3\n      pop\n      pop\n      pop\n      pop\n      pop\n      pop\n      pop\n      swap1\n      pop\n        /* \"contracts/006_Variables.sol\":807:813  sender */\n      dup3\n        /* \"contracts/006_Variables.sol\":815:823  blockNum */\n      dup3\n        /* \"contracts/006_Variables.sol\":825:829  data */\n      dup3\n        /* \"contracts/006_Variables.sol\":799:830  return (sender, blockNum, data) */\n      swap6\n      pop\n      swap6\n      pop\n      swap6\n      pop\n      pop\n      pop\n      pop\n        /* \"contracts/006_Variables.sol\":526:837  function global()... */\n      swap1\n      swap2\n      swap3\n      jump\t// out\n        /* \"contracts/006_Variables.sol\":1771:1922  function daysUnit() external pure returns (uint256) {... */\n    tag_42:\n        /* \"contracts/006_Variables.sol\":1814:1821  uint256 */\n      0x00\n        /* \"contracts/006_Variables.sol\":1850:1855  86400 */\n      0x015180\n        /* \"contracts/006_Variables.sol\":1840:1846  1 days */\n      dup1\n        /* \"contracts/006_Variables.sol\":1840:1855  1 days == 86400 */\n      eq\n        /* \"contracts/006_Variables.sol\":1833:1856  assert(1 days == 86400) */\n      tag_88\n      jumpi\n      tag_89\n      tag_68\n      jump\t// in\n    tag_89:\n    tag_88:\n        /* \"contracts/006_Variables.sol\":1883:1891  24 hours */\n      0x015180\n        /* \"contracts/006_Variables.sol\":1873:1879  1 days */\n      dup1\n        /* \"contracts/006_Variables.sol\":1873:1891  1 days == 24 hours */\n      eq\n        /* \"contracts/006_Variables.sol\":1866:1892  assert(1 days == 24 hours) */\n      tag_90\n      jumpi\n      tag_91\n      tag_68\n      jump\t// in\n    tag_91:\n    tag_90:\n        /* \"contracts/006_Variables.sol\":1909:1915  1 days */\n      0x015180\n        /* \"contracts/006_Variables.sol\":1902:1915  return 1 days */\n      swap1\n      pop\n        /* \"contracts/006_Variables.sol\":1771:1922  function daysUnit() external pure returns (uint256) {... */\n      swap1\n      jump\t// out\n        /* \"contracts/006_Variables.sol\":116:132  uint256 public y */\n    tag_45:\n      sload(0x01)\n      dup2\n      jump\t// out\n        /* \"contracts/006_Variables.sol\":987:1138  function gweiUnit() external pure returns (uint256) {... */\n    tag_48:\n        /* \"contracts/006_Variables.sol\":1030:1037  uint256 */\n      0x00\n        /* \"contracts/006_Variables.sol\":1066:1069  1e9 */\n      0x3b9aca00\n        /* \"contracts/006_Variables.sol\":1056:1062  1 gwei */\n      dup1\n        /* \"contracts/006_Variables.sol\":1056:1069  1 gwei == 1e9 */\n      eq\n        /* \"contracts/006_Variables.sol\":1049:1070  assert(1 gwei == 1e9) */\n      tag_93\n      jumpi\n      tag_94\n      tag_68\n      jump\t// in\n    tag_94:\n    tag_93:\n        /* \"contracts/006_Variables.sol\":1097:1107  1000000000 */\n      0x3b9aca00\n        /* \"contracts/006_Variables.sol\":1087:1093  1 gwei */\n      dup1\n        /* \"contracts/006_Variables.sol\":1087:1107  1 gwei == 1000000000 */\n      eq\n        /* \"contracts/006_Variables.sol\":1080:1108  assert(1 gwei == 1000000000) */\n      tag_95\n      jumpi\n      tag_96\n      tag_68\n      jump\t// in\n    tag_96:\n    tag_95:\n        /* \"contracts/006_Variables.sol\":1125:1131  1 gwei */\n      0x3b9aca00\n        /* \"contracts/006_Variables.sol\":1118:1131  return 1 gwei */\n      swap1\n      pop\n        /* \"contracts/006_Variables.sol\":987:1138  function gweiUnit() external pure returns (uint256) {... */\n      swap1\n      jump\t// out\n        /* \"contracts/006_Variables.sol\":1609:1765  function hoursUnit() external pure returns (uint256) {... */\n    tag_51:\n        /* \"contracts/006_Variables.sol\":1653:1660  uint256 */\n      0x00\n        /* \"contracts/006_Variables.sol\":1690:1694  3600 */\n      0x0e10\n        /* \"contracts/006_Variables.sol\":1679:1686  1 hours */\n      dup1\n        /* \"contracts/006_Variables.sol\":1679:1694  1 hours == 3600 */\n      eq\n        /* \"contracts/006_Variables.sol\":1672:1695  assert(1 hours == 3600) */\n      tag_98\n      jumpi\n      tag_99\n      tag_68\n      jump\t// in\n    tag_99:\n    tag_98:\n        /* \"contracts/006_Variables.sol\":1723:1733  60 minutes */\n      0x0e10\n        /* \"contracts/006_Variables.sol\":1712:1719  1 hours */\n      dup1\n        /* \"contracts/006_Variables.sol\":1712:1733  1 hours == 60 minutes */\n      eq\n        /* \"contracts/006_Variables.sol\":1705:1734  assert(1 hours == 60 minutes) */\n      tag_100\n      jumpi\n      tag_101\n      tag_68\n      jump\t// in\n    tag_101:\n    tag_100:\n        /* \"contracts/006_Variables.sol\":1751:1758  1 hours */\n      0x0e10\n        /* \"contracts/006_Variables.sol\":1744:1758  return 1 hours */\n      swap1\n      pop\n        /* \"contracts/006_Variables.sol\":1609:1765  function hoursUnit() external pure returns (uint256) {... */\n      swap1\n      jump\t// out\n        /* \"contracts/006_Variables.sol\":160:305  function foo() external {... */\n    tag_54:\n        /* \"contracts/006_Variables.sol\":262:263  5 */\n      0x05\n        /* \"contracts/006_Variables.sol\":258:259  x */\n      0x00\n        /* \"contracts/006_Variables.sol\":258:263  x = 5 */\n      dup2\n      swap1\n      sstore\n      pop\n        /* \"contracts/006_Variables.sol\":277:278  2 */\n      0x02\n        /* \"contracts/006_Variables.sol\":273:274  y */\n      0x01\n        /* \"contracts/006_Variables.sol\":273:278  y = 2 */\n      dup2\n      swap1\n      sstore\n      pop\n        /* \"contracts/006_Variables.sol\":288:298  z = \"0xAA\" */\n      mload(0x40)\n      dup1\n      0x40\n      add\n      0x40\n      mstore\n      dup1\n      0x04\n      dup2\n      mstore\n      0x20\n      add\n      0x3078414100000000000000000000000000000000000000000000000000000000\n      dup2\n      mstore\n      pop\n        /* \"contracts/006_Variables.sol\":288:289  z */\n      0x02\n        /* \"contracts/006_Variables.sol\":288:298  z = \"0xAA\" */\n      swap1\n      dup2\n      tag_103\n      swap2\n      swap1\n      tag_104\n      jump\t// in\n    tag_103:\n      pop\n        /* \"contracts/006_Variables.sol\":160:305  function foo() external {... */\n      jump\t// out\n        /* \"contracts/006_Variables.sol\":138:153  string public z */\n    tag_56:\n      0x02\n      dup1\n      sload\n      tag_105\n      swap1\n      tag_76\n      jump\t// in\n    tag_105:\n      dup1\n      0x1f\n      add\n      0x20\n      dup1\n      swap2\n      div\n      mul\n      0x20\n      add\n      mload(0x40)\n      swap1\n      dup2\n      add\n      0x40\n      mstore\n      dup1\n      swap3\n      swap2\n      swap1\n      dup2\n      dup2\n      mstore\n      0x20\n      add\n      dup3\n      dup1\n      sload\n      tag_106\n      swap1\n      tag_76\n      jump\t// in\n    tag_106:\n      dup1\n      iszero\n      tag_107\n      jumpi\n      dup1\n      0x1f\n      lt\n      tag_108\n      jumpi\n      0x0100\n      dup1\n      dup4\n      sload\n      div\n      mul\n      dup4\n      mstore\n      swap2\n      0x20\n      add\n      swap2\n      jump(tag_107)\n    tag_108:\n      dup3\n      add\n      swap2\n      swap1\n      0x00\n      mstore\n      keccak256(0x00, 0x20)\n      swap1\n    tag_109:\n      dup2\n      sload\n      dup2\n      mstore\n      swap1\n      0x01\n      add\n      swap1\n      0x20\n      add\n      dup1\n      dup4\n      gt\n      tag_109\n      jumpi\n      dup3\n      swap1\n      sub\n      0x1f\n      and\n      dup3\n      add\n      swap2\n    tag_107:\n      pop\n      pop\n      pop\n      pop\n      pop\n      dup2\n      jump\t// out\n        /* \"contracts/006_Variables.sol\":1144:1309  function etherUnit() external pure returns (uint256) {... */\n    tag_60:\n        /* \"contracts/006_Variables.sol\":1188:1195  uint256 */\n      0x00\n        /* \"contracts/006_Variables.sol\":1225:1229  1e18 */\n      0x0de0b6b3a7640000\n        /* \"contracts/006_Variables.sol\":1214:1221  1 ether */\n      dup1\n        /* \"contracts/006_Variables.sol\":1214:1229  1 ether == 1e18 */\n      eq\n        /* \"contracts/006_Variables.sol\":1207:1230  assert(1 ether == 1e18) */\n      tag_111\n      jumpi\n      tag_112\n      tag_68\n      jump\t// in\n    tag_112:\n    tag_111:\n        /* \"contracts/006_Variables.sol\":1258:1277  1000000000000000000 */\n      0x0de0b6b3a7640000\n        /* \"contracts/006_Variables.sol\":1247:1254  1 ether */\n      dup1\n        /* \"contracts/006_Variables.sol\":1247:1277  1 ether == 1000000000000000000 */\n      eq\n        /* \"contracts/006_Variables.sol\":1240:1278  assert(1 ether == 1000000000000000000) */\n      tag_113\n      jumpi\n      tag_114\n      tag_68\n      jump\t// in\n    tag_114:\n    tag_113:\n        /* \"contracts/006_Variables.sol\":1295:1302  1 ether */\n      0x0de0b6b3a7640000\n        /* \"contracts/006_Variables.sol\":1288:1302  return 1 ether */\n      swap1\n      pop\n        /* \"contracts/006_Variables.sol\":1144:1309  function etherUnit() external pure returns (uint256) {... */\n      swap1\n      jump\t// out\n        /* \"contracts/006_Variables.sol\":1441:1603  function minutesUnit() external pure returns (uint256) {... */\n    tag_63:\n        /* \"contracts/006_Variables.sol\":1487:1494  uint256 */\n      0x00\n        /* \"contracts/006_Variables.sol\":1526:1528  60 */\n      0x3c\n        /* \"contracts/006_Variables.sol\":1513:1522  1 minutes */\n      dup1\n        /* \"contracts/006_Variables.sol\":1513:1528  1 minutes == 60 */\n      eq\n        /* \"contracts/006_Variables.sol\":1506:1529  assert(1 minutes == 60) */\n      tag_116\n      jumpi\n      tag_117\n      tag_68\n      jump\t// in\n    tag_117:\n    tag_116:\n        /* \"contracts/006_Variables.sol\":1559:1569  60 seconds */\n      0x3c\n        /* \"contracts/006_Variables.sol\":1546:1555  1 minutes */\n      dup1\n        /* \"contracts/006_Variables.sol\":1546:1569  1 minutes == 60 seconds */\n      eq\n        /* \"contracts/006_Variables.sol\":1539:1570  assert(1 minutes == 60 seconds) */\n      tag_118\n      jumpi\n      tag_119\n      tag_68\n      jump\t// in\n    tag_119:\n    tag_118:\n        /* \"contracts/006_Variables.sol\":1587:1596  1 minutes */\n      0x3c\n        /* \"contracts/006_Variables.sol\":1580:1596  return 1 minutes */\n      swap1\n      pop\n        /* \"contracts/006_Variables.sol\":1441:1603  function minutesUnit() external pure returns (uint256) {... */\n      swap1\n      jump\t// out\n        /* \"#utility.yul\":7:84   */\n    tag_120:\n        /* \"#utility.yul\":44:51   */\n      0x00\n        /* \"#utility.yul\":73:78   */\n      dup2\n        /* \"#utility.yul\":62:78   */\n      swap1\n      pop\n        /* \"#utility.yul\":7:84   */\n      swap2\n      swap1\n      pop\n      jump\t// out\n        /* \"#utility.yul\":90:208   */\n    tag_121:\n        /* \"#utility.yul\":177:201   */\n      tag_153\n        /* \"#utility.yul\":195:200   */\n      dup2\n        /* \"#utility.yul\":177:201   */\n      tag_120\n      jump\t// in\n    tag_153:\n        /* \"#utility.yul\":172:175   */\n      dup3\n        /* \"#utility.yul\":165:202   */\n      mstore\n        /* \"#utility.yul\":90:208   */\n      pop\n      pop\n      jump\t// out\n        /* \"#utility.yul\":214:436   */\n    tag_23:\n        /* \"#utility.yul\":307:311   */\n      0x00\n        /* \"#utility.yul\":345:347   */\n      0x20\n        /* \"#utility.yul\":334:343   */\n      dup3\n        /* \"#utility.yul\":330:348   */\n      add\n        /* \"#utility.yul\":322:348   */\n      swap1\n      pop\n        /* \"#utility.yul\":358:429   */\n      tag_155\n        /* \"#utility.yul\":426:427   */\n      0x00\n        /* \"#utility.yul\":415:424   */\n      dup4\n        /* \"#utility.yul\":411:428   */\n      add\n        /* \"#utility.yul\":402:408   */\n      dup5\n        /* \"#utility.yul\":358:429   */\n      tag_121\n      jump\t// in\n    tag_155:\n        /* \"#utility.yul\":214:436   */\n      swap3\n      swap2\n      pop\n      pop\n      jump\t// out\n        /* \"#utility.yul\":442:541   */\n    tag_122:\n        /* \"#utility.yul\":494:500   */\n      0x00\n        /* \"#utility.yul\":528:533   */\n      dup2\n        /* \"#utility.yul\":522:534   */\n      mload\n        /* \"#utility.yul\":512:534   */\n      swap1\n      pop\n        /* \"#utility.yul\":442:541   */\n      swap2\n      swap1\n      pop\n      jump\t// out\n        /* \"#utility.yul\":547:716   */\n    tag_123:\n        /* \"#utility.yul\":631:642   */\n      0x00\n        /* \"#utility.yul\":665:671   */\n      dup3\n        /* \"#utility.yul\":660:663   */\n      dup3\n        /* \"#utility.yul\":653:672   */\n      mstore\n        /* \"#utility.yul\":705:709   */\n      0x20\n        /* \"#utility.yul\":700:703   */\n      dup3\n        /* \"#utility.yul\":696:710   */\n      add\n        /* \"#utility.yul\":681:710   */\n      swap1\n      pop\n        /* \"#utility.yul\":547:716   */\n      swap3\n      swap2\n      pop\n      pop\n      jump\t// out\n        /* \"#utility.yul\":722:968   */\n    tag_124:\n        /* \"#utility.yul\":803:804   */\n      0x00\n        /* \"#utility.yul\":813:926   */\n    tag_159:\n        /* \"#utility.yul\":827:833   */\n      dup4\n        /* \"#utility.yul\":824:825   */\n      dup2\n        /* \"#utility.yul\":821:834   */\n      lt\n        /* \"#utility.yul\":813:926   */\n      iszero\n      tag_161\n      jumpi\n        /* \"#utility.yul\":912:913   */\n      dup1\n        /* \"#utility.yul\":907:910   */\n      dup3\n        /* \"#utility.yul\":903:914   */\n      add\n        /* \"#utility.yul\":897:915   */\n      mload\n        /* \"#utility.yul\":893:894   */\n      dup2\n        /* \"#utility.yul\":888:891   */\n      dup5\n        /* \"#utility.yul\":884:895   */\n      add\n        /* \"#utility.yul\":877:916   */\n      mstore\n        /* \"#utility.yul\":849:851   */\n      0x20\n        /* \"#utility.yul\":846:847   */\n      dup2\n        /* \"#utility.yul\":842:852   */\n      add\n        /* \"#utility.yul\":837:852   */\n      swap1\n      pop\n        /* \"#utility.yul\":813:926   */\n      jump(tag_159)\n    tag_161:\n        /* \"#utility.yul\":960:961   */\n      0x00\n        /* \"#utility.yul\":951:957   */\n      dup5\n        /* \"#utility.yul\":946:949   */\n      dup5\n        /* \"#utility.yul\":942:958   */\n      add\n        /* \"#utility.yul\":935:962   */\n      mstore\n        /* \"#utility.yul\":784:968   */\n      pop\n        /* \"#utility.yul\":722:968   */\n      pop\n      pop\n      pop\n      jump\t// out\n        /* \"#utility.yul\":974:1076   */\n    tag_125:\n        /* \"#utility.yul\":1015:1021   */\n      0x00\n        /* \"#utility.yul\":1066:1068   */\n      0x1f\n        /* \"#utility.yul\":1062:1069   */\n      not\n        /* \"#utility.yul\":1057:1059   */\n      0x1f\n        /* \"#utility.yul\":1050:1055   */\n      dup4\n        /* \"#utility.yul\":1046:1060   */\n      add\n        /* \"#utility.yul\":1042:1070   */\n      and\n        /* \"#utility.yul\":1032:1070   */\n      swap1\n      pop\n        /* \"#utility.yul\":974:1076   */\n      swap2\n      swap1\n      pop\n      jump\t// out\n        /* \"#utility.yul\":1082:1459   */\n    tag_126:\n        /* \"#utility.yul\":1170:1173   */\n      0x00\n        /* \"#utility.yul\":1198:1237   */\n      tag_164\n        /* \"#utility.yul\":1231:1236   */\n      dup3\n        /* \"#utility.yul\":1198:1237   */\n      tag_122\n      jump\t// in\n    tag_164:\n        /* \"#utility.yul\":1253:1324   */\n      tag_165\n        /* \"#utility.yul\":1317:1323   */\n      dup2\n        /* \"#utility.yul\":1312:1315   */\n      dup6\n        /* \"#utility.yul\":1253:1324   */\n      tag_123\n      jump\t// in\n    tag_165:\n        /* \"#utility.yul\":1246:1324   */\n      swap4\n      pop\n        /* \"#utility.yul\":1333:1398   */\n      tag_166\n        /* \"#utility.yul\":1391:1397   */\n      dup2\n        /* \"#utility.yul\":1386:1389   */\n      dup6\n        /* \"#utility.yul\":1379:1383   */\n      0x20\n        /* \"#utility.yul\":1372:1377   */\n      dup7\n        /* \"#utility.yul\":1368:1384   */\n      add\n        /* \"#utility.yul\":1333:1398   */\n      tag_124\n      jump\t// in\n    tag_166:\n        /* \"#utility.yul\":1423:1452   */\n      tag_167\n        /* \"#utility.yul\":1445:1451   */\n      dup2\n        /* \"#utility.yul\":1423:1452   */\n      tag_125\n      jump\t// in\n    tag_167:\n        /* \"#utility.yul\":1418:1421   */\n      dup5\n        /* \"#utility.yul\":1414:1453   */\n      add\n        /* \"#utility.yul\":1407:1453   */\n      swap2\n      pop\n        /* \"#utility.yul\":1174:1459   */\n      pop\n        /* \"#utility.yul\":1082:1459   */\n      swap3\n      swap2\n      pop\n      pop\n      jump\t// out\n        /* \"#utility.yul\":1465:1998   */\n    tag_33:\n        /* \"#utility.yul\":1634:1638   */\n      0x00\n        /* \"#utility.yul\":1672:1674   */\n      0x60\n        /* \"#utility.yul\":1661:1670   */\n      dup3\n        /* \"#utility.yul\":1657:1675   */\n      add\n        /* \"#utility.yul\":1649:1675   */\n      swap1\n      pop\n        /* \"#utility.yul\":1685:1756   */\n      tag_169\n        /* \"#utility.yul\":1753:1754   */\n      0x00\n        /* \"#utility.yul\":1742:1751   */\n      dup4\n        /* \"#utility.yul\":1738:1755   */\n      add\n        /* \"#utility.yul\":1729:1735   */\n      dup7\n        /* \"#utility.yul\":1685:1756   */\n      tag_121\n      jump\t// in\n    tag_169:\n        /* \"#utility.yul\":1766:1838   */\n      tag_170\n        /* \"#utility.yul\":1834:1836   */\n      0x20\n        /* \"#utility.yul\":1823:1832   */\n      dup4\n        /* \"#utility.yul\":1819:1837   */\n      add\n        /* \"#utility.yul\":1810:1816   */\n      dup6\n        /* \"#utility.yul\":1766:1838   */\n      tag_121\n      jump\t// in\n    tag_170:\n        /* \"#utility.yul\":1885:1894   */\n      dup2\n        /* \"#utility.yul\":1879:1883   */\n      dup2\n        /* \"#utility.yul\":1875:1895   */\n      sub\n        /* \"#utility.yul\":1870:1872   */\n      0x40\n        /* \"#utility.yul\":1859:1868   */\n      dup4\n        /* \"#utility.yul\":1855:1873   */\n      add\n        /* \"#utility.yul\":1848:1896   */\n      mstore\n        /* \"#utility.yul\":1913:1991   */\n      tag_171\n        /* \"#utility.yul\":1986:1990   */\n      dup2\n        /* \"#utility.yul\":1977:1983   */\n      dup5\n        /* \"#utility.yul\":1913:1991   */\n      tag_126\n      jump\t// in\n    tag_171:\n        /* \"#utility.yul\":1905:1991   */\n      swap1\n      pop\n        /* \"#utility.yul\":1465:1998   */\n      swap5\n      swap4\n      pop\n      pop\n      pop\n      pop\n      jump\t// out\n        /* \"#utility.yul\":2004:2130   */\n    tag_127:\n        /* \"#utility.yul\":2041:2048   */\n      0x00\n        /* \"#utility.yul\":2081:2123   */\n      0xffffffffffffffffffffffffffffffffffffffff\n        /* \"#utility.yul\":2074:2079   */\n      dup3\n        /* \"#utility.yul\":2070:2124   */\n      and\n        /* \"#utility.yul\":2059:2124   */\n      swap1\n      pop\n        /* \"#utility.yul\":2004:2130   */\n      swap2\n      swap1\n      pop\n      jump\t// out\n        /* \"#utility.yul\":2136:2232   */\n    tag_128:\n        /* \"#utility.yul\":2173:2180   */\n      0x00\n        /* \"#utility.yul\":2202:2226   */\n      tag_174\n        /* \"#utility.yul\":2220:2225   */\n      dup3\n        /* \"#utility.yul\":2202:2226   */\n      tag_127\n      jump\t// in\n    tag_174:\n        /* \"#utility.yul\":2191:2226   */\n      swap1\n      pop\n        /* \"#utility.yul\":2136:2232   */\n      swap2\n      swap1\n      pop\n      jump\t// out\n        /* \"#utility.yul\":2238:2356   */\n    tag_129:\n        /* \"#utility.yul\":2325:2349   */\n      tag_176\n        /* \"#utility.yul\":2343:2348   */\n      dup2\n        /* \"#utility.yul\":2325:2349   */\n      tag_128\n      jump\t// in\n    tag_176:\n        /* \"#utility.yul\":2320:2323   */\n      dup3\n        /* \"#utility.yul\":2313:2350   */\n      mstore\n        /* \"#utility.yul\":2238:2356   */\n      pop\n      pop\n      jump\t// out\n        /* \"#utility.yul\":2362:2460   */\n    tag_130:\n        /* \"#utility.yul\":2413:2419   */\n      0x00\n        /* \"#utility.yul\":2447:2452   */\n      dup2\n        /* \"#utility.yul\":2441:2453   */\n      mload\n        /* \"#utility.yul\":2431:2453   */\n      swap1\n      pop\n        /* \"#utility.yul\":2362:2460   */\n      swap2\n      swap1\n      pop\n      jump\t// out\n        /* \"#utility.yul\":2466:2634   */\n    tag_131:\n        /* \"#utility.yul\":2549:2560   */\n      0x00\n        /* \"#utility.yul\":2583:2589   */\n      dup3\n        /* \"#utility.yul\":2578:2581   */\n      dup3\n        /* \"#utility.yul\":2571:2590   */\n      mstore\n        /* \"#utility.yul\":2623:2627   */\n      0x20\n        /* \"#utility.yul\":2618:2621   */\n      dup3\n        /* \"#utility.yul\":2614:2628   */\n      add\n        /* \"#utility.yul\":2599:2628   */\n      swap1\n      pop\n        /* \"#utility.yul\":2466:2634   */\n      swap3\n      swap2\n      pop\n      pop\n      jump\t// out\n        /* \"#utility.yul\":2640:3013   */\n    tag_132:\n        /* \"#utility.yul\":2726:2729   */\n      0x00\n        /* \"#utility.yul\":2754:2792   */\n      tag_180\n        /* \"#utility.yul\":2786:2791   */\n      dup3\n        /* \"#utility.yul\":2754:2792   */\n      tag_130\n      jump\t// in\n    tag_180:\n        /* \"#utility.yul\":2808:2878   */\n      tag_181\n        /* \"#utility.yul\":2871:2877   */\n      dup2\n        /* \"#utility.yul\":2866:2869   */\n      dup6\n        /* \"#utility.yul\":2808:2878   */\n      tag_131\n      jump\t// in\n    tag_181:\n        /* \"#utility.yul\":2801:2878   */\n      swap4\n      pop\n        /* \"#utility.yul\":2887:2952   */\n      tag_182\n        /* \"#utility.yul\":2945:2951   */\n      dup2\n        /* \"#utility.yul\":2940:2943   */\n      dup6\n        /* \"#utility.yul\":2933:2937   */\n      0x20\n        /* \"#utility.yul\":2926:2931   */\n      dup7\n        /* \"#utility.yul\":2922:2938   */\n      add\n        /* \"#utility.yul\":2887:2952   */\n      tag_124\n      jump\t// in\n    tag_182:\n        /* \"#utility.yul\":2977:3006   */\n      tag_183\n        /* \"#utility.yul\":2999:3005   */\n      dup2\n        /* \"#utility.yul\":2977:3006   */\n      tag_125\n      jump\t// in\n    tag_183:\n        /* \"#utility.yul\":2972:2975   */\n      dup5\n        /* \"#utility.yul\":2968:3007   */\n      add\n        /* \"#utility.yul\":2961:3007   */\n      swap2\n      pop\n        /* \"#utility.yul\":2730:3013   */\n      pop\n        /* \"#utility.yul\":2640:3013   */\n      swap3\n      swap2\n      pop\n      pop\n      jump\t// out\n        /* \"#utility.yul\":3019:3548   */\n    tag_40:\n        /* \"#utility.yul\":3186:3190   */\n      0x00\n        /* \"#utility.yul\":3224:3226   */\n      0x60\n        /* \"#utility.yul\":3213:3222   */\n      dup3\n        /* \"#utility.yul\":3209:3227   */\n      add\n        /* \"#utility.yul\":3201:3227   */\n      swap1\n      pop\n        /* \"#utility.yul\":3237:3308   */\n      tag_185\n        /* \"#utility.yul\":3305:3306   */\n      0x00\n        /* \"#utility.yul\":3294:3303   */\n      dup4\n        /* \"#utility.yul\":3290:3307   */\n      add\n        /* \"#utility.yul\":3281:3287   */\n      dup7\n        /* \"#utility.yul\":3237:3308   */\n      tag_129\n      jump\t// in\n    tag_185:\n        /* \"#utility.yul\":3318:3390   */\n      tag_186\n        /* \"#utility.yul\":3386:3388   */\n      0x20\n        /* \"#utility.yul\":3375:3384   */\n      dup4\n        /* \"#utility.yul\":3371:3389   */\n      add\n        /* \"#utility.yul\":3362:3368   */\n      dup6\n        /* \"#utility.yul\":3318:3390   */\n      tag_121\n      jump\t// in\n    tag_186:\n        /* \"#utility.yul\":3437:3446   */\n      dup2\n        /* \"#utility.yul\":3431:3435   */\n      dup2\n        /* \"#utility.yul\":3427:3447   */\n      sub\n        /* \"#utility.yul\":3422:3424   */\n      0x40\n        /* \"#utility.yul\":3411:3420   */\n      dup4\n        /* \"#utility.yul\":3407:3425   */\n      add\n        /* \"#utility.yul\":3400:3448   */\n      mstore\n        /* \"#utility.yul\":3465:3541   */\n      tag_187\n        /* \"#utility.yul\":3536:3540   */\n      dup2\n        /* \"#utility.yul\":3527:3533   */\n      dup5\n        /* \"#utility.yul\":3465:3541   */\n      tag_132\n      jump\t// in\n    tag_187:\n        /* \"#utility.yul\":3457:3541   */\n      swap1\n      pop\n        /* \"#utility.yul\":3019:3548   */\n      swap5\n      swap4\n      pop\n      pop\n      pop\n      pop\n      jump\t// out\n        /* \"#utility.yul\":3554:3867   */\n    tag_58:\n        /* \"#utility.yul\":3667:3671   */\n      0x00\n        /* \"#utility.yul\":3705:3707   */\n      0x20\n        /* \"#utility.yul\":3694:3703   */\n      dup3\n        /* \"#utility.yul\":3690:3708   */\n      add\n        /* \"#utility.yul\":3682:3708   */\n      swap1\n      pop\n        /* \"#utility.yul\":3754:3763   */\n      dup2\n        /* \"#utility.yul\":3748:3752   */\n      dup2\n        /* \"#utility.yul\":3744:3764   */\n      sub\n        /* \"#utility.yul\":3740:3741   */\n      0x00\n        /* \"#utility.yul\":3729:3738   */\n      dup4\n        /* \"#utility.yul\":3725:3742   */\n      add\n        /* \"#utility.yul\":3718:3765   */\n      mstore\n        /* \"#utility.yul\":3782:3860   */\n      tag_189\n        /* \"#utility.yul\":3855:3859   */\n      dup2\n        /* \"#utility.yul\":3846:3852   */\n      dup5\n        /* \"#utility.yul\":3782:3860   */\n      tag_126\n      jump\t// in\n    tag_189:\n        /* \"#utility.yul\":3774:3860   */\n      swap1\n      pop\n        /* \"#utility.yul\":3554:3867   */\n      swap3\n      swap2\n      pop\n      pop\n      jump\t// out\n        /* \"#utility.yul\":3873:4053   */\n    tag_68:\n        /* \"#utility.yul\":3921:3998   */\n      0x4e487b7100000000000000000000000000000000000000000000000000000000\n        /* \"#utility.yul\":3918:3919   */\n      0x00\n        /* \"#utility.yul\":3911:3999   */\n      mstore\n        /* \"#utility.yul\":4018:4022   */\n      0x01\n        /* \"#utility.yul\":4015:4016   */\n      0x04\n        /* \"#utility.yul\":4008:4023   */\n      mstore\n        /* \"#utility.yul\":4042:4046   */\n      0x24\n        /* \"#utility.yul\":4039:4040   */\n      0x00\n        /* \"#utility.yul\":4032:4047   */\n      revert\n        /* \"#utility.yul\":4059:4239   */\n    tag_133:\n        /* \"#utility.yul\":4107:4184   */\n      0x4e487b7100000000000000000000000000000000000000000000000000000000\n        /* \"#utility.yul\":4104:4105   */\n      0x00\n        /* \"#utility.yul\":4097:4185   */\n      mstore\n        /* \"#utility.yul\":4204:4208   */\n      0x22\n        /* \"#utility.yul\":4201:4202   */\n      0x04\n        /* \"#utility.yul\":4194:4209   */\n      mstore\n        /* \"#utility.yul\":4228:4232   */\n      0x24\n        /* \"#utility.yul\":4225:4226   */\n      0x00\n        /* \"#utility.yul\":4218:4233   */\n      revert\n        /* \"#utility.yul\":4245:4565   */\n    tag_76:\n        /* \"#utility.yul\":4289:4295   */\n      0x00\n        /* \"#utility.yul\":4326:4327   */\n      0x02\n        /* \"#utility.yul\":4320:4324   */\n      dup3\n        /* \"#utility.yul\":4316:4328   */\n      div\n        /* \"#utility.yul\":4306:4328   */\n      swap1\n      pop\n        /* \"#utility.yul\":4373:4374   */\n      0x01\n        /* \"#utility.yul\":4367:4371   */\n      dup3\n        /* \"#utility.yul\":4363:4375   */\n      and\n        /* \"#utility.yul\":4394:4412   */\n      dup1\n        /* \"#utility.yul\":4384:4465   */\n      tag_193\n      jumpi\n        /* \"#utility.yul\":4450:4454   */\n      0x7f\n        /* \"#utility.yul\":4442:4448   */\n      dup3\n        /* \"#utility.yul\":4438:4455   */\n      and\n        /* \"#utility.yul\":4428:4455   */\n      swap2\n      pop\n        /* \"#utility.yul\":4384:4465   */\n    tag_193:\n        /* \"#utility.yul\":4512:4514   */\n      0x20\n        /* \"#utility.yul\":4504:4510   */\n      dup3\n        /* \"#utility.yul\":4501:4515   */\n      lt\n        /* \"#utility.yul\":4481:4499   */\n      dup2\n        /* \"#utility.yul\":4478:4516   */\n      sub\n        /* \"#utility.yul\":4475:4559   */\n      tag_194\n      jumpi\n        /* \"#utility.yul\":4531:4549   */\n      tag_195\n      tag_133\n      jump\t// in\n    tag_195:\n        /* \"#utility.yul\":4475:4559   */\n    tag_194:\n        /* \"#utility.yul\":4296:4565   */\n      pop\n        /* \"#utility.yul\":4245:4565   */\n      swap2\n      swap1\n      pop\n      jump\t// out\n        /* \"#utility.yul\":4571:4751   */\n    tag_134:\n        /* \"#utility.yul\":4619:4696   */\n      0x4e487b7100000000000000000000000000000000000000000000000000000000\n        /* \"#utility.yul\":4616:4617   */\n      0x00\n        /* \"#utility.yul\":4609:4697   */\n      mstore\n        /* \"#utility.yul\":4716:4720   */\n      0x41\n        /* \"#utility.yul\":4713:4714   */\n      0x04\n        /* \"#utility.yul\":4706:4721   */\n      mstore\n        /* \"#utility.yul\":4740:4744   */\n      0x24\n        /* \"#utility.yul\":4737:4738   */\n      0x00\n        /* \"#utility.yul\":4730:4745   */\n      revert\n        /* \"#utility.yul\":4757:4898   */\n    tag_135:\n        /* \"#utility.yul\":4806:4810   */\n      0x00\n        /* \"#utility.yul\":4829:4832   */\n      dup2\n        /* \"#utility.yul\":4821:4832   */\n      swap1\n      pop\n        /* \"#utility.yul\":4852:4855   */\n      dup2\n        /* \"#utility.yul\":4849:4850   */\n      0x00\n        /* \"#utility.yul\":4842:4856   */\n      mstore\n        /* \"#utility.yul\":4886:4890   */\n      0x20\n        /* \"#utility.yul\":4883:4884   */\n      0x00\n        /* \"#utility.yul\":4873:4891   */\n      keccak256\n        /* \"#utility.yul\":4865:4891   */\n      swap1\n      pop\n        /* \"#utility.yul\":4757:4898   */\n      swap2\n      swap1\n      pop\n      jump\t// out\n        /* \"#utility.yul\":4904:4997   */\n    tag_136:\n        /* \"#utility.yul\":4941:4947   */\n      0x00\n        /* \"#utility.yul\":4988:4990   */\n      0x20\n        /* \"#utility.yul\":4983:4985   */\n      0x1f\n        /* \"#utility.yul\":4976:4981   */\n      dup4\n        /* \"#utility.yul\":4972:4986   */\n      add\n        /* \"#utility.yul\":4968:4991   */\n      div\n        /* \"#utility.yul\":4958:4991   */\n      swap1\n      pop\n        /* \"#utility.yul\":4904:4997   */\n      swap2\n      swap1\n      pop\n      jump\t// out\n        /* \"#utility.yul\":5003:5110   */\n    tag_137:\n        /* \"#utility.yul\":5047:5055   */\n      0x00\n        /* \"#utility.yul\":5097:5102   */\n      dup3\n        /* \"#utility.yul\":5091:5095   */\n      dup3\n        /* \"#utility.yul\":5087:5103   */\n      shl\n        /* \"#utility.yul\":5066:5103   */\n      swap1\n      pop\n        /* \"#utility.yul\":5003:5110   */\n      swap3\n      swap2\n      pop\n      pop\n      jump\t// out\n        /* \"#utility.yul\":5116:5509   */\n    tag_138:\n        /* \"#utility.yul\":5185:5191   */\n      0x00\n        /* \"#utility.yul\":5235:5236   */\n      0x08\n        /* \"#utility.yul\":5223:5233   */\n      dup4\n        /* \"#utility.yul\":5219:5237   */\n      mul\n        /* \"#utility.yul\":5258:5355   */\n      tag_201\n        /* \"#utility.yul\":5288:5354   */\n      0xffffffffffffffffffffffffffffffffffffffffffffffffffffffffffffffff\n        /* \"#utility.yul\":5277:5286   */\n      dup3\n        /* \"#utility.yul\":5258:5355   */\n      tag_137\n      jump\t// in\n    tag_201:\n        /* \"#utility.yul\":5376:5415   */\n      tag_202\n        /* \"#utility.yul\":5406:5414   */\n      dup7\n        /* \"#utility.yul\":5395:5404   */\n      dup4\n        /* \"#utility.yul\":5376:5415   */\n      tag_137\n      jump\t// in\n    tag_202:\n        /* \"#utility.yul\":5364:5415   */\n      swap6\n      pop\n        /* \"#utility.yul\":5448:5452   */\n      dup1\n        /* \"#utility.yul\":5444:5453   */\n      not\n        /* \"#utility.yul\":5437:5442   */\n      dup5\n        /* \"#utility.yul\":5433:5454   */\n      and\n        /* \"#utility.yul\":5424:5454   */\n      swap4\n      pop\n        /* \"#utility.yul\":5497:5501   */\n      dup1\n        /* \"#utility.yul\":5487:5495   */\n      dup7\n        /* \"#utility.yul\":5483:5502   */\n      and\n        /* \"#utility.yul\":5476:5481   */\n      dup5\n        /* \"#utility.yul\":5473:5503   */\n      or\n        /* \"#utility.yul\":5463:5503   */\n      swap3\n      pop\n        /* \"#utility.yul\":5192:5509   */\n      pop\n      pop\n        /* \"#utility.yul\":5116:5509   */\n      swap4\n      swap3\n      pop\n      pop\n      pop\n      jump\t// out\n        /* \"#utility.yul\":5515:5575   */\n    tag_139:\n        /* \"#utility.yul\":5543:5546   */\n      0x00\n        /* \"#utility.yul\":5564:5569   */\n      dup2\n        /* \"#utility.yul\":5557:5569   */\n      swap1\n      pop\n        /* \"#utility.yul\":5515:5575   */\n      swap2\n      swap1\n      pop\n      jump\t// out\n        /* \"#utility.yul\":5581:5723   */\n    tag_140:\n        /* \"#utility.yul\":5631:5640   */\n      0x00\n        /* \"#utility.yul\":5664:5717   */\n      tag_205\n        /* \"#utility.yul\":5682:5716   */\n      tag_206\n        /* \"#utility.yul\":5691:5715   */\n      tag_207\n        /* \"#utility.yul\":5709:5714   */\n      dup5\n        /* \"#utility.yul\":5691:5715   */\n      tag_120\n      jump\t// in\n    tag_207:\n        /* \"#utility.yul\":5682:5716   */\n      tag_139\n      jump\t// in\n    tag_206:\n        /* \"#utility.yul\":5664:5717   */\n      tag_120\n      jump\t// in\n    tag_205:\n        /* \"#utility.yul\":5651:5717   */\n      swap1\n      pop\n        /* \"#utility.yul\":5581:5723   */\n      swap2\n      swap1\n      pop\n      jump\t// out\n        /* \"#utility.yul\":5729:5804   */\n    tag_141:\n        /* \"#utility.yul\":5772:5775   */\n      0x00\n        /* \"#utility.yul\":5793:5798   */\n      dup2\n        /* \"#utility.yul\":5786:5798   */\n      swap1\n      pop\n        /* \"#utility.yul\":5729:5804   */\n      swap2\n      swap1\n      pop\n      jump\t// out\n        /* \"#utility.yul\":5810:6079   */\n    tag_142:\n        /* \"#utility.yul\":5920:5959   */\n      tag_210\n        /* \"#utility.yul\":5951:5958   */\n      dup4\n        /* \"#utility.yul\":5920:5959   */\n      tag_140\n      jump\t// in\n    tag_210:\n        /* \"#utility.yul\":5981:6072   */\n      tag_211\n        /* \"#utility.yul\":6030:6071   */\n      tag_212\n        /* \"#utility.yul\":6054:6070   */\n      dup3\n        /* \"#utility.yul\":6030:6071   */\n      tag_141\n      jump\t// in\n    tag_212:\n        /* \"#utility.yul\":6022:6028   */\n      dup5\n        /* \"#utility.yul\":6015:6019   */\n      dup5\n        /* \"#utility.yul\":6009:6020   */\n      sload\n        /* \"#utility.yul\":5981:6072   */\n      tag_138\n      jump\t// in\n    tag_211:\n        /* \"#utility.yul\":5975:5979   */\n      dup3\n        /* \"#utility.yul\":5968:6073   */\n      sstore\n        /* \"#utility.yul\":5886:6079   */\n      pop\n        /* \"#utility.yul\":5810:6079   */\n      pop\n      pop\n      pop\n      jump\t// out\n        /* \"#utility.yul\":6085:6158   */\n    tag_143:\n        /* \"#utility.yul\":6130:6133   */\n      0x00\n        /* \"#utility.yul\":6085:6158   */\n      swap1\n      jump\t// out\n        /* \"#utility.yul\":6164:6353   */\n    tag_144:\n        /* \"#utility.yul\":6241:6273   */\n      tag_215\n      tag_143\n      jump\t// in\n    tag_215:\n        /* \"#utility.yul\":6282:6347   */\n      tag_216\n        /* \"#utility.yul\":6340:6346   */\n      dup2\n        /* \"#utility.yul\":6332:6338   */\n      dup5\n        /* \"#utility.yul\":6326:6330   */\n      dup5\n        /* \"#utility.yul\":6282:6347   */\n      tag_142\n      jump\t// in\n    tag_216:\n        /* \"#utility.yul\":6217:6353   */\n      pop\n        /* \"#utility.yul\":6164:6353   */\n      pop\n      pop\n      jump\t// out\n        /* \"#utility.yul\":6359:6545   */\n    tag_145:\n        /* \"#utility.yul\":6419:6539   */\n    tag_218:\n        /* \"#utility.yul\":6436:6439   */\n      dup2\n        /* \"#utility.yul\":6429:6434   */\n      dup2\n        /* \"#utility.yul\":6426:6440   */\n      lt\n        /* \"#utility.yul\":6419:6539   */\n      iszero\n      tag_220\n      jumpi\n        /* \"#utility.yul\":6490:6529   */\n      tag_221\n        /* \"#utility.yul\":6527:6528   */\n      0x00\n        /* \"#utility.yul\":6520:6525   */\n      dup3\n        /* \"#utility.yul\":6490:6529   */\n      tag_144\n      jump\t// in\n    tag_221:\n        /* \"#utility.yul\":6463:6464   */\n      0x01\n        /* \"#utility.yul\":6456:6461   */\n      dup2\n        /* \"#utility.yul\":6452:6465   */\n      add\n        /* \"#utility.yul\":6443:6465   */\n      swap1\n      pop\n        /* \"#utility.yul\":6419:6539   */\n      jump(tag_218)\n    tag_220:\n        /* \"#utility.yul\":6359:6545   */\n      pop\n      pop\n      jump\t// out\n        /* \"#utility.yul\":6551:7094   */\n    tag_146:\n        /* \"#utility.yul\":6652:6654   */\n      0x1f\n        /* \"#utility.yul\":6647:6650   */\n      dup3\n        /* \"#utility.yul\":6644:6655   */\n      gt\n        /* \"#utility.yul\":6641:7087   */\n      iszero\n      tag_223\n      jumpi\n        /* \"#utility.yul\":6686:6724   */\n      tag_224\n        /* \"#utility.yul\":6718:6723   */\n      dup2\n        /* \"#utility.yul\":6686:6724   */\n      tag_135\n      jump\t// in\n    tag_224:\n        /* \"#utility.yul\":6770:6799   */\n      tag_225\n        /* \"#utility.yul\":6788:6798   */\n      dup5\n        /* \"#utility.yul\":6770:6799   */\n      tag_136\n      jump\t// in\n    tag_225:\n        /* \"#utility.yul\":6760:6768   */\n      dup2\n        /* \"#utility.yul\":6756:6800   */\n      add\n        /* \"#utility.yul\":6953:6955   */\n      0x20\n        /* \"#utility.yul\":6941:6951   */\n      dup6\n        /* \"#utility.yul\":6938:6956   */\n      lt\n        /* \"#utility.yul\":6935:6984   */\n      iszero\n      tag_226\n      jumpi\n        /* \"#utility.yul\":6974:6982   */\n      dup2\n        /* \"#utility.yul\":6959:6982   */\n      swap1\n      pop\n        /* \"#utility.yul\":6935:6984   */\n    tag_226:\n        /* \"#utility.yul\":6997:7077   */\n      tag_227\n        /* \"#utility.yul\":7053:7075   */\n      tag_228\n        /* \"#utility.yul\":7071:7074   */\n      dup6\n        /* \"#utility.yul\":7053:7075   */\n      tag_136\n      jump\t// in\n    tag_228:\n        /* \"#utility.yul\":7043:7051   */\n      dup4\n        /* \"#utility.yul\":7039:7076   */\n      add\n        /* \"#utility.yul\":7026:7037   */\n      dup3\n        /* \"#utility.yul\":6997:7077   */\n      tag_145\n      jump\t// in\n    tag_227:\n        /* \"#utility.yul\":6656:7087   */\n      pop\n      pop\n        /* \"#utility.yul\":6641:7087   */\n    tag_223:\n        /* \"#utility.yul\":6551:7094   */\n      pop\n      pop\n      pop\n      jump\t// out\n        /* \"#utility.yul\":7100:7217   */\n    tag_147:\n        /* \"#utility.yul\":7154:7162   */\n      0x00\n        /* \"#utility.yul\":7204:7209   */\n      dup3\n        /* \"#utility.yul\":7198:7202   */\n      dup3\n        /* \"#utility.yul\":7194:7210   */\n      shr\n        /* \"#utility.yul\":7173:7210   */\n      swap1\n      pop\n        /* \"#utility.yul\":7100:7217   */\n      swap3\n      swap2\n      pop\n      pop\n      jump\t// out\n        /* \"#utility.yul\":7223:7392   */\n    tag_148:\n        /* \"#utility.yul\":7267:7273   */\n      0x00\n        /* \"#utility.yul\":7300:7351   */\n      tag_231\n        /* \"#utility.yul\":7348:7349   */\n      0x00\n        /* \"#utility.yul\":7344:7350   */\n      not\n        /* \"#utility.yul\":7336:7341   */\n      dup5\n        /* \"#utility.yul\":7333:7334   */\n      0x08\n        /* \"#utility.yul\":7329:7342   */\n      mul\n        /* \"#utility.yul\":7300:7351   */\n      tag_147\n      jump\t// in\n    tag_231:\n        /* \"#utility.yul\":7296:7352   */\n      not\n        /* \"#utility.yul\":7381:7385   */\n      dup1\n        /* \"#utility.yul\":7375:7379   */\n      dup4\n        /* \"#utility.yul\":7371:7386   */\n      and\n        /* \"#utility.yul\":7361:7386   */\n      swap2\n      pop\n        /* \"#utility.yul\":7274:7392   */\n      pop\n        /* \"#utility.yul\":7223:7392   */\n      swap3\n      swap2\n      pop\n      pop\n      jump\t// out\n        /* \"#utility.yul\":7397:7692   */\n    tag_149:\n        /* \"#utility.yul\":7473:7477   */\n      0x00\n        /* \"#utility.yul\":7619:7648   */\n      tag_233\n        /* \"#utility.yul\":7644:7647   */\n      dup4\n        /* \"#utility.yul\":7638:7642   */\n      dup4\n        /* \"#utility.yul\":7619:7648   */\n      tag_148\n      jump\t// in\n    tag_233:\n        /* \"#utility.yul\":7611:7648   */\n      swap2\n      pop\n        /* \"#utility.yul\":7681:7684   */\n      dup3\n        /* \"#utility.yul\":7678:7679   */\n      0x02\n        /* \"#utility.yul\":7674:7685   */\n      mul\n        /* \"#utility.yul\":7668:7672   */\n      dup3\n        /* \"#utility.yul\":7665:7686   */\n      or\n        /* \"#utility.yul\":7657:7686   */\n      swap1\n      pop\n        /* \"#utility.yul\":7397:7692   */\n      swap3\n      swap2\n      pop\n      pop\n      jump\t// out\n        /* \"#utility.yul\":7697:9092   */\n    tag_104:\n        /* \"#utility.yul\":7814:7851   */\n      tag_235\n        /* \"#utility.yul\":7847:7850   */\n      dup3\n        /* \"#utility.yul\":7814:7851   */\n      tag_122\n      jump\t// in\n    tag_235:\n        /* \"#utility.yul\":7916:7934   */\n      0xffffffffffffffff\n        /* \"#utility.yul\":7908:7914   */\n      dup2\n        /* \"#utility.yul\":7905:7935   */\n      gt\n        /* \"#utility.yul\":7902:7958   */\n      iszero\n      tag_236\n      jumpi\n        /* \"#utility.yul\":7938:7956   */\n      tag_237\n      tag_134\n      jump\t// in\n    tag_237:\n        /* \"#utility.yul\":7902:7958   */\n    tag_236:\n        /* \"#utility.yul\":7982:8020   */\n      tag_238\n        /* \"#utility.yul\":8014:8018   */\n      dup3\n        /* \"#utility.yul\":8008:8019   */\n      sload\n        /* \"#utility.yul\":7982:8020   */\n      tag_76\n      jump\t// in\n    tag_238:\n        /* \"#utility.yul\":8067:8134   */\n      tag_239\n        /* \"#utility.yul\":8127:8133   */\n      dup3\n        /* \"#utility.yul\":8119:8125   */\n      dup3\n        /* \"#utility.yul\":8113:8117   */\n      dup6\n        /* \"#utility.yul\":8067:8134   */\n      tag_146\n      jump\t// in\n    tag_239:\n        /* \"#utility.yul\":8161:8162   */\n      0x00\n        /* \"#utility.yul\":8185:8189   */\n      0x20\n        /* \"#utility.yul\":8172:8189   */\n      swap1\n      pop\n        /* \"#utility.yul\":8217:8219   */\n      0x1f\n        /* \"#utility.yul\":8209:8215   */\n      dup4\n        /* \"#utility.yul\":8206:8220   */\n      gt\n        /* \"#utility.yul\":8234:8235   */\n      0x01\n        /* \"#utility.yul\":8229:8847   */\n      dup2\n      eq\n      tag_241\n      jumpi\n        /* \"#utility.yul\":8891:8892   */\n      0x00\n        /* \"#utility.yul\":8908:8914   */\n      dup5\n        /* \"#utility.yul\":8905:8982   */\n      iszero\n      tag_242\n      jumpi\n        /* \"#utility.yul\":8957:8966   */\n      dup3\n        /* \"#utility.yul\":8952:8955   */\n      dup8\n        /* \"#utility.yul\":8948:8967   */\n      add\n        /* \"#utility.yul\":8942:8968   */\n      mload\n        /* \"#utility.yul\":8933:8968   */\n      swap1\n      pop\n        /* \"#utility.yul\":8905:8982   */\n    tag_242:\n        /* \"#utility.yul\":9008:9075   */\n      tag_243\n        /* \"#utility.yul\":9068:9074   */\n      dup6\n        /* \"#utility.yul\":9061:9066   */\n      dup3\n        /* \"#utility.yul\":9008:9075   */\n      tag_149\n      jump\t// in\n    tag_243:\n        /* \"#utility.yul\":9002:9006   */\n      dup7\n        /* \"#utility.yul\":8995:9076   */\n      sstore\n        /* \"#utility.yul\":8864:9086   */\n      pop\n        /* \"#utility.yul\":8199:9086   */\n      jump(tag_240)\n        /* \"#utility.yul\":8229:8847   */\n    tag_241:\n        /* \"#utility.yul\":8281:8285   */\n      0x1f\n        /* \"#utility.yul\":8277:8286   */\n      not\n        /* \"#utility.yul\":8269:8275   */\n      dup5\n        /* \"#utility.yul\":8265:8287   */\n      and\n        /* \"#utility.yul\":8315:8352   */\n      tag_244\n        /* \"#utility.yul\":8347:8351   */\n      dup7\n        /* \"#utility.yul\":8315:8352   */\n      tag_135\n      jump\t// in\n    tag_244:\n        /* \"#utility.yul\":8374:8375   */\n      0x00\n        /* \"#utility.yul\":8388:8596   */\n    tag_245:\n        /* \"#utility.yul\":8402:8409   */\n      dup3\n        /* \"#utility.yul\":8399:8400   */\n      dup2\n        /* \"#utility.yul\":8396:8410   */\n      lt\n        /* \"#utility.yul\":8388:8596   */\n      iszero\n      tag_247\n      jumpi\n        /* \"#utility.yul\":8481:8490   */\n      dup5\n        /* \"#utility.yul\":8476:8479   */\n      dup10\n        /* \"#utility.yul\":8472:8491   */\n      add\n        /* \"#utility.yul\":8466:8492   */\n      mload\n        /* \"#utility.yul\":8458:8464   */\n      dup3\n        /* \"#utility.yul\":8451:8493   */\n      sstore\n        /* \"#utility.yul\":8532:8533   */\n      0x01\n        /* \"#utility.yul\":8524:8530   */\n      dup3\n        /* \"#utility.yul\":8520:8534   */\n      add\n        /* \"#utility.yul\":8510:8534   */\n      swap2\n      pop\n        /* \"#utility.yul\":8579:8581   */\n      0x20\n        /* \"#utility.yul\":8568:8577   */\n      dup6\n        /* \"#utility.yul\":8564:8582   */\n      add\n        /* \"#utility.yul\":8551:8582   */\n      swap5\n      pop\n        /* \"#utility.yul\":8425:8429   */\n      0x20\n        /* \"#utility.yul\":8422:8423   */\n      dup2\n        /* \"#utility.yul\":8418:8430   */\n      add\n        /* \"#utility.yul\":8413:8430   */\n      swap1\n      pop\n        /* \"#utility.yul\":8388:8596   */\n      jump(tag_245)\n    tag_247:\n        /* \"#utility.yul\":8624:8630   */\n      dup7\n        /* \"#utility.yul\":8615:8622   */\n      dup4\n        /* \"#utility.yul\":8612:8631   */\n      lt\n        /* \"#utility.yul\":8609:8788   */\n      iszero\n      tag_248\n      jumpi\n        /* \"#utility.yul\":8682:8691   */\n      dup5\n        /* \"#utility.yul\":8677:8680   */\n      dup10\n        /* \"#utility.yul\":8673:8692   */\n      add\n        /* \"#utility.yul\":8667:8693   */\n      mload\n        /* \"#utility.yul\":8725:8773   */\n      tag_249\n        /* \"#utility.yul\":8767:8771   */\n      0x1f\n        /* \"#utility.yul\":8759:8765   */\n      dup10\n        /* \"#utility.yul\":8755:8772   */\n      and\n        /* \"#utility.yul\":8744:8753   */\n      dup3\n        /* \"#utility.yul\":8725:8773   */\n      tag_148\n      jump\t// in\n    tag_249:\n        /* \"#utility.yul\":8717:8723   */\n      dup4\n        /* \"#utility.yul\":8710:8774   */\n      sstore\n        /* \"#utility.yul\":8632:8788   */\n      pop\n        /* \"#utility.yul\":8609:8788   */\n    tag_248:\n        /* \"#utility.yul\":8834:8835   */\n      0x01\n        /* \"#utility.yul\":8830:8831   */\n      0x02\n        /* \"#utility.yul\":8822:8828   */\n      dup9\n        /* \"#utility.yul\":8818:8832   */\n      mul\n        /* \"#utility.yul\":8814:8836   */\n      add\n        /* \"#utility.yul\":8808:8812   */\n      dup9\n        /* \"#utility.yul\":8801:8837   */\n      sstore\n        /* \"#utility.yul\":8236:8847   */\n      pop\n      pop\n      pop\n        /* \"#utility.yul\":8199:9086   */\n    tag_240:\n      pop\n        /* \"#utility.yul\":7789:9092   */\n      pop\n      pop\n      pop\n        /* \"#utility.yul\":7697:9092   */\n      pop\n      pop\n      jump\t// out\n\n    auxdata: 0xa264697066735822122031e9e7a28c6627f4a875255d26f0e22e01aadb9446cc9ad69c9a885fe243e81e64736f6c63430008160033\n}\n",
				"bytecode": {
					"linkReferences": {},
					"object": "608060405260015f55348015610013575f80fd5b50610b1a806100215f395ff3fe608060405234801561000f575f80fd5b50600436106100e8575f3560e01c8063a56dfe4a1161008a578063c298557811610064578063c29855781461021c578063c5d7802e14610226578063cb9f122014610244578063f1e6d19814610262576100e8565b8063a56dfe4a146101c2578063aec3d640146101e0578063be44f864146101fe576100e8565b806319eb4a90116100c657806319eb4a90146101465780632aca45f114610166578063a05f990614610184578063a0d0d59e146101a4576100e8565b806309879682146100ec5780630c55699c1461010a5780631217634914610128575b5f80fd5b6100f4610280565b60405161010191906105f5565b60405180910390f35b610112610299565b60405161011f91906105f5565b60405180910390f35b61013061029e565b60405161013d91906105f5565b60405180910390f35b61014e6102c8565b60405161015d93929190610698565b60405180910390f35b61016e610368565b60405161017b91906105f5565b60405180910390f35b61018c610398565b60405161019b93929190610765565b60405180910390f35b6101ac6103fc565b6040516101b991906105f5565b60405180910390f35b6101ca61042c565b6040516101d791906105f5565b60405180910390f35b6101e8610432565b6040516101f591906105f5565b60405180910390f35b610206610465565b60405161021391906105f5565b60405180910390f35b610224610492565b005b61022e6104e8565b60405161023b91906107a1565b60405180910390f35b61024c610574565b60405161025991906105f5565b60405180910390f35b61026a6105b3565b60405161027791906105f5565b60405180910390f35b5f60018014610292576102916107c1565b5b6001905090565b5f5481565b5f600180146102b0576102af6107c1565b5b600180146102c1576102c06107c1565b5b6001905090565b5f8060605f5460015460028080546102df9061081b565b80601f016020809104026020016040519081016040528092919081815260200182805461030b9061081b565b80156103565780601f1061032d57610100808354040283529160200191610356565b820191905f5260205f20905b81548152906001019060200180831161033957829003601f168201915b50505050509050925092509250909192565b5f62093a80801461037c5761037b6107c1565b5b62093a80801461038f5761038e6107c1565b5b62093a80905090565b5f8060605f3390505f4390505f80368080601f0160208091040260200160405190810160405280939291908181526020018383808284375f81840152601f19601f820116905080830192505050505050509050828282955095509550505050909192565b5f6201518080146104105761040f6107c1565b5b620151808014610423576104226107c1565b5b62015180905090565b60015481565b5f633b9aca008014610447576104466107c1565b5b633b9aca00801461045b5761045a6107c1565b5b633b9aca00905090565b5f610e108014610478576104776107c1565b5b610e10801461048a576104896107c1565b5b610e10905090565b60055f8190555060026001819055506040518060400160405280600481526020017f3078414100000000000000000000000000000000000000000000000000000000815250600290816104e59190610a15565b50565b600280546104f59061081b565b80601f01602080910402602001604051908101604052809291908181526020018280546105219061081b565b801561056c5780601f106105435761010080835404028352916020019161056c565b820191905f5260205f20905b81548152906001019060200180831161054f57829003601f168201915b505050505081565b5f670de0b6b3a7640000801461058d5761058c6107c1565b5b670de0b6b3a764000080146105a5576105a46107c1565b5b670de0b6b3a7640000905090565b5f603c80146105c5576105c46107c1565b5b603c80146105d6576105d56107c1565b5b603c905090565b5f819050919050565b6105ef816105dd565b82525050565b5f6020820190506106085f8301846105e6565b92915050565b5f81519050919050565b5f82825260208201905092915050565b5f5b8381101561064557808201518184015260208101905061062a565b5f8484015250505050565b5f601f19601f8301169050919050565b5f61066a8261060e565b6106748185610618565b9350610684818560208601610628565b61068d81610650565b840191505092915050565b5f6060820190506106ab5f8301866105e6565b6106b860208301856105e6565b81810360408301526106ca8184610660565b9050949350505050565b5f73ffffffffffffffffffffffffffffffffffffffff82169050919050565b5f6106fd826106d4565b9050919050565b61070d816106f3565b82525050565b5f81519050919050565b5f82825260208201905092915050565b5f61073782610713565b610741818561071d565b9350610751818560208601610628565b61075a81610650565b840191505092915050565b5f6060820190506107785f830186610704565b61078560208301856105e6565b8181036040830152610797818461072d565b9050949350505050565b5f6020820190508181035f8301526107b98184610660565b905092915050565b7f4e487b71000000000000000000000000000000000000000000000000000000005f52600160045260245ffd5b7f4e487b71000000000000000000000000000000000000000000000000000000005f52602260045260245ffd5b5f600282049050600182168061083257607f821691505b602082108103610845576108446107ee565b5b50919050565b7f4e487b71000000000000000000000000000000000000000000000000000000005f52604160045260245ffd5b5f819050815f5260205f209050919050565b5f6020601f8301049050919050565b5f82821b905092915050565b5f600883026108d47fffffffffffffffffffffffffffffffffffffffffffffffffffffffffffffffff82610899565b6108de8683610899565b95508019841693508086168417925050509392505050565b5f819050919050565b5f61091961091461090f846105dd565b6108f6565b6105dd565b9050919050565b5f819050919050565b610932836108ff565b61094661093e82610920565b8484546108a5565b825550505050565b5f90565b61095a61094e565b610965818484610929565b505050565b5b818110156109885761097d5f82610952565b60018101905061096b565b5050565b601f8211156109cd5761099e81610878565b6109a78461088a565b810160208510156109b6578190505b6109ca6109c28561088a565b83018261096a565b50505b505050565b5f82821c905092915050565b5f6109ed5f19846008026109d2565b1980831691505092915050565b5f610a0583836109de565b9150826002028217905092915050565b610a1e8261060e565b67ffffffffffffffff811115610a3757610a3661084b565b5b610a41825461081b565b610a4c82828561098c565b5f60209050601f831160018114610a7d575f8415610a6b578287015190505b610a7585826109fa565b865550610adc565b601f198416610a8b86610878565b5f5b82811015610ab257848901518255600182019150602085019450602081019050610a8d565b86831015610acf5784890151610acb601f8916826109de565b8355505b6001600288020188555050505b50505050505056fea264697066735822122031e9e7a28c6627f4a875255d26f0e22e01aadb9446cc9ad69c9a885fe243e81e64736f6c63430008160033",
					"opcodes": "PUSH1 0x80 PUSH1 0x40 MSTORE PUSH1 0x1 PUSH0 SSTORE CALLVALUE DUP1 ISZERO PUSH2 0x13 JUMPI PUSH0 DUP1 REVERT JUMPDEST POP PUSH2 0xB1A DUP1 PUSH2 0x21 PUSH0 CODECOPY PUSH0 RETURN INVALID PUSH1 0x80 PUSH1 0x40 MSTORE CALLVALUE DUP1 ISZERO PUSH2 0xF JUMPI PUSH0 DUP1 REVERT JUMPDEST POP PUSH1 0x4 CALLDATASIZE LT PUSH2 0xE8 JUMPI PUSH0 CALLDATALOAD PUSH1 0xE0 SHR DUP1 PUSH4 0xA56DFE4A GT PUSH2 0x8A JUMPI DUP1 PUSH4 0xC2985578 GT PUSH2 0x64 JUMPI DUP1 PUSH4 0xC2985578 EQ PUSH2 0x21C JUMPI DUP1 PUSH4 0xC5D7802E EQ PUSH2 0x226 JUMPI DUP1 PUSH4 0xCB9F1220 EQ PUSH2 0x244 JUMPI DUP1 PUSH4 0xF1E6D198 EQ PUSH2 0x262 JUMPI PUSH2 0xE8 JUMP JUMPDEST DUP1 PUSH4 0xA56DFE4A EQ PUSH2 0x1C2 JUMPI DUP1 PUSH4 0xAEC3D640 EQ PUSH2 0x1E0 JUMPI DUP1 PUSH4 0xBE44F864 EQ PUSH2 0x1FE JUMPI PUSH2 0xE8 JUMP JUMPDEST DUP1 PUSH4 0x19EB4A90 GT PUSH2 0xC6 JUMPI DUP1 PUSH4 0x19EB4A90 EQ PUSH2 0x146 JUMPI DUP1 PUSH4 0x2ACA45F1 EQ PUSH2 0x166 JUMPI DUP1 PUSH4 0xA05F9906 EQ PUSH2 0x184 JUMPI DUP1 PUSH4 0xA0D0D59E EQ PUSH2 0x1A4 JUMPI PUSH2 0xE8 JUMP JUMPDEST DUP1 PUSH4 0x9879682 EQ PUSH2 0xEC JUMPI DUP1 PUSH4 0xC55699C EQ PUSH2 0x10A JUMPI DUP1 PUSH4 0x12176349 EQ PUSH2 0x128 JUMPI JUMPDEST PUSH0 DUP1 REVERT JUMPDEST PUSH2 0xF4 PUSH2 0x280 JUMP JUMPDEST PUSH1 0x40 MLOAD PUSH2 0x101 SWAP2 SWAP1 PUSH2 0x5F5 JUMP JUMPDEST PUSH1 0x40 MLOAD DUP1 SWAP2 SUB SWAP1 RETURN JUMPDEST PUSH2 0x112 PUSH2 0x299 JUMP JUMPDEST PUSH1 0x40 MLOAD PUSH2 0x11F SWAP2 SWAP1 PUSH2 0x5F5 JUMP JUMPDEST PUSH1 0x40 MLOAD DUP1 SWAP2 SUB SWAP1 RETURN JUMPDEST PUSH2 0x130 PUSH2 0x29E JUMP JUMPDEST PUSH1 0x40 MLOAD PUSH2 0x13D SWAP2 SWAP1 PUSH2 0x5F5 JUMP JUMPDEST PUSH1 0x40 MLOAD DUP1 SWAP2 SUB SWAP1 RETURN JUMPDEST PUSH2 0x14E PUSH2 0x2C8 JUMP JUMPDEST PUSH1 0x40 MLOAD PUSH2 0x15D SWAP4 SWAP3 SWAP2 SWAP1 PUSH2 0x698 JUMP JUMPDEST PUSH1 0x40 MLOAD DUP1 SWAP2 SUB SWAP1 RETURN JUMPDEST PUSH2 0x16E PUSH2 0x368 JUMP JUMPDEST PUSH1 0x40 MLOAD PUSH2 0x17B SWAP2 SWAP1 PUSH2 0x5F5 JUMP JUMPDEST PUSH1 0x40 MLOAD DUP1 SWAP2 SUB SWAP1 RETURN JUMPDEST PUSH2 0x18C PUSH2 0x398 JUMP JUMPDEST PUSH1 0x40 MLOAD PUSH2 0x19B SWAP4 SWAP3 SWAP2 SWAP1 PUSH2 0x765 JUMP JUMPDEST PUSH1 0x40 MLOAD DUP1 SWAP2 SUB SWAP1 RETURN JUMPDEST PUSH2 0x1AC PUSH2 0x3FC JUMP JUMPDEST PUSH1 0x40 MLOAD PUSH2 0x1B9 SWAP2 SWAP1 PUSH2 0x5F5 JUMP JUMPDEST PUSH1 0x40 MLOAD DUP1 SWAP2 SUB SWAP1 RETURN JUMPDEST PUSH2 0x1CA PUSH2 0x42C JUMP JUMPDEST PUSH1 0x40 MLOAD PUSH2 0x1D7 SWAP2 SWAP1 PUSH2 0x5F5 JUMP JUMPDEST PUSH1 0x40 MLOAD DUP1 SWAP2 SUB SWAP1 RETURN JUMPDEST PUSH2 0x1E8 PUSH2 0x432 JUMP JUMPDEST PUSH1 0x40 MLOAD PUSH2 0x1F5 SWAP2 SWAP1 PUSH2 0x5F5 JUMP JUMPDEST PUSH1 0x40 MLOAD DUP1 SWAP2 SUB SWAP1 RETURN JUMPDEST PUSH2 0x206 PUSH2 0x465 JUMP JUMPDEST PUSH1 0x40 MLOAD PUSH2 0x213 SWAP2 SWAP1 PUSH2 0x5F5 JUMP JUMPDEST PUSH1 0x40 MLOAD DUP1 SWAP2 SUB SWAP1 RETURN JUMPDEST PUSH2 0x224 PUSH2 0x492 JUMP JUMPDEST STOP JUMPDEST PUSH2 0x22E PUSH2 0x4E8 JUMP JUMPDEST PUSH1 0x40 MLOAD PUSH2 0x23B SWAP2 SWAP1 PUSH2 0x7A1 JUMP JUMPDEST PUSH1 0x40 MLOAD DUP1 SWAP2 SUB SWAP1 RETURN JUMPDEST PUSH2 0x24C PUSH2 0x574 JUMP JUMPDEST PUSH1 0x40 MLOAD PUSH2 0x259 SWAP2 SWAP1 PUSH2 0x5F5 JUMP JUMPDEST PUSH1 0x40 MLOAD DUP1 SWAP2 SUB SWAP1 RETURN JUMPDEST PUSH2 0x26A PUSH2 0x5B3 JUMP JUMPDEST PUSH1 0x40 MLOAD PUSH2 0x277 SWAP2 SWAP1 PUSH2 0x5F5 JUMP JUMPDEST PUSH1 0x40 MLOAD DUP1 SWAP2 SUB SWAP1 RETURN JUMPDEST PUSH0 PUSH1 0x1 DUP1 EQ PUSH2 0x292 JUMPI PUSH2 0x291 PUSH2 0x7C1 JUMP JUMPDEST JUMPDEST PUSH1 0x1 SWAP1 POP SWAP1 JUMP JUMPDEST PUSH0 SLOAD DUP2 JUMP JUMPDEST PUSH0 PUSH1 0x1 DUP1 EQ PUSH2 0x2B0 JUMPI PUSH2 0x2AF PUSH2 0x7C1 JUMP JUMPDEST JUMPDEST PUSH1 0x1 DUP1 EQ PUSH2 0x2C1 JUMPI PUSH2 0x2C0 PUSH2 0x7C1 JUMP JUMPDEST JUMPDEST PUSH1 0x1 SWAP1 POP SWAP1 JUMP JUMPDEST PUSH0 DUP1 PUSH1 0x60 PUSH0 SLOAD PUSH1 0x1 SLOAD PUSH1 0x2 DUP1 DUP1 SLOAD PUSH2 0x2DF SWAP1 PUSH2 0x81B JUMP JUMPDEST DUP1 PUSH1 0x1F ADD PUSH1 0x20 DUP1 SWAP2 DIV MUL PUSH1 0x20 ADD PUSH1 0x40 MLOAD SWAP1 DUP2 ADD PUSH1 0x40 MSTORE DUP1 SWAP3 SWAP2 SWAP1 DUP2 DUP2 MSTORE PUSH1 0x20 ADD DUP3 DUP1 SLOAD PUSH2 0x30B SWAP1 PUSH2 0x81B JUMP JUMPDEST DUP1 ISZERO PUSH2 0x356 JUMPI DUP1 PUSH1 0x1F LT PUSH2 0x32D JUMPI PUSH2 0x100 DUP1 DUP4 SLOAD DIV MUL DUP4 MSTORE SWAP2 PUSH1 0x20 ADD SWAP2 PUSH2 0x356 JUMP JUMPDEST DUP3 ADD SWAP2 SWAP1 PUSH0 MSTORE PUSH1 0x20 PUSH0 KECCAK256 SWAP1 JUMPDEST DUP2 SLOAD DUP2 MSTORE SWAP1 PUSH1 0x1 ADD SWAP1 PUSH1 0x20 ADD DUP1 DUP4 GT PUSH2 0x339 JUMPI DUP3 SWAP1 SUB PUSH1 0x1F AND DUP3 ADD SWAP2 JUMPDEST POP POP POP POP POP SWAP1 POP SWAP3 POP SWAP3 POP SWAP3 POP SWAP1 SWAP2 SWAP3 JUMP JUMPDEST PUSH0 PUSH3 0x93A80 DUP1 EQ PUSH2 0x37C JUMPI PUSH2 0x37B PUSH2 0x7C1 JUMP JUMPDEST JUMPDEST PUSH3 0x93A80 DUP1 EQ PUSH2 0x38F JUMPI PUSH2 0x38E PUSH2 0x7C1 JUMP JUMPDEST JUMPDEST PUSH3 0x93A80 SWAP1 POP SWAP1 JUMP JUMPDEST PUSH0 DUP1 PUSH1 0x60 PUSH0 CALLER SWAP1 POP PUSH0 NUMBER SWAP1 POP PUSH0 DUP1 CALLDATASIZE DUP1 DUP1 PUSH1 0x1F ADD PUSH1 0x20 DUP1 SWAP2 DIV MUL PUSH1 0x20 ADD PUSH1 0x40 MLOAD SWAP1 DUP2 ADD PUSH1 0x40 MSTORE DUP1 SWAP4 SWAP3 SWAP2 SWAP1 DUP2 DUP2 MSTORE PUSH1 0x20 ADD DUP4 DUP4 DUP1 DUP3 DUP5 CALLDATACOPY PUSH0 DUP2 DUP5 ADD MSTORE PUSH1 0x1F NOT PUSH1 0x1F DUP3 ADD AND SWAP1 POP DUP1 DUP4 ADD SWAP3 POP POP POP POP POP POP POP SWAP1 POP DUP3 DUP3 DUP3 SWAP6 POP SWAP6 POP SWAP6 POP POP POP POP SWAP1 SWAP2 SWAP3 JUMP JUMPDEST PUSH0 PUSH3 0x15180 DUP1 EQ PUSH2 0x410 JUMPI PUSH2 0x40F PUSH2 0x7C1 JUMP JUMPDEST JUMPDEST PUSH3 0x15180 DUP1 EQ PUSH2 0x423 JUMPI PUSH2 0x422 PUSH2 0x7C1 JUMP JUMPDEST JUMPDEST PUSH3 0x15180 SWAP1 POP SWAP1 JUMP JUMPDEST PUSH1 0x1 SLOAD DUP2 JUMP JUMPDEST PUSH0 PUSH4 0x3B9ACA00 DUP1 EQ PUSH2 0x447 JUMPI PUSH2 0x446 PUSH2 0x7C1 JUMP JUMPDEST JUMPDEST PUSH4 0x3B9ACA00 DUP1 EQ PUSH2 0x45B JUMPI PUSH2 0x45A PUSH2 0x7C1 JUMP JUMPDEST JUMPDEST PUSH4 0x3B9ACA00 SWAP1 POP SWAP1 JUMP JUMPDEST PUSH0 PUSH2 0xE10 DUP1 EQ PUSH2 0x478 JUMPI PUSH2 0x477 PUSH2 0x7C1 JUMP JUMPDEST JUMPDEST PUSH2 0xE10 DUP1 EQ PUSH2 0x48A JUMPI PUSH2 0x489 PUSH2 0x7C1 JUMP JUMPDEST JUMPDEST PUSH2 0xE10 SWAP1 POP SWAP1 JUMP JUMPDEST PUSH1 0x5 PUSH0 DUP2 SWAP1 SSTORE POP PUSH1 0x2 PUSH1 0x1 DUP2 SWAP1 SSTORE POP PUSH1 0x40 MLOAD DUP1 PUSH1 0x40 ADD PUSH1 0x40 MSTORE DUP1 PUSH1 0x4 DUP2 MSTORE PUSH1 0x20 ADD PUSH32 0x3078414100000000000000000000000000000000000000000000000000000000 DUP2 MSTORE POP PUSH1 0x2 SWAP1 DUP2 PUSH2 0x4E5 SWAP2 SWAP1 PUSH2 0xA15 JUMP JUMPDEST POP JUMP JUMPDEST PUSH1 0x2 DUP1 SLOAD PUSH2 0x4F5 SWAP1 PUSH2 0x81B JUMP JUMPDEST DUP1 PUSH1 0x1F ADD PUSH1 0x20 DUP1 SWAP2 DIV MUL PUSH1 0x20 ADD PUSH1 0x40 MLOAD SWAP1 DUP2 ADD PUSH1 0x40 MSTORE DUP1 SWAP3 SWAP2 SWAP1 DUP2 DUP2 MSTORE PUSH1 0x20 ADD DUP3 DUP1 SLOAD PUSH2 0x521 SWAP1 PUSH2 0x81B JUMP JUMPDEST DUP1 ISZERO PUSH2 0x56C JUMPI DUP1 PUSH1 0x1F LT PUSH2 0x543 JUMPI PUSH2 0x100 DUP1 DUP4 SLOAD DIV MUL DUP4 MSTORE SWAP2 PUSH1 0x20 ADD SWAP2 PUSH2 0x56C JUMP JUMPDEST DUP3 ADD SWAP2 SWAP1 PUSH0 MSTORE PUSH1 0x20 PUSH0 KECCAK256 SWAP1 JUMPDEST DUP2 SLOAD DUP2 MSTORE SWAP1 PUSH1 0x1 ADD SWAP1 PUSH1 0x20 ADD DUP1 DUP4 GT PUSH2 0x54F JUMPI DUP3 SWAP1 SUB PUSH1 0x1F AND DUP3 ADD SWAP2 JUMPDEST POP POP POP POP POP DUP2 JUMP JUMPDEST PUSH0 PUSH8 0xDE0B6B3A7640000 DUP1 EQ PUSH2 0x58D JUMPI PUSH2 0x58C PUSH2 0x7C1 JUMP JUMPDEST JUMPDEST PUSH8 0xDE0B6B3A7640000 DUP1 EQ PUSH2 0x5A5 JUMPI PUSH2 0x5A4 PUSH2 0x7C1 JUMP JUMPDEST JUMPDEST PUSH8 0xDE0B6B3A7640000 SWAP1 POP SWAP1 JUMP JUMPDEST PUSH0 PUSH1 0x3C DUP1 EQ PUSH2 0x5C5 JUMPI PUSH2 0x5C4 PUSH2 0x7C1 JUMP JUMPDEST JUMPDEST PUSH1 0x3C DUP1 EQ PUSH2 0x5D6 JUMPI PUSH2 0x5D5 PUSH2 0x7C1 JUMP JUMPDEST JUMPDEST PUSH1 0x3C SWAP1 POP SWAP1 JUMP JUMPDEST PUSH0 DUP2 SWAP1 POP SWAP2 SWAP1 POP JUMP JUMPDEST PUSH2 0x5EF DUP2 PUSH2 0x5DD JUMP JUMPDEST DUP3 MSTORE POP POP JUMP JUMPDEST PUSH0 PUSH1 0x20 DUP3 ADD SWAP1 POP PUSH2 0x608 PUSH0 DUP4 ADD DUP5 PUSH2 0x5E6 JUMP JUMPDEST SWAP3 SWAP2 POP POP JUMP JUMPDEST PUSH0 DUP2 MLOAD SWAP1 POP SWAP2 SWAP1 POP JUMP JUMPDEST PUSH0 DUP3 DUP3 MSTORE PUSH1 0x20 DUP3 ADD SWAP1 POP SWAP3 SWAP2 POP POP JUMP JUMPDEST PUSH0 JUMPDEST DUP4 DUP2 LT ISZERO PUSH2 0x645 JUMPI DUP1 DUP3 ADD MLOAD DUP2 DUP5 ADD MSTORE PUSH1 0x20 DUP2 ADD SWAP1 POP PUSH2 0x62A JUMP JUMPDEST PUSH0 DUP5 DUP5 ADD MSTORE POP POP POP POP JUMP JUMPDEST PUSH0 PUSH1 0x1F NOT PUSH1 0x1F DUP4 ADD AND SWAP1 POP SWAP2 SWAP1 POP JUMP JUMPDEST PUSH0 PUSH2 0x66A DUP3 PUSH2 0x60E JUMP JUMPDEST PUSH2 0x674 DUP2 DUP6 PUSH2 0x618 JUMP JUMPDEST SWAP4 POP PUSH2 0x684 DUP2 DUP6 PUSH1 0x20 DUP7 ADD PUSH2 0x628 JUMP JUMPDEST PUSH2 0x68D DUP2 PUSH2 0x650 JUMP JUMPDEST DUP5 ADD SWAP2 POP POP SWAP3 SWAP2 POP POP JUMP JUMPDEST PUSH0 PUSH1 0x60 DUP3 ADD SWAP1 POP PUSH2 0x6AB PUSH0 DUP4 ADD DUP7 PUSH2 0x5E6 JUMP JUMPDEST PUSH2 0x6B8 PUSH1 0x20 DUP4 ADD DUP6 PUSH2 0x5E6 JUMP JUMPDEST DUP2 DUP2 SUB PUSH1 0x40 DUP4 ADD MSTORE PUSH2 0x6CA DUP2 DUP5 PUSH2 0x660 JUMP JUMPDEST SWAP1 POP SWAP5 SWAP4 POP POP POP POP JUMP JUMPDEST PUSH0 PUSH20 0xFFFFFFFFFFFFFFFFFFFFFFFFFFFFFFFFFFFFFFFF DUP3 AND SWAP1 POP SWAP2 SWAP1 POP JUMP JUMPDEST PUSH0 PUSH2 0x6FD DUP3 PUSH2 0x6D4 JUMP JUMPDEST SWAP1 POP SWAP2 SWAP1 POP JUMP JUMPDEST PUSH2 0x70D DUP2 PUSH2 0x6F3 JUMP JUMPDEST DUP3 MSTORE POP POP JUMP JUMPDEST PUSH0 DUP2 MLOAD SWAP1 POP SWAP2 SWAP1 POP JUMP JUMPDEST PUSH0 DUP3 DUP3 MSTORE PUSH1 0x20 DUP3 ADD SWAP1 POP SWAP3 SWAP2 POP POP JUMP JUMPDEST PUSH0 PUSH2 0x737 DUP3 PUSH2 0x713 JUMP JUMPDEST PUSH2 0x741 DUP2 DUP6 PUSH2 0x71D JUMP JUMPDEST SWAP4 POP PUSH2 0x751 DUP2 DUP6 PUSH1 0x20 DUP7 ADD PUSH2 0x628 JUMP JUMPDEST PUSH2 0x75A DUP2 PUSH2 0x650 JUMP JUMPDEST DUP5 ADD SWAP2 POP POP SWAP3 SWAP2 POP POP JUMP JUMPDEST PUSH0 PUSH1 0x60 DUP3 ADD SWAP1 POP PUSH2 0x778 PUSH0 DUP4 ADD DUP7 PUSH2 0x704 JUMP JUMPDEST PUSH2 0x785 PUSH1 0x20 DUP4 ADD DUP6 PUSH2 0x5E6 JUMP JUMPDEST DUP2 DUP2 SUB PUSH1 0x40 DUP4 ADD MSTORE PUSH2 0x797 DUP2 DUP5 PUSH2 0x72D JUMP JUMPDEST SWAP1 POP SWAP5 SWAP4 POP POP POP POP JUMP JUMPDEST PUSH0 PUSH1 0x20 DUP3 ADD SWAP1 POP DUP2 DUP2 SUB PUSH0 DUP4 ADD MSTORE PUSH2 0x7B9 DUP2 DUP5 PUSH2 0x660 JUMP JUMPDEST SWAP1 POP SWAP3 SWAP2 POP POP JUMP JUMPDEST PUSH32 0x4E487B7100000000000000000000000000000000000000000000000000000000 PUSH0 MSTORE PUSH1 0x1 PUSH1 0x4 MSTORE PUSH1 0x24 PUSH0 REVERT JUMPDEST PUSH32 0x4E487B7100000000000000000000000000000000000000000000000000000000 PUSH0 MSTORE PUSH1 0x22 PUSH1 0x4 MSTORE PUSH1 0x24 PUSH0 REVERT JUMPDEST PUSH0 PUSH1 0x2 DUP3 DIV SWAP1 POP PUSH1 0x1 DUP3 AND DUP1 PUSH2 0x832 JUMPI PUSH1 0x7F DUP3 AND SWAP2 POP JUMPDEST PUSH1 0x20 DUP3 LT DUP2 SUB PUSH2 0x845 JUMPI PUSH2 0x844 PUSH2 0x7EE JUMP JUMPDEST JUMPDEST POP SWAP2 SWAP1 POP JUMP JUMPDEST PUSH32 0x4E487B7100000000000000000000000000000000000000000000000000000000 PUSH0 MSTORE PUSH1 0x41 PUSH1 0x4 MSTORE PUSH1 0x24 PUSH0 REVERT JUMPDEST PUSH0 DUP2 SWAP1 POP DUP2 PUSH0 MSTORE PUSH1 0x20 PUSH0 KECCAK256 SWAP1 POP SWAP2 SWAP1 POP JUMP JUMPDEST PUSH0 PUSH1 0x20 PUSH1 0x1F DUP4 ADD DIV SWAP1 POP SWAP2 SWAP1 POP JUMP JUMPDEST PUSH0 DUP3 DUP3 SHL SWAP1 POP SWAP3 SWAP2 POP POP JUMP JUMPDEST PUSH0 PUSH1 0x8 DUP4 MUL PUSH2 0x8D4 PUSH32 0xFFFFFFFFFFFFFFFFFFFFFFFFFFFFFFFFFFFFFFFFFFFFFFFFFFFFFFFFFFFFFFFF DUP3 PUSH2 0x899 JUMP JUMPDEST PUSH2 0x8DE DUP7 DUP4 PUSH2 0x899 JUMP JUMPDEST SWAP6 POP DUP1 NOT DUP5 AND SWAP4 POP DUP1 DUP7 AND DUP5 OR SWAP3 POP POP POP SWAP4 SWAP3 POP POP POP JUMP JUMPDEST PUSH0 DUP2 SWAP1 POP SWAP2 SWAP1 POP JUMP JUMPDEST PUSH0 PUSH2 0x919 PUSH2 0x914 PUSH2 0x90F DUP5 PUSH2 0x5DD JUMP JUMPDEST PUSH2 0x8F6 JUMP JUMPDEST PUSH2 0x5DD JUMP JUMPDEST SWAP1 POP SWAP2 SWAP1 POP JUMP JUMPDEST PUSH0 DUP2 SWAP1 POP SWAP2 SWAP1 POP JUMP JUMPDEST PUSH2 0x932 DUP4 PUSH2 0x8FF JUMP JUMPDEST PUSH2 0x946 PUSH2 0x93E DUP3 PUSH2 0x920 JUMP JUMPDEST DUP5 DUP5 SLOAD PUSH2 0x8A5 JUMP JUMPDEST DUP3 SSTORE POP POP POP POP JUMP JUMPDEST PUSH0 SWAP1 JUMP JUMPDEST PUSH2 0x95A PUSH2 0x94E JUMP JUMPDEST PUSH2 0x965 DUP2 DUP5 DUP5 PUSH2 0x929 JUMP JUMPDEST POP POP POP JUMP JUMPDEST JUMPDEST DUP2 DUP2 LT ISZERO PUSH2 0x988 JUMPI PUSH2 0x97D PUSH0 DUP3 PUSH2 0x952 JUMP JUMPDEST PUSH1 0x1 DUP2 ADD SWAP1 POP PUSH2 0x96B JUMP JUMPDEST POP POP JUMP JUMPDEST PUSH1 0x1F DUP3 GT ISZERO PUSH2 0x9CD JUMPI PUSH2 0x99E DUP2 PUSH2 0x878 JUMP JUMPDEST PUSH2 0x9A7 DUP5 PUSH2 0x88A JUMP JUMPDEST DUP2 ADD PUSH1 0x20 DUP6 LT ISZERO PUSH2 0x9B6 JUMPI DUP2 SWAP1 POP JUMPDEST PUSH2 0x9CA PUSH2 0x9C2 DUP6 PUSH2 0x88A JUMP JUMPDEST DUP4 ADD DUP3 PUSH2 0x96A JUMP JUMPDEST POP POP JUMPDEST POP POP POP JUMP JUMPDEST PUSH0 DUP3 DUP3 SHR SWAP1 POP SWAP3 SWAP2 POP POP JUMP JUMPDEST PUSH0 PUSH2 0x9ED PUSH0 NOT DUP5 PUSH1 0x8 MUL PUSH2 0x9D2 JUMP JUMPDEST NOT DUP1 DUP4 AND SWAP2 POP POP SWAP3 SWAP2 POP POP JUMP JUMPDEST PUSH0 PUSH2 0xA05 DUP4 DUP4 PUSH2 0x9DE JUMP JUMPDEST SWAP2 POP DUP3 PUSH1 0x2 MUL DUP3 OR SWAP1 POP SWAP3 SWAP2 POP POP JUMP JUMPDEST PUSH2 0xA1E DUP3 PUSH2 0x60E JUMP JUMPDEST PUSH8 0xFFFFFFFFFFFFFFFF DUP2 GT ISZERO PUSH2 0xA37 JUMPI PUSH2 0xA36 PUSH2 0x84B JUMP JUMPDEST JUMPDEST PUSH2 0xA41 DUP3 SLOAD PUSH2 0x81B JUMP JUMPDEST PUSH2 0xA4C DUP3 DUP3 DUP6 PUSH2 0x98C JUMP JUMPDEST PUSH0 PUSH1 0x20 SWAP1 POP PUSH1 0x1F DUP4 GT PUSH1 0x1 DUP2 EQ PUSH2 0xA7D JUMPI PUSH0 DUP5 ISZERO PUSH2 0xA6B JUMPI DUP3 DUP8 ADD MLOAD SWAP1 POP JUMPDEST PUSH2 0xA75 DUP6 DUP3 PUSH2 0x9FA JUMP JUMPDEST DUP7 SSTORE POP PUSH2 0xADC JUMP JUMPDEST PUSH1 0x1F NOT DUP5 AND PUSH2 0xA8B DUP7 PUSH2 0x878 JUMP JUMPDEST PUSH0 JUMPDEST DUP3 DUP2 LT ISZERO PUSH2 0xAB2 JUMPI DUP5 DUP10 ADD MLOAD DUP3 SSTORE PUSH1 0x1 DUP3 ADD SWAP2 POP PUSH1 0x20 DUP6 ADD SWAP5 POP PUSH1 0x20 DUP2 ADD SWAP1 POP PUSH2 0xA8D JUMP JUMPDEST DUP7 DUP4 LT ISZERO PUSH2 0xACF JUMPI DUP5 DUP10 ADD MLOAD PUSH2 0xACB PUSH1 0x1F DUP10 AND DUP3 PUSH2 0x9DE JUMP JUMPDEST DUP4 SSTORE POP JUMPDEST PUSH1 0x1 PUSH1 0x2 DUP9 MUL ADD DUP9 SSTORE POP POP POP JUMPDEST POP POP POP POP POP POP JUMP INVALID LOG2 PUSH5 0x6970667358 0x22 SLT KECCAK256 BALANCE 0xE9 0xE7 LOG2 DUP13 PUSH7 0x27F4A875255D26 CREATE 0xE2 0x2E ADD 0xAA 0xDB SWAP5 CHAINID 0xCC SWAP11 0xD6 SWAP13 SWAP11 DUP9 PUSH0 0xE2 NUMBER 0xE8 0x1E PUSH5 0x736F6C6343 STOP ADDMOD AND STOP CALLER "
				},
				"gasEstimates": {
					"creation": {
						"codeDepositCost": "568400",
						"executionCost": "22703",
						"totalCost": "591103"
					},
					"external": {
						"daysUnit()": "467",
						"etherUnit()": "444",
						"foo()": "infinite",
						"getValues()": "infinite",
						"global()": "infinite",
						"gweiUnit()": "423",
						"hoursUnit()": "445",
						"minutesUnit()": "466",
						"secondsUnit()": "379",
						"weeksUnit()": "423",
						"weiUnit()": "446",
						"x()": "2470",
						"y()": "2448",
						"z()": "infinite"
					}
				},
				"methodIdentifiers": {
					"daysUnit()": "a0d0d59e",
					"etherUnit()": "cb9f1220",
					"foo()": "c2985578",
					"getValues()": "19eb4a90",
					"global()": "a05f9906",
					"gweiUnit()": "aec3d640",
					"hoursUnit()": "be44f864",
					"minutesUnit()": "f1e6d198",
					"secondsUnit()": "09879682",
					"weeksUnit()": "2aca45f1",
					"weiUnit()": "12176349",
					"x()": "0c55699c",
					"y()": "a56dfe4a",
					"z()": "c5d7802e"
				}
			},
			"storageLayout": {
				"storage": [
					{
						"astId": 4,
						"contract": "contracts/006_Variables.sol:Variables",
						"label": "x",
						"offset": 0,
						"slot": "0",
						"type": "t_uint256"
					},
					{
						"astId": 6,
						"contract": "contracts/006_Variables.sol:Variables",
						"label": "y",
						"offset": 0,
						"slot": "1",
						"type": "t_uint256"
					},
					{
						"astId": 8,
						"contract": "contracts/006_Variables.sol:Variables",
						"label": "z",
						"offset": 0,
						"slot": "2",
						"type": "t_string_storage"
					}
				],
				"types": {
					"t_string_storage": {
						"encoding": "bytes",
						"label": "string",
						"numberOfBytes": "32"
					},
					"t_uint256": {
						"encoding": "inplace",
						"label": "uint256",
						"numberOfBytes": "32"
					}
				}
			},
			"userdoc": {
				"kind": "user",
				"methods": {},
				"version": 1
			}
		}
	}
}