{
	"data": {
		"bytecode": {
			"linkReferences": {},
			"object": "608060405260015f55348015610013575f80fd5b50610b1a806100215f395ff3fe608060405234801561000f575f80fd5b50600436106100e8575f3560e01c8063a56dfe4a1161008a578063c298557811610064578063c29855781461021c578063c5d7802e14610226578063cb9f122014610244578063f1e6d19814610262576100e8565b8063a56dfe4a146101c2578063aec3d640146101e0578063be44f864146101fe576100e8565b806319eb4a90116100c657806319eb4a90146101465780632aca45f114610166578063a05f990614610184578063a0d0d59e146101a4576100e8565b806309879682146100ec5780630c55699c1461010a5780631217634914610128575b5f80fd5b6100f4610280565b60405161010191906105f5565b60405180910390f35b610112610299565b60405161011f91906105f5565b60405180910390f35b61013061029e565b60405161013d91906105f5565b60405180910390f35b61014e6102c8565b60405161015d93929190610698565b60405180910390f35b61016e610368565b60405161017b91906105f5565b60405180910390f35b61018c610398565b60405161019b93929190610765565b60405180910390f35b6101ac6103fc565b6040516101b991906105f5565b60405180910390f35b6101ca61042c565b6040516101d791906105f5565b60405180910390f35b6101e8610432565b6040516101f591906105f5565b60405180910390f35b610206610465565b60405161021391906105f5565b60405180910390f35b610224610492565b005b61022e6104e8565b60405161023b91906107a1565b60405180910390f35b61024c610574565b60405161025991906105f5565b60405180910390f35b61026a6105b3565b60405161027791906105f5565b60405180910390f35b5f60018014610292576102916107c1565b5b6001905090565b5f5481565b5f600180146102b0576102af6107c1565b5b600180146102c1576102c06107c1565b5b6001905090565b5f8060605f5460015460028080546102df9061081b565b80601f016020809104026020016040519081016040528092919081815260200182805461030b9061081b565b80156103565780601f1061032d57610100808354040283529160200191610356565b820191905f5260205f20905b81548152906001019060200180831161033957829003601f168201915b50505050509050925092509250909192565b5f62093a80801461037c5761037b6107c1565b5b62093a80801461038f5761038e6107c1565b5b62093a80905090565b5f8060605f3390505f4390505f80368080601f0160208091040260200160405190810160405280939291908181526020018383808284375f81840152601f19601f820116905080830192505050505050509050828282955095509550505050909192565b5f6201518080146104105761040f6107c1565b5b620151808014610423576104226107c1565b5b62015180905090565b60015481565b5f633b9aca008014610447576104466107c1565b5b633b9aca00801461045b5761045a6107c1565b5b633b9aca00905090565b5f610e108014610478576104776107c1565b5b610e10801461048a576104896107c1565b5b610e10905090565b60055f8190555060026001819055506040518060400160405280600481526020017f3078414100000000000000000000000000000000000000000000000000000000815250600290816104e59190610a15565b50565b600280546104f59061081b565b80601f01602080910402602001604051908101604052809291908181526020018280546105219061081b565b801561056c5780601f106105435761010080835404028352916020019161056c565b820191905f5260205f20905b81548152906001019060200180831161054f57829003601f168201915b505050505081565b5f670de0b6b3a7640000801461058d5761058c6107c1565b5b670de0b6b3a764000080146105a5576105a46107c1565b5b670de0b6b3a7640000905090565b5f603c80146105c5576105c46107c1565b5b603c80146105d6576105d56107c1565b5b603c905090565b5f819050919050565b6105ef816105dd565b82525050565b5f6020820190506106085f8301846105e6565b92915050565b5f81519050919050565b5f82825260208201905092915050565b5f5b8381101561064557808201518184015260208101905061062a565b5f8484015250505050565b5f601f19601f8301169050919050565b5f61066a8261060e565b6106748185610618565b9350610684818560208601610628565b61068d81610650565b840191505092915050565b5f6060820190506106ab5f8301866105e6565b6106b860208301856105e6565b81810360408301526106ca8184610660565b9050949350505050565b5f73ffffffffffffffffffffffffffffffffffffffff82169050919050565b5f6106fd826106d4565b9050919050565b61070d816106f3565b82525050565b5f81519050919050565b5f82825260208201905092915050565b5f61073782610713565b610741818561071d565b9350610751818560208601610628565b61075a81610650565b840191505092915050565b5f6060820190506107785f830186610704565b61078560208301856105e6565b8181036040830152610797818461072d565b9050949350505050565b5f6020820190508181035f8301526107b98184610660565b905092915050565b7f4e487b71000000000000000000000000000000000000000000000000000000005f52600160045260245ffd5b7f4e487b71000000000000000000000000000000000000000000000000000000005f52602260045260245ffd5b5f600282049050600182168061083257607f821691505b602082108103610845576108446107ee565b5b50919050565b7f4e487b71000000000000000000000000000000000000000000000000000000005f52604160045260245ffd5b5f819050815f5260205f209050919050565b5f6020601f8301049050919050565b5f82821b905092915050565b5f600883026108d47fffffffffffffffffffffffffffffffffffffffffffffffffffffffffffffffff82610899565b6108de8683610899565b95508019841693508086168417925050509392505050565b5f819050919050565b5f61091961091461090f846105dd565b6108f6565b6105dd565b9050919050565b5f819050919050565b610932836108ff565b61094661093e82610920565b8484546108a5565b825550505050565b5f90565b61095a61094e565b610965818484610929565b505050565b5b818110156109885761097d5f82610952565b60018101905061096b565b5050565b601f8211156109cd5761099e81610878565b6109a78461088a565b810160208510156109b6578190505b6109ca6109c28561088a565b83018261096a565b50505b505050565b5f82821c905092915050565b5f6109ed5f19846008026109d2565b1980831691505092915050565b5f610a0583836109de565b9150826002028217905092915050565b610a1e8261060e565b67ffffffffffffffff811115610a3757610a3661084b565b5b610a41825461081b565b610a4c82828561098c565b5f60209050601f831160018114610a7d575f8415610a6b578287015190505b610a7585826109fa565b865550610adc565b601f198416610a8b86610878565b5f5b82811015610ab257848901518255600182019150602085019450602081019050610a8d565b86831015610acf5784890151610acb601f8916826109de565b8355505b6001600288020188555050505b50505050505056fea2646970667358221220f40d132d5e4277aeac0a9fbfc84ebc76d9b4a5afddab89ac50af0ae672ff05ae64736f6c63430008160033",
			"opcodes": "PUSH1 0x80 PUSH1 0x40 MSTORE PUSH1 0x1 PUSH0 SSTORE CALLVALUE DUP1 ISZERO PUSH2 0x13 JUMPI PUSH0 DUP1 REVERT JUMPDEST POP PUSH2 0xB1A DUP1 PUSH2 0x21 PUSH0 CODECOPY PUSH0 RETURN INVALID PUSH1 0x80 PUSH1 0x40 MSTORE CALLVALUE DUP1 ISZERO PUSH2 0xF JUMPI PUSH0 DUP1 REVERT JUMPDEST POP PUSH1 0x4 CALLDATASIZE LT PUSH2 0xE8 JUMPI PUSH0 CALLDATALOAD PUSH1 0xE0 SHR DUP1 PUSH4 0xA56DFE4A GT PUSH2 0x8A JUMPI DUP1 PUSH4 0xC2985578 GT PUSH2 0x64 JUMPI DUP1 PUSH4 0xC2985578 EQ PUSH2 0x21C JUMPI DUP1 PUSH4 0xC5D7802E EQ PUSH2 0x226 JUMPI DUP1 PUSH4 0xCB9F1220 EQ PUSH2 0x244 JUMPI DUP1 PUSH4 0xF1E6D198 EQ PUSH2 0x262 JUMPI PUSH2 0xE8 JUMP JUMPDEST DUP1 PUSH4 0xA56DFE4A EQ PUSH2 0x1C2 JUMPI DUP1 PUSH4 0xAEC3D640 EQ PUSH2 0x1E0 JUMPI DUP1 PUSH4 0xBE44F864 EQ PUSH2 0x1FE JUMPI PUSH2 0xE8 JUMP JUMPDEST DUP1 PUSH4 0x19EB4A90 GT PUSH2 0xC6 JUMPI DUP1 PUSH4 0x19EB4A90 EQ PUSH2 0x146 JUMPI DUP1 PUSH4 0x2ACA45F1 EQ PUSH2 0x166 JUMPI DUP1 PUSH4 0xA05F9906 EQ PUSH2 0x184 JUMPI DUP1 PUSH4 0xA0D0D59E EQ PUSH2 0x1A4 JUMPI PUSH2 0xE8 JUMP JUMPDEST DUP1 PUSH4 0x9879682 EQ PUSH2 0xEC JUMPI DUP1 PUSH4 0xC55699C EQ PUSH2 0x10A JUMPI DUP1 PUSH4 0x12176349 EQ PUSH2 0x128 JUMPI JUMPDEST PUSH0 DUP1 REVERT JUMPDEST PUSH2 0xF4 PUSH2 0x280 JUMP JUMPDEST PUSH1 0x40 MLOAD PUSH2 0x101 SWAP2 SWAP1 PUSH2 0x5F5 JUMP JUMPDEST PUSH1 0x40 MLOAD DUP1 SWAP2 SUB SWAP1 RETURN JUMPDEST PUSH2 0x112 PUSH2 0x299 JUMP JUMPDEST PUSH1 0x40 MLOAD PUSH2 0x11F SWAP2 SWAP1 PUSH2 0x5F5 JUMP JUMPDEST PUSH1 0x40 MLOAD DUP1 SWAP2 SUB SWAP1 RETURN JUMPDEST PUSH2 0x130 PUSH2 0x29E JUMP JUMPDEST PUSH1 0x40 MLOAD PUSH2 0x13D SWAP2 SWAP1 PUSH2 0x5F5 JUMP JUMPDEST PUSH1 0x40 MLOAD DUP1 SWAP2 SUB SWAP1 RETURN JUMPDEST PUSH2 0x14E PUSH2 0x2C8 JUMP JUMPDEST PUSH1 0x40 MLOAD PUSH2 0x15D SWAP4 SWAP3 SWAP2 SWAP1 PUSH2 0x698 JUMP JUMPDEST PUSH1 0x40 MLOAD DUP1 SWAP2 SUB SWAP1 RETURN JUMPDEST PUSH2 0x16E PUSH2 0x368 JUMP JUMPDEST PUSH1 0x40 MLOAD PUSH2 0x17B SWAP2 SWAP1 PUSH2 0x5F5 JUMP JUMPDEST PUSH1 0x40 MLOAD DUP1 SWAP2 SUB SWAP1 RETURN JUMPDEST PUSH2 0x18C PUSH2 0x398 JUMP JUMPDEST PUSH1 0x40 MLOAD PUSH2 0x19B SWAP4 SWAP3 SWAP2 SWAP1 PUSH2 0x765 JUMP JUMPDEST PUSH1 0x40 MLOAD DUP1 SWAP2 SUB SWAP1 RETURN JUMPDEST PUSH2 0x1AC PUSH2 0x3FC JUMP JUMPDEST PUSH1 0x40 MLOAD PUSH2 0x1B9 SWAP2 SWAP1 PUSH2 0x5F5 JUMP JUMPDEST PUSH1 0x40 MLOAD DUP1 SWAP2 SUB SWAP1 RETURN JUMPDEST PUSH2 0x1CA PUSH2 0x42C JUMP JUMPDEST PUSH1 0x40 MLOAD PUSH2 0x1D7 SWAP2 SWAP1 PUSH2 0x5F5 JUMP JUMPDEST PUSH1 0x40 MLOAD DUP1 SWAP2 SUB SWAP1 RETURN JUMPDEST PUSH2 0x1E8 PUSH2 0x432 JUMP JUMPDEST PUSH1 0x40 MLOAD PUSH2 0x1F5 SWAP2 SWAP1 PUSH2 0x5F5 JUMP JUMPDEST PUSH1 0x40 MLOAD DUP1 SWAP2 SUB SWAP1 RETURN JUMPDEST PUSH2 0x206 PUSH2 0x465 JUMP JUMPDEST PUSH1 0x40 MLOAD PUSH2 0x213 SWAP2 SWAP1 PUSH2 0x5F5 JUMP JUMPDEST PUSH1 0x40 MLOAD DUP1 SWAP2 SUB SWAP1 RETURN JUMPDEST PUSH2 0x224 PUSH2 0x492 JUMP JUMPDEST STOP JUMPDEST PUSH2 0x22E PUSH2 0x4E8 JUMP JUMPDEST PUSH1 0x40 MLOAD PUSH2 0x23B SWAP2 SWAP1 PUSH2 0x7A1 JUMP JUMPDEST PUSH1 0x40 MLOAD DUP1 SWAP2 SUB SWAP1 RETURN JUMPDEST PUSH2 0x24C PUSH2 0x574 JUMP JUMPDEST PUSH1 0x40 MLOAD PUSH2 0x259 SWAP2 SWAP1 PUSH2 0x5F5 JUMP JUMPDEST PUSH1 0x40 MLOAD DUP1 SWAP2 SUB SWAP1 RETURN JUMPDEST PUSH2 0x26A PUSH2 0x5B3 JUMP JUMPDEST PUSH1 0x40 MLOAD PUSH2 0x277 SWAP2 SWAP1 PUSH2 0x5F5 JUMP JUMPDEST PUSH1 0x40 MLOAD DUP1 SWAP2 SUB SWAP1 RETURN JUMPDEST PUSH0 PUSH1 0x1 DUP1 EQ PUSH2 0x292 JUMPI PUSH2 0x291 PUSH2 0x7C1 JUMP JUMPDEST JUMPDEST PUSH1 0x1 SWAP1 POP SWAP1 JUMP JUMPDEST PUSH0 SLOAD DUP2 JUMP JUMPDEST PUSH0 PUSH1 0x1 DUP1 EQ PUSH2 0x2B0 JUMPI PUSH2 0x2AF PUSH2 0x7C1 JUMP JUMPDEST JUMPDEST PUSH1 0x1 DUP1 EQ PUSH2 0x2C1 JUMPI PUSH2 0x2C0 PUSH2 0x7C1 JUMP JUMPDEST JUMPDEST PUSH1 0x1 SWAP1 POP SWAP1 JUMP JUMPDEST PUSH0 DUP1 PUSH1 0x60 PUSH0 SLOAD PUSH1 0x1 SLOAD PUSH1 0x2 DUP1 DUP1 SLOAD PUSH2 0x2DF SWAP1 PUSH2 0x81B JUMP JUMPDEST DUP1 PUSH1 0x1F ADD PUSH1 0x20 DUP1 SWAP2 DIV MUL PUSH1 0x20 ADD PUSH1 0x40 MLOAD SWAP1 DUP2 ADD PUSH1 0x40 MSTORE DUP1 SWAP3 SWAP2 SWAP1 DUP2 DUP2 MSTORE PUSH1 0x20 ADD DUP3 DUP1 SLOAD PUSH2 0x30B SWAP1 PUSH2 0x81B JUMP JUMPDEST DUP1 ISZERO PUSH2 0x356 JUMPI DUP1 PUSH1 0x1F LT PUSH2 0x32D JUMPI PUSH2 0x100 DUP1 DUP4 SLOAD DIV MUL DUP4 MSTORE SWAP2 PUSH1 0x20 ADD SWAP2 PUSH2 0x356 JUMP JUMPDEST DUP3 ADD SWAP2 SWAP1 PUSH0 MSTORE PUSH1 0x20 PUSH0 KECCAK256 SWAP1 JUMPDEST DUP2 SLOAD DUP2 MSTORE SWAP1 PUSH1 0x1 ADD SWAP1 PUSH1 0x20 ADD DUP1 DUP4 GT PUSH2 0x339 JUMPI DUP3 SWAP1 SUB PUSH1 0x1F AND DUP3 ADD SWAP2 JUMPDEST POP POP POP POP POP SWAP1 POP SWAP3 POP SWAP3 POP SWAP3 POP SWAP1 SWAP2 SWAP3 JUMP JUMPDEST PUSH0 PUSH3 0x93A80 DUP1 EQ PUSH2 0x37C JUMPI PUSH2 0x37B PUSH2 0x7C1 JUMP JUMPDEST JUMPDEST PUSH3 0x93A80 DUP1 EQ PUSH2 0x38F JUMPI PUSH2 0x38E PUSH2 0x7C1 JUMP JUMPDEST JUMPDEST PUSH3 0x93A80 SWAP1 POP SWAP1 JUMP JUMPDEST PUSH0 DUP1 PUSH1 0x60 PUSH0 CALLER SWAP1 POP PUSH0 NUMBER SWAP1 POP PUSH0 DUP1 CALLDATASIZE DUP1 DUP1 PUSH1 0x1F ADD PUSH1 0x20 DUP1 SWAP2 DIV MUL PUSH1 0x20 ADD PUSH1 0x40 MLOAD SWAP1 DUP2 ADD PUSH1 0x40 MSTORE DUP1 SWAP4 SWAP3 SWAP2 SWAP1 DUP2 DUP2 MSTORE PUSH1 0x20 ADD DUP4 DUP4 DUP1 DUP3 DUP5 CALLDATACOPY PUSH0 DUP2 DUP5 ADD MSTORE PUSH1 0x1F NOT PUSH1 0x1F DUP3 ADD AND SWAP1 POP DUP1 DUP4 ADD SWAP3 POP POP POP POP POP POP POP SWAP1 POP DUP3 DUP3 DUP3 SWAP6 POP SWAP6 POP SWAP6 POP POP POP POP SWAP1 SWAP2 SWAP3 JUMP JUMPDEST PUSH0 PUSH3 0x15180 DUP1 EQ PUSH2 0x410 JUMPI PUSH2 0x40F PUSH2 0x7C1 JUMP JUMPDEST JUMPDEST PUSH3 0x15180 DUP1 EQ PUSH2 0x423 JUMPI PUSH2 0x422 PUSH2 0x7C1 JUMP JUMPDEST JUMPDEST PUSH3 0x15180 SWAP1 POP SWAP1 JUMP JUMPDEST PUSH1 0x1 SLOAD DUP2 JUMP JUMPDEST PUSH0 PUSH4 0x3B9ACA00 DUP1 EQ PUSH2 0x447 JUMPI PUSH2 0x446 PUSH2 0x7C1 JUMP JUMPDEST JUMPDEST PUSH4 0x3B9ACA00 DUP1 EQ PUSH2 0x45B JUMPI PUSH2 0x45A PUSH2 0x7C1 JUMP JUMPDEST JUMPDEST PUSH4 0x3B9ACA00 SWAP1 POP SWAP1 JUMP JUMPDEST PUSH0 PUSH2 0xE10 DUP1 EQ PUSH2 0x478 JUMPI PUSH2 0x477 PUSH2 0x7C1 JUMP JUMPDEST JUMPDEST PUSH2 0xE10 DUP1 EQ PUSH2 0x48A JUMPI PUSH2 0x489 PUSH2 0x7C1 JUMP JUMPDEST JUMPDEST PUSH2 0xE10 SWAP1 POP SWAP1 JUMP JUMPDEST PUSH1 0x5 PUSH0 DUP2 SWAP1 SSTORE POP PUSH1 0x2 PUSH1 0x1 DUP2 SWAP1 SSTORE POP PUSH1 0x40 MLOAD DUP1 PUSH1 0x40 ADD PUSH1 0x40 MSTORE DUP1 PUSH1 0x4 DUP2 MSTORE PUSH1 0x20 ADD PUSH32 0x3078414100000000000000000000000000000000000000000000000000000000 DUP2 MSTORE POP PUSH1 0x2 SWAP1 DUP2 PUSH2 0x4E5 SWAP2 SWAP1 PUSH2 0xA15 JUMP JUMPDEST POP JUMP JUMPDEST PUSH1 0x2 DUP1 SLOAD PUSH2 0x4F5 SWAP1 PUSH2 0x81B JUMP JUMPDEST DUP1 PUSH1 0x1F ADD PUSH1 0x20 DUP1 SWAP2 DIV MUL PUSH1 0x20 ADD PUSH1 0x40 MLOAD SWAP1 DUP2 ADD PUSH1 0x40 MSTORE DUP1 SWAP3 SWAP2 SWAP1 DUP2 DUP2 MSTORE PUSH1 0x20 ADD DUP3 DUP1 SLOAD PUSH2 0x521 SWAP1 PUSH2 0x81B JUMP JUMPDEST DUP1 ISZERO PUSH2 0x56C JUMPI DUP1 PUSH1 0x1F LT PUSH2 0x543 JUMPI PUSH2 0x100 DUP1 DUP4 SLOAD DIV MUL DUP4 MSTORE SWAP2 PUSH1 0x20 ADD SWAP2 PUSH2 0x56C JUMP JUMPDEST DUP3 ADD SWAP2 SWAP1 PUSH0 MSTORE PUSH1 0x20 PUSH0 KECCAK256 SWAP1 JUMPDEST DUP2 SLOAD DUP2 MSTORE SWAP1 PUSH1 0x1 ADD SWAP1 PUSH1 0x20 ADD DUP1 DUP4 GT PUSH2 0x54F JUMPI DUP3 SWAP1 SUB PUSH1 0x1F AND DUP3 ADD SWAP2 JUMPDEST POP POP POP POP POP DUP2 JUMP JUMPDEST PUSH0 PUSH8 0xDE0B6B3A7640000 DUP1 EQ PUSH2 0x58D JUMPI PUSH2 0x58C PUSH2 0x7C1 JUMP JUMPDEST JUMPDEST PUSH8 0xDE0B6B3A7640000 DUP1 EQ PUSH2 0x5A5 JUMPI PUSH2 0x5A4 PUSH2 0x7C1 JUMP JUMPDEST JUMPDEST PUSH8 0xDE0B6B3A7640000 SWAP1 POP SWAP1 JUMP JUMPDEST PUSH0 PUSH1 0x3C DUP1 EQ PUSH2 0x5C5 JUMPI PUSH2 0x5C4 PUSH2 0x7C1 JUMP JUMPDEST JUMPDEST PUSH1 0x3C DUP1 EQ PUSH2 0x5D6 JUMPI PUSH2 0x5D5 PUSH2 0x7C1 JUMP JUMPDEST JUMPDEST PUSH1 0x3C SWAP1 POP SWAP1 JUMP JUMPDEST PUSH0 DUP2 SWAP1 POP SWAP2 SWAP1 POP JUMP JUMPDEST PUSH2 0x5EF DUP2 PUSH2 0x5DD JUMP JUMPDEST DUP3 MSTORE POP POP JUMP JUMPDEST PUSH0 PUSH1 0x20 DUP3 ADD SWAP1 POP PUSH2 0x608 PUSH0 DUP4 ADD DUP5 PUSH2 0x5E6 JUMP JUMPDEST SWAP3 SWAP2 POP POP JUMP JUMPDEST PUSH0 DUP2 MLOAD SWAP1 POP SWAP2 SWAP1 POP JUMP JUMPDEST PUSH0 DUP3 DUP3 MSTORE PUSH1 0x20 DUP3 ADD SWAP1 POP SWAP3 SWAP2 POP POP JUMP JUMPDEST PUSH0 JUMPDEST DUP4 DUP2 LT ISZERO PUSH2 0x645 JUMPI DUP1 DUP3 ADD MLOAD DUP2 DUP5 ADD MSTORE PUSH1 0x20 DUP2 ADD SWAP1 POP PUSH2 0x62A JUMP JUMPDEST PUSH0 DUP5 DUP5 ADD MSTORE POP POP POP POP JUMP JUMPDEST PUSH0 PUSH1 0x1F NOT PUSH1 0x1F DUP4 ADD AND SWAP1 POP SWAP2 SWAP1 POP JUMP JUMPDEST PUSH0 PUSH2 0x66A DUP3 PUSH2 0x60E JUMP JUMPDEST PUSH2 0x674 DUP2 DUP6 PUSH2 0x618 JUMP JUMPDEST SWAP4 POP PUSH2 0x684 DUP2 DUP6 PUSH1 0x20 DUP7 ADD PUSH2 0x628 JUMP JUMPDEST PUSH2 0x68D DUP2 PUSH2 0x650 JUMP JUMPDEST DUP5 ADD SWAP2 POP POP SWAP3 SWAP2 POP POP JUMP JUMPDEST PUSH0 PUSH1 0x60 DUP3 ADD SWAP1 POP PUSH2 0x6AB PUSH0 DUP4 ADD DUP7 PUSH2 0x5E6 JUMP JUMPDEST PUSH2 0x6B8 PUSH1 0x20 DUP4 ADD DUP6 PUSH2 0x5E6 JUMP JUMPDEST DUP2 DUP2 SUB PUSH1 0x40 DUP4 ADD MSTORE PUSH2 0x6CA DUP2 DUP5 PUSH2 0x660 JUMP JUMPDEST SWAP1 POP SWAP5 SWAP4 POP POP POP POP JUMP JUMPDEST PUSH0 PUSH20 0xFFFFFFFFFFFFFFFFFFFFFFFFFFFFFFFFFFFFFFFF DUP3 AND SWAP1 POP SWAP2 SWAP1 POP JUMP JUMPDEST PUSH0 PUSH2 0x6FD DUP3 PUSH2 0x6D4 JUMP JUMPDEST SWAP1 POP SWAP2 SWAP1 POP JUMP JUMPDEST PUSH2 0x70D DUP2 PUSH2 0x6F3 JUMP JUMPDEST DUP3 MSTORE POP POP JUMP JUMPDEST PUSH0 DUP2 MLOAD SWAP1 POP SWAP2 SWAP1 POP JUMP JUMPDEST PUSH0 DUP3 DUP3 MSTORE PUSH1 0x20 DUP3 ADD SWAP1 POP SWAP3 SWAP2 POP POP JUMP JUMPDEST PUSH0 PUSH2 0x737 DUP3 PUSH2 0x713 JUMP JUMPDEST PUSH2 0x741 DUP2 DUP6 PUSH2 0x71D JUMP JUMPDEST SWAP4 POP PUSH2 0x751 DUP2 DUP6 PUSH1 0x20 DUP7 ADD PUSH2 0x628 JUMP JUMPDEST PUSH2 0x75A DUP2 PUSH2 0x650 JUMP JUMPDEST DUP5 ADD SWAP2 POP POP SWAP3 SWAP2 POP POP JUMP JUMPDEST PUSH0 PUSH1 0x60 DUP3 ADD SWAP1 POP PUSH2 0x778 PUSH0 DUP4 ADD DUP7 PUSH2 0x704 JUMP JUMPDEST PUSH2 0x785 PUSH1 0x20 DUP4 ADD DUP6 PUSH2 0x5E6 JUMP JUMPDEST DUP2 DUP2 SUB PUSH1 0x40 DUP4 ADD MSTORE PUSH2 0x797 DUP2 DUP5 PUSH2 0x72D JUMP JUMPDEST SWAP1 POP SWAP5 SWAP4 POP POP POP POP JUMP JUMPDEST PUSH0 PUSH1 0x20 DUP3 ADD SWAP1 POP DUP2 DUP2 SUB PUSH0 DUP4 ADD MSTORE PUSH2 0x7B9 DUP2 DUP5 PUSH2 0x660 JUMP JUMPDEST SWAP1 POP SWAP3 SWAP2 POP POP JUMP JUMPDEST PUSH32 0x4E487B7100000000000000000000000000000000000000000000000000000000 PUSH0 MSTORE PUSH1 0x1 PUSH1 0x4 MSTORE PUSH1 0x24 PUSH0 REVERT JUMPDEST PUSH32 0x4E487B7100000000000000000000000000000000000000000000000000000000 PUSH0 MSTORE PUSH1 0x22 PUSH1 0x4 MSTORE PUSH1 0x24 PUSH0 REVERT JUMPDEST PUSH0 PUSH1 0x2 DUP3 DIV SWAP1 POP PUSH1 0x1 DUP3 AND DUP1 PUSH2 0x832 JUMPI PUSH1 0x7F DUP3 AND SWAP2 POP JUMPDEST PUSH1 0x20 DUP3 LT DUP2 SUB PUSH2 0x845 JUMPI PUSH2 0x844 PUSH2 0x7EE JUMP JUMPDEST JUMPDEST POP SWAP2 SWAP1 POP JUMP JUMPDEST PUSH32 0x4E487B7100000000000000000000000000000000000000000000000000000000 PUSH0 MSTORE PUSH1 0x41 PUSH1 0x4 MSTORE PUSH1 0x24 PUSH0 REVERT JUMPDEST PUSH0 DUP2 SWAP1 POP DUP2 PUSH0 MSTORE PUSH1 0x20 PUSH0 KECCAK256 SWAP1 POP SWAP2 SWAP1 POP JUMP JUMPDEST PUSH0 PUSH1 0x20 PUSH1 0x1F DUP4 ADD DIV SWAP1 POP SWAP2 SWAP1 POP JUMP JUMPDEST PUSH0 DUP3 DUP3 SHL SWAP1 POP SWAP3 SWAP2 POP POP JUMP JUMPDEST PUSH0 PUSH1 0x8 DUP4 MUL PUSH2 0x8D4 PUSH32 0xFFFFFFFFFFFFFFFFFFFFFFFFFFFFFFFFFFFFFFFFFFFFFFFFFFFFFFFFFFFFFFFF DUP3 PUSH2 0x899 JUMP JUMPDEST PUSH2 0x8DE DUP7 DUP4 PUSH2 0x899 JUMP JUMPDEST SWAP6 POP DUP1 NOT DUP5 AND SWAP4 POP DUP1 DUP7 AND DUP5 OR SWAP3 POP POP POP SWAP4 SWAP3 POP POP POP JUMP JUMPDEST PUSH0 DUP2 SWAP1 POP SWAP2 SWAP1 POP JUMP JUMPDEST PUSH0 PUSH2 0x919 PUSH2 0x914 PUSH2 0x90F DUP5 PUSH2 0x5DD JUMP JUMPDEST PUSH2 0x8F6 JUMP JUMPDEST PUSH2 0x5DD JUMP JUMPDEST SWAP1 POP SWAP2 SWAP1 POP JUMP JUMPDEST PUSH0 DUP2 SWAP1 POP SWAP2 SWAP1 POP JUMP JUMPDEST PUSH2 0x932 DUP4 PUSH2 0x8FF JUMP JUMPDEST PUSH2 0x946 PUSH2 0x93E DUP3 PUSH2 0x920 JUMP JUMPDEST DUP5 DUP5 SLOAD PUSH2 0x8A5 JUMP JUMPDEST DUP3 SSTORE POP POP POP POP JUMP JUMPDEST PUSH0 SWAP1 JUMP JUMPDEST PUSH2 0x95A PUSH2 0x94E JUMP JUMPDEST PUSH2 0x965 DUP2 DUP5 DUP5 PUSH2 0x929 JUMP JUMPDEST POP POP POP JUMP JUMPDEST JUMPDEST DUP2 DUP2 LT ISZERO PUSH2 0x988 JUMPI PUSH2 0x97D PUSH0 DUP3 PUSH2 0x952 JUMP JUMPDEST PUSH1 0x1 DUP2 ADD SWAP1 POP PUSH2 0x96B JUMP JUMPDEST POP POP JUMP JUMPDEST PUSH1 0x1F DUP3 GT ISZERO PUSH2 0x9CD JUMPI PUSH2 0x99E DUP2 PUSH2 0x878 JUMP JUMPDEST PUSH2 0x9A7 DUP5 PUSH2 0x88A JUMP JUMPDEST DUP2 ADD PUSH1 0x20 DUP6 LT ISZERO PUSH2 0x9B6 JUMPI DUP2 SWAP1 POP JUMPDEST PUSH2 0x9CA PUSH2 0x9C2 DUP6 PUSH2 0x88A JUMP JUMPDEST DUP4 ADD DUP3 PUSH2 0x96A JUMP JUMPDEST POP POP JUMPDEST POP POP POP JUMP JUMPDEST PUSH0 DUP3 DUP3 SHR SWAP1 POP SWAP3 SWAP2 POP POP JUMP JUMPDEST PUSH0 PUSH2 0x9ED PUSH0 NOT DUP5 PUSH1 0x8 MUL PUSH2 0x9D2 JUMP JUMPDEST NOT DUP1 DUP4 AND SWAP2 POP POP SWAP3 SWAP2 POP POP JUMP JUMPDEST PUSH0 PUSH2 0xA05 DUP4 DUP4 PUSH2 0x9DE JUMP JUMPDEST SWAP2 POP DUP3 PUSH1 0x2 MUL DUP3 OR SWAP1 POP SWAP3 SWAP2 POP POP JUMP JUMPDEST PUSH2 0xA1E DUP3 PUSH2 0x60E JUMP JUMPDEST PUSH8 0xFFFFFFFFFFFFFFFF DUP2 GT ISZERO PUSH2 0xA37 JUMPI PUSH2 0xA36 PUSH2 0x84B JUMP JUMPDEST JUMPDEST PUSH2 0xA41 DUP3 SLOAD PUSH2 0x81B JUMP JUMPDEST PUSH2 0xA4C DUP3 DUP3 DUP6 PUSH2 0x98C JUMP JUMPDEST PUSH0 PUSH1 0x20 SWAP1 POP PUSH1 0x1F DUP4 GT PUSH1 0x1 DUP2 EQ PUSH2 0xA7D JUMPI PUSH0 DUP5 ISZERO PUSH2 0xA6B JUMPI DUP3 DUP8 ADD MLOAD SWAP1 POP JUMPDEST PUSH2 0xA75 DUP6 DUP3 PUSH2 0x9FA JUMP JUMPDEST DUP7 SSTORE POP PUSH2 0xADC JUMP JUMPDEST PUSH1 0x1F NOT DUP5 AND PUSH2 0xA8B DUP7 PUSH2 0x878 JUMP JUMPDEST PUSH0 JUMPDEST DUP3 DUP2 LT ISZERO PUSH2 0xAB2 JUMPI DUP5 DUP10 ADD MLOAD DUP3 SSTORE PUSH1 0x1 DUP3 ADD SWAP2 POP PUSH1 0x20 DUP6 ADD SWAP5 POP PUSH1 0x20 DUP2 ADD SWAP1 POP PUSH2 0xA8D JUMP JUMPDEST DUP7 DUP4 LT ISZERO PUSH2 0xACF JUMPI DUP5 DUP10 ADD MLOAD PUSH2 0xACB PUSH1 0x1F DUP10 AND DUP3 PUSH2 0x9DE JUMP JUMPDEST DUP4 SSTORE POP JUMPDEST PUSH1 0x1 PUSH1 0x2 DUP9 MUL ADD DUP9 SSTORE POP POP POP JUMPDEST POP POP POP POP POP POP JUMP INVALID LOG2 PUSH5 0x6970667358 0x22 SLT KECCAK256 DELEGATECALL 0xD SGT 0x2D 0x5E TIMESTAMP PUSH24 0xAEAC0A9FBFC84EBC76D9B4A5AFDDAB89AC50AF0AE672FF05 0xAE PUSH5 0x736F6C6343 STOP ADDMOD AND STOP CALLER "
		},
		"gasEstimates": {
			"creation": {
				"codeDepositCost": "568400",
				"executionCost": "22703",
				"totalCost": "591103"
			},
			"external": {
				"daysUnit()": "467",
				"etherUnit()": "444",
				"foo()": "infinite",
				"getValues()": "infinite",
				"global()": "infinite",
				"gweiUnit()": "423",
				"hoursUnit()": "445",
				"minutesUnit()": "466",
				"secondsUnit()": "379",
				"weeksUnit()": "423",
				"weiUnit()": "446",
				"x()": "2470",
				"y()": "2448",
				"z()": "infinite"
			}
		},
		"methodIdentifiers": {
			"daysUnit()": "a0d0d59e",
			"etherUnit()": "cb9f1220",
			"foo()": "c2985578",
			"getValues()": "19eb4a90",
			"global()": "a05f9906",
			"gweiUnit()": "aec3d640",
			"hoursUnit()": "be44f864",
			"minutesUnit()": "f1e6d198",
			"secondsUnit()": "09879682",
			"weeksUnit()": "2aca45f1",
			"weiUnit()": "12176349",
			"x()": "0c55699c",
			"y()": "a56dfe4a",
			"z()": "c5d7802e"
		}
	},
	"abi": [
		{
			"inputs": [],
			"name": "daysUnit",
			"outputs": [
				{
					"internalType": "uint256",
					"name": "",
					"type": "uint256"
				}
			],
			"stateMutability": "pure",
			"type": "function"
		},
		{
			"inputs": [],
			"name": "etherUnit",
			"outputs": [
				{
					"internalType": "uint256",
					"name": "",
					"type": "uint256"
				}
			],
			"stateMutability": "pure",
			"type": "function"
		},
		{
			"inputs": [],
			"name": "foo",
			"outputs": [],
			"stateMutability": "nonpayable",
			"type": "function"
		},
		{
			"inputs": [],
			"name": "getValues",
			"outputs": [
				{
					"internalType": "uint256",
					"name": "",
					"type": "uint256"
				},
				{
					"internalType": "uint256",
					"name": "",
					"type": "uint256"
				},
				{
					"internalType": "string",
					"name": "",
					"type": "string"
				}
			],
			"stateMutability": "view",
			"type": "function"
		},
		{
			"inputs": [],
			"name": "global",
			"outputs": [
				{
					"internalType": "address",
					"name": "",
					"type": "address"
				},
				{
					"internalType": "uint256",
					"name": "",
					"type": "uint256"
				},
				{
					"internalType": "bytes",
					"name": "",
					"type": "bytes"
				}
			],
			"stateMutability": "view",
			"type": "function"
		},
		{
			"inputs": [],
			"name": "gweiUnit",
			"outputs": [
				{
					"internalType": "uint256",
					"name": "",
					"type": "uint256"
				}
			],
			"stateMutability": "pure",
			"type": "function"
		},
		{
			"inputs": [],
			"name": "hoursUnit",
			"outputs": [
				{
					"internalType": "uint256",
					"name": "",
					"type": "uint256"
				}
			],
			"stateMutability": "pure",
			"type": "function"
		},
		{
			"inputs": [],
			"name": "minutesUnit",
			"outputs": [
				{
					"internalType": "uint256",
					"name": "",
					"type": "uint256"
				}
			],
			"stateMutability": "pure",
			"type": "function"
		},
		{
			"inputs": [],
			"name": "secondsUnit",
			"outputs": [
				{
					"internalType": "uint256",
					"name": "",
					"type": "uint256"
				}
			],
			"stateMutability": "pure",
			"type": "function"
		},
		{
			"inputs": [],
			"name": "weeksUnit",
			"outputs": [
				{
					"internalType": "uint256",
					"name": "",
					"type": "uint256"
				}
			],
			"stateMutability": "pure",
			"type": "function"
		},
		{
			"inputs": [],
			"name": "weiUnit",
			"outputs": [
				{
					"internalType": "uint256",
					"name": "",
					"type": "uint256"
				}
			],
			"stateMutability": "pure",
			"type": "function"
		},
		{
			"inputs": [],
			"name": "x",
			"outputs": [
				{
					"internalType": "uint256",
					"name": "",
					"type": "uint256"
				}
			],
			"stateMutability": "view",
			"type": "function"
		},
		{
			"inputs": [],
			"name": "y",
			"outputs": [
				{
					"internalType": "uint256",
					"name": "",
					"type": "uint256"
				}
			],
			"stateMutability": "view",
			"type": "function"
		},
		{
			"inputs": [],
			"name": "z",
			"outputs": [
				{
					"internalType": "string",
					"name": "",
					"type": "string"
				}
			],
			"stateMutability": "view",
			"type": "function"
		}
	]
}